:020000040800F2
:1000000090060020CD0100080D2C000837100008D4
:10001000092C000863030008E52F00080000000019
:10002000000000000000000000000000B92D0008E2
:100030006703000800000000492C0008BB2D0008E1
:10004000E7010008E7010008E7010008E7010008F0
:10005000E7010008E70100088D030008E701000838
:10006000E7010008E7010008E7010008E7010008D0
:10007000E7010008E7010008E7010008E7010008C0
:10008000E7010008E7010008E7010008E7010008B0
:10009000E7010008E7010008E7010008E7010008A0
:1000A000E7010008E7010008E7010008E701000890
:1000B000E7010008E7010008E7010008E701000880
:1000C000E7010008E7010008E7010008E701000870
:1000D000E7010008E7010008E7010008E701000860
:1000E000E7010008E7010008E7010008E701000850
:1000F000E7010008E7010008E7010008E701000840
:10010000E7010008E7010008E7010008E70100082F
:10011000E7010008E7010008E7010008E70100081F
:10012000E7010008E7010008E7010008E70100080F
:1001300000F002F800F03AF80AA090E8000C8244BF
:100140008344AAF10107DA4501D100F02FF8AFF29C
:10015000090EBAE80F0013F0010F18BFFB1A43F0A5
:100160000103184794B80000B4B80000103A24BF47
:1001700078C878C1FAD8520724BF30C830C144BF0C
:1001800004680C607047000000230024002500264E
:10019000103A28BF78C1FBD8520728BF30C148BFEA
:1001A0000B6070471FB51FBD10B510BD00F058F8AB
:1001B0001146FFF7F7FF02F0A1FF00F076F803B455
:1001C000FFF7F2FF03BC00F07DF80000094880470C
:1001D00009480047FEE7FEE7FEE7FEE7FEE7FEE729
:1001E000FEE7FEE7FEE7FEE704480549054A064B41
:1001F00070470000252E0008310100089000002003
:100200009006002090020020900200204FF0000293
:1002100000B5134694469646203922BFA0E80C50FC
:10022000A0E80C50B1F12001BFF4F7AF090728BFD7
:10023000A0E80C5048BF0CC05DF804EB890028BF53
:1002400040F8042B08BF704748BF20F8022B11F07C
:10025000804F18BF00F8012B7047704770477047F8
:10026000754600F02BF8AE4605006946534620F06F
:100270000700854618B020B5FFF7B6FFBDE820405F
:100280004FF000064FF000074FF000084FF0000B52
:1002900021F00701AC46ACE8C009ACE8C009ACE805
:1002A000C009ACE8C0098D46704710B50446AFF3ED
:1002B00000802046BDE81040FFF781BF004870472E
:1002C0002C00002001491820ABBEFEE726000200EA
:1002D00070472DE9F04104460D4616461F464FF47F
:1002E000285002F081FEC4F30F2002F083FE42F694
:1002F000012002F079FEA0B202F07CFE42F602205C
:1003000002F072FEC5F30F2002F074FE42F60320E5
:1003100002F06AFEA8B202F06DFE4FF42C5002F01B
:1003200063FEC6F30F2002F065FE42F6013002F0D4
:100330005BFEB0B202F05EFE42F6023002F054FE06
:10034000C7F30F2002F056FE42F6033002F04CFED7
:10035000B8B202F04FFE4FF4305002F045FEBDE857
:10036000F08100BFFEE7704770B506460C461546A3
:100370002346224631463046FFF7ABFF281202499A
:1003800008700D7070BD0000000001607047000033
:1003900070B50446B3F5804F13D1D1E9000540EAAA
:1003A00005108D6840EA05208D6928438D8940EA53
:1003B000054054F82250064E3540284344F82200A8
:1003C00003E06FF0704044F82200002070BD000090
:1003D0000000F0CF10B50246086852F8200020F067
:1003E00001000B6842F823008868082822D1486879
:1003F00040F040008B681843CB6818430B691843E2
:100400004B6918438B691843CB6918430B6A18432F
:100410004B6A18438B6A1843CB6A18430B6B18431B
:100420000B6852F82330144C234018430B6842F8F1
:1004300023001FE0D1E901031843CB6818430B697F
:1004400018434B6918438B691843CB6918430B6AEF
:1004500018434B6A18438B6A1843CB6A18430B6BDB
:1004600018430B6852F82330034C234018430B68A1
:1004700042F82300002010BD8100F7FF10B50346AD
:10048000D1E9000440EA04108C6840EA04208C8919
:1004900040EA0444088A401E44EA0054087D801E55
:1004A00044EA00608C692043541C53F8244004F053
:1004B00040442043541C43F82400002010BD70B574
:1004C00005460E46002400F05FFE702000F026FE78
:1004D00000F08CFE002000F021FE00F087FE00F00E
:1004E0006DFE00F051FE712000F018FE00F07EFE5F
:1004F00000BF0DE0701EA04204D1002000F0E0FD1E
:10050000285503E0012000F0DBFD2855601C44B2B3
:10051000B442EFD300F052FE002070BD2DE9F84741
:1005200002460024002000258446002700237BE1AA
:100530004FF0010808FA03F4D1F8008008EA04003B
:10054000A0427DD1DFF8ECA2D1F80480A8EB0A0923
:10055000D0453AD014DCB8F1030F50D009DCB8F123
:10056000000F31D0B8F1010F1CD0B8F1020F49D102
:1005700020E0B8F1110F18D0B8F1120F42D11EE0EF
:10058000B9F5881F25D006DCB9F5803F20D0B9F534
:10059000801F37D11AE0B9F5001F18D0B9F5041F34
:1005A00030D117E0D1F80CC02DE0D1F80C8008F163
:1005B000040C28E0D1F80C8008F1080C23E0D1F8F5
:1005C0000C8008F10C0C1EE000BF00BF00BF00BF94
:1005D00000BF00BFD1F80880B8F1000F02D14FF082
:1005E000040C0BE0D1F80880B8F1010F03D14FF0F3
:1005F000080C146102E04FF0080C546103E04FF066
:10060000000C00E000BF00BFFF2801D8904601E0C9
:1006100002F104084646FF2802D84FEA830803E0A7
:10062000A3F108084FEA88084746D6F800804FF043
:100630000F0909FA07F928EA09080CFA07F900E096
:100640007AE048EA0908C6F80080D1F8048008F08A
:100650008058B8F1805F6FD100BFDFF8DC81D8F837
:10066000188048F00108DFF8D091C9F81880C84612
:10067000D8F8188008F00108CDF8008000BF00BF4E
:100680004FEAB9384FEA930958F829504FEA83786E
:100690004FEA18794FF00F0808FA09F825EA08051B
:1006A000DFF89881424502D14FF0000824E0DFF8DE
:1006B0009081424502D14FF001081DE0DFF88481AE
:1006C000424502D14FF0020816E0DFF87C81424536
:1006D00002D14FF003080FE0DFF87081424502D1EC
:1006E0004FF0040808E0DFF86881424502D14FF07E
:1006F000050801E04FF006084FEA83794FEA1979BF
:1007000008FA09F848EA0505DFF848814FEA930935
:1007100048F82950D1F8048008F48038B8F5803FB3
:100720000BD1DFF83481D8F8008048EA0008DFF800
:100730002891C9F800800AE075E0DFF81C81D8F83C
:10074000008028EA0008DFF81091C9F80080D1F88D
:10075000048008F40038B8F5003F0ED1DFF8F880C7
:1007600008F10408D8F8008048EA0008DFF8E890AB
:1007700009F10409C9F800800DE0DFF8DC8008F118
:100780000408D8F8008028EA0008DFF8CC9009F1C6
:100790000409C9F80080D1F8048008F48018B8F57D
:1007A000801F0ED1DFF8B08008F10808D8F800806B
:1007B00048EA0008DFF8A09009F10809C9F80080AC
:1007C0000DE0DFF8948008F10808D8F8008028EAE6
:1007D0000008DFF8849009F10809C9F80080D1F811
:1007E000048008F40018B8F5001F0ED1DFF8688007
:1007F00008F10C08D8F8008048EA0008DFF85890A3
:1008000009F10C09C9F800800DE0DFF84C8008F10F
:100810000C08D8F8008028EA0008DFF83C9009F1BD
:100820000C09C9F800805B1C102BFFF481AEBDE8F9
:10083000F88700000000111000100240000801407D
:10084000000C01400010014000140140001801405C
:10085000001C01400800014000040140024693686A
:100860000B400BB1012000E00020704701480068F8
:10087000704700000400002002480068401C014945
:10088000086070470400002070B5044607480068FF
:100890004FF47A71B0FBF1F5284600F0B2FB00226C
:1008A0002146501E00F004F8002070BD000000201A
:1008B0002DE9F05F80460D461646002702F0A8F9A4
:1008C000074639462A46334601F00700C0F1070AB9
:1008D000BAF1040F02D94FF0040A01E0C0F1070A8F
:1008E000D14600F1040ABAF1070F02D24FF0000A14
:1008F00001E0A0F1030AD4464FF0010A0AFA09FA0E
:10090000AAF1010A0AEA020A0AFA0CFA4FF0010BEC
:100910000BFA0CFBABF1010B0BEA030B4AEA0B04DD
:100920002146404602F07CF9BDE8F09F70B50446D0
:100930000D4600266248006800F00700A8420ED26B
:100940005F48006820F0070028435D4908600846BA
:10095000006800F00700A84201D0012070BD207897
:1009600000F00200022807D15648406820F0F0004D
:10097000A168084353494860207800F0010000282E
:100980005DD06068012806D14E48006800F4003050
:1009900090B90120E2E76068022806D14948006862
:1009A00000F0007040B90120D8E74648006800F028
:1009B000020008B90120D1E74248406820F0030056
:1009C000616808433F494860FFF750FF064660688A
:1009D000012810D108E0FFF749FF801B41F2883160
:1009E000884201D90320B9E73648406800F00C007E
:1009F0000428F0D123E06068022810D108E0FFF756
:100A000035FF801B41F28831884201D90320A5E7D8
:100A10002C48406800F00C000828F0D10FE008E0F6
:100A2000FFF724FF801B41F28831884201D903205F
:100A300094E72448406800F00C000028F0D12048DA
:100A4000006800F00700A8420ED91D48006820F099
:100A5000070028431A4908600846006800F00700AC
:100A6000A84201D0012079E7207800F00400042892
:100A700007D11448406820F4E060E1680843114958
:100A80004860207800F00800082808D10D48406828
:100A900020F46050216940EAC1000A49486000F032
:100AA00017F808494968C1F30311074A515CC84067
:100AB000064908600F20FFF7E7FE00204EE7000020
:100AC0000020024000100240F43100080000002025
:100AD000F0B585B00FF2700C9CE8E01001A8A0E81A
:100AE000E0101DA52D6800950021002400220023A0
:100AF00000201A4D696801F00C05FDB1042D02D0EB
:100B0000082D1AD101E016481AE001ADC1F3834661
:100B1000AB5D01F480355DB1104D6D68C5F34045A6
:100B20001DF805400E4DB5FBF4F505FB03F202E0A0
:100B30000C4D03FB05F2104602E000BF084800BF61
:100B400000BF05B0F0BD0000020304050607080958
:100B50000A0B0C0D0E0F10100102000000100240D5
:100B600000127A0000093D00F8B5044600252078FF
:100B700000F00100002878D0F848406800F00C0030
:100B800004280CD0F548406800F00C00082811D16A
:100B9000F248406800F48030B0F5803F0AD1EF4859
:100BA000006800F4003000285FD0606800285CD145
:100BB0000120F8BD00BF6068B0F5803F06D1E7486E
:100BC000006840F48030E549086028E0606858B962
:100BD000E248006820F48030E04908600846006878
:100BE00020F4802008601AE06068B0F5A02F0BD1D7
:100BF000DA48006840F48020D84908600846006858
:100C000040F4803008600AE0D448006820F4803066
:100C1000D24908600846006820F48020086000BFC0
:100C2000606888B1FFF722FE054606E0FFF71EFE6A
:100C3000401B642801D90320BBE7C848006800F4C2
:100C400000300028F2D010E0FFF710FE054606E065
:100C5000FFF70CFE401B642801D90320A9E7BF4819
:100C6000006800F400300028F2D1207800F0020083
:100C7000022857D1B948406800F00C0050B1B7487D
:100C8000406800F00C00082818D1B448406800F40F
:100C9000803098B9B148006800F0020020B12069A6
:100CA000012801D0012084E7AC48006820F0F8005A
:100CB000616940EAC100A949086033E02069E8B1F0
:100CC0000120A7490860FFF7D1FD054606E0FFF7C0
:100CD000CDFD401B022801D903206AE79F48006828
:100CE00000F002000028F2D09C48006820F0F800D4
:100CF000616940EAC1009949086013E00020984901
:100D00000860FFF7B3FD054606E0FFF7AFFD401BA7
:100D1000022801D903204CE79048006800F0020047
:100D20000028F2D1207800F0080008282DD1A06911
:100D3000B8B101208B490860FFF798FD054606E031
:100D4000FFF794FD401B022801D9032031E78348B7
:100D5000406A00F002000028F2D0012001F0D4FF28
:100D600013E000207F490860FFF780FD054606E09C
:100D7000FFF77CFD401B022801D9032019E77748C3
:100D8000406A00F002000028F2D1207800F0040050
:100D9000042873D100267148C06900F0805070B9F2
:100DA00000BF6E48C06940F080506C49C861084679
:100DB000C06900F08050009000BF00BF01266A4863
:100DC000006800F48070B0B96748006840F4807033
:100DD00065490860FFF74AFD054606E0FFF746FD56
:100DE000401B642801D90320E3E65F48006800F453
:100DF00080700028F2D000BFE068012806D1574873
:100E0000006A40F001005549086227E0E06858B9DF
:100E10005248006A20F00100504908620846006A02
:100E200020F00400086219E0E06805280BD14B4867
:100E3000006A40F00400494908620846006A40F030
:100E4000010008620AE04548006A20F001004349B9
:100E500008620846006A20F00400086200BFE068EB
:100E6000A0B1FFF703FD054609E0FFF7FFFC401BBB
:100E700041F28831884202D903209AE622E03748BD
:100E8000006A00F002000028EFD012E0FFF7EEFC4D
:100E9000054608E0FFF7EAFC401B41F28831884232
:100EA00001D9032085E62D48006A00F002000028E1
:100EB000F0D1012E05D12948C06920F08050274982
:100EC000C86100BFE069C8B32448406800F00C0066
:100ED000082860D0E069022848D10020204908662F
:100EE000FFF7C4FC054606E0FFF7C0FC401B0228E4
:100EF00001D903205DE61948006800F00070002861
:100F0000F2D1206AB0F5803F07D11448406820F440
:100F10000030A168084311494860D4E9080108433A
:100F20000E49496821F4741108430C4948600120B6
:100F30000B490866FFF79AFC054607E02DE0FFF72E
:100F400095FC401B022801D9032032E603480068C3
:100F500000F000700028F2D01FE0000000100240F6
:100F600000004242800442420070004000200C49D0
:100F70000866FFF77BFC054606E0FFF777FC401BA1
:100F8000022801D9032014E60648006800F000702A
:100F90000028F2D101E001200BE6002009E6000064
:100FA000000042420010024070B504460E4615464D
:100FB0000CB9012070BD94F83D0028B9002084F8D8
:100FC0003C00204600F01CF804F108012068FFF7FF
:100FD00001FA3146A2682068FFF750FA2946236BD0
:100FE000D4E90102FFF7D4F9A168206850F8210084
:100FF00040F00100A268216841F822000020D9E7F2
:10100000704770B504462546681EB0F1807F01D355
:1010100001200FE0681E4FF0E02148610F214FF0E2
:10102000FF3001F0FDFD00204FF0E0218861072036
:101030000861002070BD00BFFEE7000000B54FF45E
:1010400000500A49086080000860012000F010F894
:101050004FF400500549091F0860012000F008F80E
:101060004FF400500149086000BD0000140C01401D
:1010700008B50021009104E0BDF80010491C89B2B8
:101080000091BDF800108142F6DB08BD00B54FF4B9
:1010900000500A4908608000091F08600120FFF71E
:1010A000E7FF4FF400500549091F08600120FFF7D2
:1010B000DFFF4FF400500149086000BD140C0140EF
:1010C00030B5044600224FF4004013490860002563
:1010D00017E04FF400501049091D08600620FFF783
:1010E000C7FF4FF400500C4908605006020E01F093
:1010F0001FFE08B1501CC2B20620FFF7B9FF681CE2
:10110000C5B2082DE5DB14B9FFF7C0FF01E0FFF71A
:1011100095FF104630BD0000100C014008B5024696
:101120004FF40050174908600020009025E002F0BD
:10113000800028B14FF400401249091F086003E005
:101140004FF400400F4908600120FFF791FF4FF472
:1011500000500C49091F08600120FFF789FF4FF478
:101160000050084908600120FFF782FF5006020E78
:101170009DF80000401CC0B200909DF800000828B7
:10118000D5DB08BD140C014000B54FF400400A49FE
:101190000860801008600520FFF76AFF4FF40040E8
:1011A0000549091D08600120FFF762FF4FF4005058
:1011B0000149091D086000BD100C014000B54FF445
:1011C000004009490860801008600120FFF750FFC7
:1011D0004FF400400449091F086080100860012096
:1011E000FFF746FF00BD0000140C014008B50020C9
:1011F00000904FF40040124908600120FFF738FFCB
:101200004FF400500E4908600120FFF731FF0CE059
:10121000BDF80000401C80B20090BDF800003228EC
:1012200003DDFFF7CBFF012008BD01F081FD0028A1
:10123000EED14FF400500249091D08600020F3E789
:10124000100C014000B599B04FF0204008901448B0
:1012500009900220019000200290052003900020B8
:101260000490059006904FF08050079000200A905F
:1012700000210B9108210C9100210D910E910F91ED
:1012800011914FF4805112910021139114911591F5
:10129000169101AA01A908A8FFF786FE19B000BDA2
:1012A000040100A02DE9F04780460C4615461E4675
:1012B000DDF82090A019431E08EB0500411E2246D0
:1012C0004046FFF706F8002704E019F80700054933
:1012D00008707F1C05FB06F0B7EB400FF5D3BDE8A7
:1012E000F08700000000016000B585B000BF3648FF
:1012F000806940F00400344988610846806900F044
:101300000400009000BF00BF00BF0846806940F0A5
:10131000200088610846806900F02000009000BF2E
:1013200000BF00BF0846806940F040008861084661
:10133000806900F04000009000BF00BF00BF084679
:10134000406940F4807048610846406900F480704C
:10135000009000BF00BF03200490022002904CF2D6
:101360000300019001A91948FFF7D8F84FF4F06085
:10137000019001A91648FFF7D1F84FF40B600190D6
:1013800001A91248FFF7CAF8012002900390032038
:1013900004904FF40050019001A90C48FFF7BEF8EB
:1013A0000220019001A90B48FFF7B8F80020029035
:1013B00002200390032004900120019001A9054818
:1013C000FFF7ACF805B000BD00100240001401406A
:1013D00000180140000801402DE9FC4706468946F7
:1013E00014469A46DDE90A7800251DE02078802819
:1013F0000DDACDE90078227806EBC50188B25346B4
:10140000494601F09DFC641C681CC5B20CE006EB6B
:10141000C50188B2534622464946CDE9007801F01D
:1014200015FCA41CA81CC5B220780028DED1BDE89C
:10143000FC87000000B54FF40050084908604FF4E5
:10144000FA7000F00DF84FF400500449091F0860CD
:101450004FF4FA7000F004F800BD000014140140CD
:1014600001B582B00020019011E00020009004E05E
:10147000BDF80000401C80B20090BDF80000B0F53F
:101480007A7FF5DBBDF80400401C80B20190BDF806
:10149000040002998842E8D30EBD00002DE9F04116
:1014A00005460E4617461C463B463A4631462846F8
:1014B000FEF70FFF4FF0000807E020120649087002
:1014C0000C7008F101001FFA80F8701B401C4045A9
:1014D000F3DCBDE8F0810000000001602DE9F0417F
:1014E00007460C4615461E462B46224639463846C8
:1014F000FEF7EFFE4FF0000807E0301206490870D3
:101500000E7008F101001FFA80F8281B401C4045AE
:10151000F3DCBDE8F0810000000001602DE9F04738
:1015200007460C4615461E46DDF82080A019431ECE
:101530007819411E22463846FEF7CBFE4FF00009CF
:1015400007E04FEA28200649087081F8008009F179
:10155000010905FB06F04845F3D8BDE8F087000017
:101560000000016010B5FFF7BFFEFFF76BFEFFF74D
:1015700061FF4FF47F4001F037FDAA2001F03AFDF2
:101580004FF6017001F030FD552001F033FD4FF6AC
:10159000027001F029FDA52001F02CFD4FF603702B
:1015A00001F022FD802001F025FD4FF4724001F092
:1015B0001BFD002001F01EFD4FF2012001F014FD83
:1015C000842001F017FD4FF2022001F00DFD0820EC
:1015D00001F010FD4FF4DE4001F006FD0A2001F09D
:1015E00009FD4FF4744001F0FFFC132001F002FDEF
:1015F0004FF47F4001F0F8FCAA2001F0FBFC4FF60D
:10160000017001F0F1FC552001F0F4FC4FF602707E
:1016100001F0EAFCA52001F0EDFC4FF6037001F0AB
:10162000E3FC002001F0E6FC4FF4704001F0DCFC2C
:10163000552001F0DFFC4FF2010001F0D5FCAA209B
:1016400001F0D8FC4FF2020001F0CEFC522001F074
:10165000D1FC4FF2030001F0C7FC082001F0CAFCE6
:101660004FF2040001F0C0FC012001F0C3FC4FF474
:10167000304001F0B9FC0C2001F0BCFC4BF2010041
:1016800001F0B2FC0C2001F0B5FC4BF2020001F0BD
:10169000ABFC0C2001F0AEFC4FF4364001F0A4FC92
:1016A000462001F0A7FC4BF2016001F09DFC4620B2
:1016B00001F0A0FC4BF2026001F096FC462001F024
:1016C00099FC4FF4314001F08FFC0C2001F092FCAA
:1016D0004BF2011001F088FC0C2001F08BFC4BF266
:1016E000021001F081FC0C2001F084FC4FF4374023
:1016F00001F07AFC262001F07DFC4BF2017001F034
:1017000073FC262001F076FC4BF2027001F06CFCB9
:10171000262001F06FFC4FF4324001F065FC002000
:1017200001F068FC4BF2012001F05EFC002001F0AA
:1017300061FC4BF2022001F057FC002001F05AFC42
:101740004FF4384001F050FC342001F053FC4BF6CC
:10175000010001F049FC342001F04CFC4BF6020082
:1017600001F042FC342001F045FC4FF43F4001F011
:101770003BFC012001F03EFC4FF4334001F034FC0F
:10178000082001F037FC4BF2013001F02DFC08205D
:1017900001F030FC4BF2023001F026FC082001F091
:1017A00029FC4FF4394001F01FFC262001F022FCF7
:1017B0004BF6011001F018FC262001F01BFC4BF643
:1017C000021001F011FC262001F014FC4FF435400A
:1017D00001F00AFC082001F00DFC4BF2015001F071
:1017E00003FC082001F006FC4BF2025001F0FCFB68
:1017F000082001F0FFFB4FF43A4001F0F5FB3620E2
:1018000001F0F8FB4BF6012001F0EEFB362001F071
:10181000F1FB4BF6022001F0E7FB362001F0EAFB7A
:101820004FF43C4001F0E0FB002001F0E3FB4BF6FD
:10183000014001F0D9FB802001F0DCFB4BF60240B7
:1018400001F0D2FB002001F0D5FB4FF43D4001F048
:10185000CBFB002001F0CEFB4BF6015001F0C4FBA6
:10186000802001F0C7FB4BF6025001F0BDFB0020C9
:1018700001F0C0FB4FF43E4001F0B6FB002001F048
:10188000B9FB4BF6016001F0AFFB552001F0B2FB54
:101890004FF4514001F0A8FB002001F0ABFB4DF2EA
:1018A000011001F0A1FB012001F0A4FB4DF2021098
:1018B00001F09AFB002001F09DFB4DF2031001F0B6
:1018C00093FB1C2001F096FB4DF2041001F08CFB01
:1018D000002001F08FFB4DF2051001F085FB4E203A
:1018E00001F088FB4DF2061001F07EFB002001F0B4
:1018F00081FB4DF2071001F077FB6A2001F07AFBC3
:101900004DF2081001F070FB002001F073FB4DF266
:10191000091001F069FB852001F06CFB4DF20A1003
:1019200001F062FB002001F065FB4DF20B1001F0AD
:101930005BFBAB2001F05EFB4DF20C1001F054FBA1
:10194000002001F057FB4DF20D1001F04DFBC420BB
:1019500001F050FB4DF20E1001F046FB002001F0AB
:1019600049FB4DF20F1001F03FFBFC2001F042FB60
:101970004DF2101001F038FB012001F03BFB4DF25D
:10198000111001F031FB232001F034FB4DF2121055
:1019900001F02AFB012001F02DFB4DF2131001F0A4
:1019A00023FB612001F026FB4DF2141001F01CFB1B
:1019B000012001F01FFB4DF2151001F015FB9420E2
:1019C00001F018FB4DF2161001F00EFB012001F0A2
:1019D00011FB4DF2171001F007FBE42001F00AFBA8
:1019E0004DF2181001F000FB022001F003FB4DF254
:1019F000191001F0F9FA272001F0FCFA4DF21A1043
:101A000001F0F2FA022001F0F5FA4DF21B1001F09C
:101A1000EBFA292001F0EEFA4DF21C1001F0E4FA85
:101A2000022001F0E7FA4DF21D1001F0DDFA652009
:101A300001F0E0FA4DF21E1001F0D6FA022001F09A
:101A4000D9FA4DF21F1001F0CFFAA62001F0D2FA18
:101A50004DF2201001F0C8FA022001F0CBFA4DF24D
:101A6000211001F0C1FACA2001F0C4FA4DF222108F
:101A700001F0BAFA022001F0BDFA4DF2231001F094
:101A8000B3FAFD2001F0B6FA4DF2241001F0ACFAE1
:101A9000032001F0AFFA4DF2251001F0A5FA1D2048
:101AA00001F0A8FA4DF2261001F09EFA032001F091
:101AB000A1FA4DF2271001F097FA4D2001F09AFAA1
:101AC0004DF2281001F090FA032001F093FA4DF244
:101AD000291001F089FA6A2001F08CFA4DF22A10DF
:101AE00001F082FA032001F085FA4DF22B1001F08B
:101AF0007BFA952001F07EFA4DF22C1001F074FA79
:101B0000032001F077FA4DF22D1001F06DFAAC20B0
:101B100001F070FA4DF22E1001F066FA032001F088
:101B200069FA4DF22F1001F05FFACB2001F062FA52
:101B30004DF2301001F058FA032001F05BFA4DF23B
:101B4000311001F051FAEA2001F054FA4DF232104E
:101B500001F04AFA032001F04DFA4DF2331001F082
:101B600043FAEF2001F046FA4FF4524001F03CFAFC
:101B7000002001F03FFA4DF2012001F035FA01207A
:101B800001F038FA4DF2022001F02EFA002001F0A7
:101B900031FA4DF2032001F027FA1C2001F02AFA55
:101BA0004DF2042001F020FA002001F023FA4DF25A
:101BB000052001F019FA4E2001F01CFA4DF2062022
:101BC00001F012FA002001F015FA4DF2072001F0A1
:101BD0000BFA6A2001F00EFA4DF2082001F004FA27
:101BE000002001F007FA4DF2092001F0FDF98520EF
:101BF00001F000FA4DF20A2001F0F6F9002001F0A0
:101C0000F9F94DF20B2001F0EFF9AB2001F0F2F9F8
:101C10004DF20C2001F0E8F9002001F0EBF94DF253
:101C20000D2001F0E1F9C42001F0E4F94DF20E209D
:101C300001F0DAF9002001F0DDF94DF20F2001F09A
:101C4000D3F9FC2001F0D6F94DF2102001F0CCF9C7
:101C5000012001F0CFF94DF2112001F0C5F9232048
:101C600001F0C8F94DF2122001F0BEF9012001F097
:101C7000C1F94DF2132001F0B7F9612001F0BAF972
:101C80004DF2142001F0B0F9012001F0B3F94DF24A
:101C9000152001F0A9F9942001F0ACF94DF21620BD
:101CA00001F0A2F9012001F0A5F94DF2172001F091
:101CB0009BF9E42001F09EF94DF2182001F094F90F
:101CC000022001F097F94DF2192001F08DF927203B
:101CD00001F090F94DF21A2001F086F9022001F08E
:101CE00089F94DF21B2001F07FF9292001F082F9DA
:101CF0004DF21C2001F078F9022001F07BF94DF241
:101D00001D2001F071F9652001F074F94DF21E20DB
:101D100001F06AF9022001F06DF94DF21F2001F087
:101D200063F9A62001F066F94DF2202001F05CF97C
:101D3000022001F05FF94DF2212001F055F9CA208F
:101D400001F058F94DF2222001F04EF9022001F085
:101D500051F94DF2232001F047F9FD2001F04AF935
:101D60004DF2242001F040F9032001F043F94DF237
:101D7000252001F039F91D2001F03CF94DF2262013
:101D800001F032F9032001F035F94DF2272001F07E
:101D90002BF94D2001F02EF94DF2282001F024F905
:101DA000032001F027F94DF2292001F01DF96A20E6
:101DB00001F020F94DF22A2001F016F9032001F07C
:101DC00019F94DF22B2001F00FF9952001F012F9CD
:101DD0004DF22C2001F008F9032001F00BF94DF22F
:101DE0002D2001F001F9AC2001F004F94DF22E2074
:101DF00001F0FAF8032001F0FDF84DF22F2001F078
:101E0000F3F8CB2001F0F6F84DF2302001F0ECF8B9
:101E1000032001F0EFF84DF2312001F0E5F8EA205F
:101E200001F0E8F84DF2322001F0DEF8032001F075
:101E3000E1F84DF2332001F0D7F8EF2001F0DAF8A5
:101E40004FF4534001F0D0F8002001F0D3F84DF2E8
:101E5000013001F0C9F8012001F0CCF84DF2023058
:101E600001F0C2F8002001F0C5F84DF2033001F096
:101E7000BBF81C2001F0BEF84DF2043001F0B4F8BC
:101E8000002001F0B7F84DF2053001F0ADF84E201A
:101E900001F0B0F84DF2063001F0A6F8002001F094
:101EA000A9F84DF2073001F09FF86A2001F0A2F87E
:101EB0004DF2083001F098F8002001F09BF84DF247
:101EC000093001F091F8852001F094F84DF20A30C4
:101ED00001F08AF8002001F08DF84DF20B3001F08E
:101EE00083F8AB2001F086F84DF20C3001F07CF85D
:101EF000002001F07FF84DF20D3001F075F8C4209C
:101F000001F078F84DF20E3001F06EF8002001F08B
:101F100071F84DF20F3001F067F8FC2001F06AF81B
:101F20004DF2103001F060F8012001F063F84DF23D
:101F3000113001F059F8232001F05CF84DF2123015
:101F400001F052F8012001F055F84DF2133001F084
:101F50004BF8612001F04EF84DF2143001F044F8D6
:101F6000012001F047F84DF2153001F03DF89420C2
:101F700001F040F84DF2163001F036F8012001F082
:101F800039F84DF2173001F02FF8E42001F032F863
:101F90004DF2183001F028F8022001F02BF84DF234
:101FA000193001F021F8272001F024F84DF21A3001
:101FB00001F01AF8022001F01DF84DF21B3001F07B
:101FC00013F8292001F016F84DF21C3001F00CF83E
:101FD000022001F00FF84DF21D3001F005F86520E8
:101FE00001F008F84DF21E3000F0FEFF022001F073
:101FF00001F84DF21F3000F0F7FFA62000F0FAFFC5
:102000004DF2203000F0F0FF022000F0F3FF4DF21F
:10201000213000F0E9FFCA2000F0ECFF4DF2223041
:1020200000F0E2FF022000F0E5FF4DF2233000F067
:10203000DBFFFD2000F0DEFF4DF2243000F0D4FF86
:10204000032000F0D7FF4DF2253000F0CDFF1D201A
:1020500000F0D0FF4DF2263000F0C6FF032000F064
:10206000C9FF4DF2273000F0BFFF4D2000F0C2FF46
:102070004DF2283000F0B8FF032000F0BBFF4DF216
:10208000293000F0B1FF6A2000F0B4FF4DF22A3091
:1020900000F0AAFF032000F0ADFF4DF22B3000F05E
:1020A000A3FF952000F0A6FF4DF22C3000F09CFF1E
:1020B000032000F09FFF4DF22D3000F095FFAC2083
:1020C00000F098FF4DF22E3000F08EFF032000F05C
:1020D00091FF4DF22F3000F087FFCB2000F08AFFF8
:1020E0004DF2303000F080FF032000F083FF4DF20E
:1020F000313000F079FFEA2000F07CFF4DF2323001
:1021000000F072FF032000F075FF4DF2333000F055
:102110006BFFEF2000F06EFF4FF4544000F064FFBF
:10212000002000F067FF4DF2014000F05DFF01204C
:1021300000F060FF4DF2024000F056FF002000F07A
:1021400059FF4DF2034000F04FFF1C2000F052FFFA
:102150004DF2044000F048FF002000F04BFF4DF22C
:10216000054000F041FF4E2000F044FF4DF20640D4
:1021700000F03AFF002000F03DFF4DF2074000F074
:1021800033FF6A2000F036FF4DF2084000F02CFFCC
:10219000002000F02FFF4DF2094000F025FF8520C0
:1021A00000F028FF4DF20A4000F01EFF002000F072
:1021B00021FF4DF20B4000F017FFAB2000F01AFF9B
:1021C0004DF20C4000F010FF002000F013FF4DF224
:1021D0000D4000F009FFC42000F00CFF4DF20E404E
:1021E00000F002FF002000F005FF4DF20F4000F06C
:1021F000FBFEFC2000F0FEFE4DF2104000F0F4FE6D
:10220000012000F0F7FE4DF2114000F0EDFE23201A
:1022100000F0F0FE4DF2124000F0E6FE012000F06A
:10222000E9FE4DF2134000F0DFFE612000F0E2FE17
:102230004DF2144000F0D8FE012000F0DBFE4DF21C
:10224000154000F0D1FE942000F0D4FE4DF216406F
:1022500000F0CAFE012000F0CDFE4DF2174000F064
:10226000C3FEE42000F0C6FE4DF2184000F0BCFEB4
:10227000022000F0BFFE4DF2194000F0B5FE27200D
:1022800000F0B8FE4DF21A4000F0AEFE022000F061
:10229000B1FE4DF21B4000F0A7FE292000F0AAFE7F
:1022A0004DF21C4000F0A0FE022000F0A3FE4DF213
:1022B0001D4000F099FE652000F09CFE4DF21E408E
:1022C00000F092FE022000F095FE4DF21F4000F05B
:1022D0008BFEA62000F08EFE4DF2204000F084FE22
:1022E000022000F087FE4DF2214000F07DFECA2062
:1022F00000F080FE4DF2224000F076FE022000F059
:1023000079FE4DF2234000F06FFEFD2000F072FEDA
:102310004DF2244000F068FE032000F06BFE4DF209
:10232000254000F061FE1D2000F064FE4DF22640C5
:1023300000F05AFE032000F05DFE4DF2274000F051
:1023400053FE4D2000F056FE4DF2284000F04CFEAA
:10235000032000F04FFE4DF2294000F045FE6A20B8
:1023600000F048FE4DF22A4000F03EFE032000F04F
:1023700041FE4DF22B4000F037FE952000F03AFE72
:102380004DF22C4000F030FE032000F033FE4DF201
:102390002D4000F029FEAC2000F02CFE4DF22E4026
:1023A00000F022FE032000F025FE4DF22F4000F049
:1023B0001BFECB2000F01EFE4DF2304000F014FE5C
:1023C000032000F017FE4DF2314000F00DFEEA2030
:1023D00000F010FE4DF2324000F006FE032000F047
:1023E00009FE4DF2334000F0FFFDEF2000F002FE49
:1023F0004FF4554000F0F8FD002000F0FBFD4DF2D9
:10240000015000F0F1FD012000F0F4FD4DF202500A
:1024100000F0EAFD002000F0EDFD4DF2035000F069
:10242000E3FD1C2000F0E6FD4DF2045000F0DCFD61
:10243000002000F0DFFD4DF2055000F0D5FD4E20EC
:1024400000F0D8FD4DF2065000F0CEFD002000F067
:10245000D1FD4DF2075000F0C7FD6A2000F0CAFD23
:102460004DF2085000F0C0FD002000F0C3FD4DF219
:10247000095000F0B9FD852000F0BCFD4DF20A5076
:1024800000F0B2FD002000F0B5FD4DF20B5000F061
:10249000ABFDAB2000F0AEFD4DF20C5000F0A4FD02
:1024A000002000F0A7FD4DF20D5000F09DFDC4206E
:1024B00000F0A0FD4DF20E5000F096FD002000F05F
:1024C00099FD4DF20F5000F08FFDFC2000F092FDC1
:1024D0004DF2105000F088FD012000F08BFD4DF210
:1024E000115000F081FD232000F084FD4DF21250C8
:1024F00000F07AFD012000F07DFD4DF2135000F058
:1025000073FD612000F076FD4DF2145000F06CFD7B
:10251000012000F06FFD4DF2155000F065FD942094
:1025200000F068FD4DF2165000F05EFD012000F055
:1025300061FD4DF2175000F057FDE42000F05AFD08
:102540004DF2185000F050FD022000F053FD4DF206
:10255000195000F049FD272000F04CFD4DF21A50B3
:1025600000F042FD022000F045FD4DF21B5000F04E
:102570003BFD292000F03EFD4DF21C5000F034FDE3
:10258000022000F037FD4DF21D5000F02DFD6520BA
:1025900000F030FD4DF21E5000F026FD022000F04C
:1025A00029FD4DF21F5000F01FFDA62000F022FD76
:1025B0004DF2205000F018FD022000F01BFD4DF2FE
:1025C000215000F011FDCA2000F014FD4DF2225000
:1025D00000F00AFD022000F00DFD4DF2235000F046
:1025E00003FDFD2000F006FD4DF2245000F0FCFC40
:1025F000032000F0FFFC4DF2255000F0F5FC1D20FB
:1026000000F0F8FC4DF2265000F0EEFC032000F044
:10261000F1FC4DF2275000F0E7FC4D2000F0EAFC01
:102620004DF2285000F0E0FC032000F0E3FC4DF2F6
:10263000295000F0D9FC6A2000F0DCFC4DF22A5051
:1026400000F0D2FC032000F0D5FC4DF22B5000F03E
:10265000CBFC952000F0CEFC4DF22C5000F0C4FCD9
:10266000032000F0C7FC4DF22D5000F0BDFCAC2063
:1026700000F0C0FC4DF22E5000F0B6FC032000F03C
:10268000B9FC4DF22F5000F0AFFCCB2000F0B2FCB3
:102690004DF2305000F0A8FC032000F0ABFC4DF2EE
:1026A000315000F0A1FCEA2000F0A4FC4DF23250C1
:1026B00000F09AFC032000F09DFC4DF2335000F036
:1026C00093FCEF2000F096FC4FF4564000F08CFC99
:1026D000002000F08FFC4DF2016000F085FC01202D
:1026E00000F088FC4DF2026000F07EFC002000F05B
:1026F00081FC4DF2036000F077FC1C2000F07AFCB6
:102700004DF2046000F070FC002000F073FC4DF20C
:10271000056000F069FC4E2000F06CFC4DF2066094
:1027200000F062FC002000F065FC4DF2076000F054
:102730005BFC6A2000F05EFC4DF2086000F054FC87
:10274000002000F057FC4DF2096000F04DFC8520A0
:1027500000F050FC4DF20A6000F046FC002000F052
:1027600049FC4DF20B6000F03FFCAB2000F042FC56
:102770004DF20C6000F038FC002000F03BFC4DF204
:102780000D6000F031FCC42000F034FC4DF20E600E
:1027900000F02AFC002000F02DFC4DF20F6000F04C
:1027A00023FCFC2000F026FC4DF2106000F01CFC25
:1027B000012000F01FFC4DF2116000F015FC2320F9
:1027C00000F018FC4DF2126000F00EFC012000F049
:1027D00011FC4DF2136000F007FC612000F00AFCD0
:1027E0004DF2146000F000FC012000F003FC4DF2FB
:1027F000156000F0F9FB942000F0FCFB4DF2166030
:1028000000F0F2FB012000F0F5FB4DF2176000F044
:10281000EBFBE42000F0EEFB4DF2186000F0E4FB6F
:10282000022000F0E7FB4DF2196000F0DDFB2720ED
:1028300000F0E0FB4DF21A6000F0D6FB022000F041
:10284000D9FB4DF21B6000F0CFFB292000F0D2FB3A
:102850004DF21C6000F0C8FB022000F0CBFB4DF2F3
:102860001D6000F0C1FB652000F0C4FB4DF21E604E
:1028700000F0BAFB022000F0BDFB4DF21F6000F03B
:10288000B3FBA62000F0B6FB4DF2206000F0ACFBDD
:10289000022000F0AFFB4DF2216000F0A5FBCA2042
:1028A00000F0A8FB4DF2226000F09EFB022000F039
:1028B000A1FB4DF2236000F097FBFD2000F09AFB96
:1028C0004DF2246000F090FB032000F093FB4DF2EA
:1028D000256000F089FB1D2000F08CFB4DF2266086
:1028E00000F082FB032000F085FB4DF2276000F032
:1028F0007BFB4D2000F07EFB4DF2286000F074FB66
:10290000032000F077FB4DF2296000F06DFB6A2098
:1029100000F070FB4DF22A6000F066FB032000F02F
:1029200069FB4DF22B6000F05FFB952000F062FB2D
:102930004DF22C6000F058FB032000F05BFB4DF2E1
:102940002D6000F051FBAC2000F054FB4DF22E60E6
:1029500000F04AFB032000F04DFB4DF22F6000F029
:1029600043FBCB2000F046FB4DF2306000F03CFB17
:10297000032000F03FFB4DF2316000F035FBEA2010
:1029800000F038FB4DF2326000F02EFB032000F027
:1029900031FB4DF2336000F027FBEF2000F02AFB03
:1029A0004FF4704000F020FB552000F023FB4FF265
:1029B000010000F019FBAA2000F01CFB4FF20200FE
:1029C00000F012FB522000F015FB4FF2030000F064
:1029D0000BFB082000F00EFB4FF2040000F004FB9C
:1029E000002000F007FB4FF4314000F0FDFACC204E
:1029F00000F000FB4BF2011000F0F6FA002000F0AE
:102A0000F9FA4FF4344000F0EFFA102000F0F2FA37
:102A10004FF4364000F0E8FA052000F0EBFA4FF4EE
:102A2000374000F0E1FA702000F0E4FA4BF2017058
:102A300000F0DAFA702000F0DDFA4FF4384000F0D0
:102A4000D3FA012000F0D6FA4BF6010000F0CCFAE0
:102A5000052000F0CFFA4BF6020000F0C5FA052081
:102A600000F0C8FA4BF6030000F0BEFA052000F0B3
:102A7000C1FA4FF43C4000F0B7FA022000F0BAFA75
:102A80004BF6014000F0B0FA002000F0B3FA4BF62C
:102A9000024000F0A9FA002000F0ACFA4FF44C40DC
:102AA00000F0A2FA032000F0A5FA4CF6014000F075
:102AB0009BFA502000F09EFA4CF6024000F094FA87
:102AC000502000F097FA4FF43D4000F08DFA0120BD
:102AD00000F090FA4BF6015000F086FA842000F0E6
:102AE00089FA4BF6025000F07FFA072000F082FAD4
:102AF0004BF6035000F078FA312000F07BFA4BF6E9
:102B0000045000F071FA002000F074FA4FF43E40D7
:102B100000F06AFA012000F06DFA4BF6016000F057
:102B200063FA842000F066FA4BF6026000F05CFA6B
:102B3000072000F05FFA4BF6036000F055FA3120F1
:102B400000F058FA4BF6046000F04EFA002000F056
:102B500051FA4FF43F4000F047FA012000F04AFAE2
:102B60004BF6017000F040FA842000F043FA4BF677
:102B7000027000F039FA072000F03CFA4BF60370BF
:102B800000F032FA312000F035FA4BF6047000F014
:102B90002BFA002000F02EFA4FF4545000F024FAE3
:102BA000002000F027FA4FF4585000F01DFA0020E2
:102BB00000F020FA4FF4685000F016FA772000F089
:102BC00019FA4FF4885000F00FFA1420FEF748FC71
:102BD0004FF4245000F008FA1420FEF741FC4FF4A3
:102BE000585000F001FAA32000F004FA4FF46850A6
:102BF00000F0FAF9552000F0FDF9022001490860C3
:102C000010BD00001008014000BFFEE77047000043
:102C100002480068C0F30220704700000CED00E09D
:102C200010B5002807DA0A07140E054A00F00F0352
:102C30001B1FD45403E00A07130E024A135410BD9D
:102C400018ED00E000E400E0704700002DE9F05FBF
:102C500004468A4690469B4600264FE0C6EBC600D7
:102C600000EB80002749085C98F80010884244D1A6
:102C7000C6EBC60000EB800022490844407898F873
:102C80000110884239D1002735E0C6EBC60000EBC1
:102C900080001C490844C01C10F80790002519E06A
:102CA00009F08000802807D11FFA8BF2611988B2E1
:102CB0005146FDF759FB08E00B9830B10A998AB2EA
:102CC000611988B25146FDF74FFB4FF6FF7000EADD
:102CD00049096D1C082DE3D307F0010038B10AF152
:102CE00001001FFA80FAA4F1080084B202E004F1A6
:102CF000080084B27F1C202FC7D3761C402EADD392
:102D0000BDE8F09F0CB8000808B508490968C90873
:102D10004FF47A72B1FBF2F14143009100BF00BF62
:102D200000994A1E00920029F9D108BD0000002038
:102D30000249096801F4004070470000080C014096
:102D40002DE9F84F0546884616469946DDF828B025
:102D5000A6F12000C6B230010090002726E00098BE
:102D60003844144911F800A0002418E00AF080004B
:102D700038B11FFA89F2291988B24146FDF7F4FAF1
:102D800008E00B9830B11FFA8BF2291988B241463E
:102D9000FDF7EAFA4FEA4A604FEA106A641C082C11
:102DA000E4D308F101001FFA80F87F1C102FD6D35E
:102DB000BDE8F88F0CB20008704710B5FDF75CFD58
:102DC00010BD00B58FB014210AA8FDF71FFA282105
:102DD0006846FDF71BFA01200090000401900020D6
:102DE000029002200790C10308914FF4E01109916D
:102DF0006846FDF7B9FE08B100BFFEE70F200A9054
:102E000002200B9000200C900E904FF480600D90EB
:102E100002210AA8FDF78AFD08B100BFFEE70FB046
:102E200000BD00001148006840F001000F49086033
:102E3000084640680E4908400C494860084600684A
:102E40000C490840094908600846006820F48020C1
:102E500008600846406820F4FE0048604FF41F00F8
:102E60008860C803044908607047000000100240F1
:102E70000000FFF8FFFFF6FE08ED00E000B585B0AA
:102E800000BF1848806940F008001649886108466C
:102E9000806900F00800009000BF00BF0120029090
:102EA0000390032004904FF40050019001A90E48B4
:102EB000FDF734FB112002900120039003200490C1
:102EC0004FF40040019001A90748FDF727FB4FF49C
:102ED000005005491031086080000860FEF76EF967
:102EE00005B000BD00100240000C0140F8B50026FE
:102EF000002520213A48FDF7E2FA3948807800F0B1
:102F00000F04012C00DAF8BD002464E004EB440057
:102F10004000801D3249095C04EB44004000401D24
:102F20002F4A105C00F00F0041EA002604EB440039
:102F30004000001D1146095C04EB44004000C01C29
:102F4000105C00F00F0041EA0025052C3FD2DFE8BD
:102F500004F0030F1B2632004FF478400090C5F5B3
:102F6000F07081B202231A463046FEF7D7FA2FE0FE
:102F70004FF4FC600090C5F5F07081B202231A4650
:102F80003046FEF7CBFA23E01F200090C5F5F07025
:102F900081B202231A463046FEF7C0FA18E04FF617
:102FA000E0700090C5F5F07081B202231A463046F9
:102FB000FEF7B4FA0CE04FF61F000090C5F5F07074
:102FC00081B202231A463046FEF7A8FA00E000BF9D
:102FD00000BF601CC4B2052C98DB00BF93E7000063
:102FE0000800002000BFFEE701124FF0C042117040
:102FF000107070470112024A117010707047000083
:10300000000001602DE9F04105460C461646601DA2
:1030100082B2002321462846FEF760FA04F114002C
:1030200082B2401F81B200232846FEF757FA05F10D
:103030001C0081B2002322462846FEF72FFA04F135
:10304000140082B205F11C0081B200232846FEF76D
:1030500025FA611D8AB205F11C0188B200232146C0
:10306000FEF73CFA04F114039AB25B1F99B205F122
:103070001C0398B20023FEF731FA631D9AB205F1E2
:103080001F0399B2DB1E98B20023FEF707FA04F182
:103090000F039AB205F11F0399B2DB1E98B2002309
:1030A000FEF7FCF904F10F039AB2631D99B205F122
:1030B0001F0398B20023FEF711FA4FF0000816E044
:1030C00004F11103E21CE91DE81CFDF702F90027D9
:1030D00005E00020084908700870781CC7B25A2F14
:1030E000F7DBA81D85B208F1010000F0FF08B0452C
:1030F000E6DBBDE8F0810000000001601CB5FFF7D1
:1031000060FEFEF72FFAFFF7B9FE1F204FF4F073B1
:103110004FF44872002100900846FEF7FFF90322A1
:103120000A214FF48C70FFF76DFF00204FF47841B7
:103130004FF6E0731CA2CDE9001014210520FEF724
:103140004BF900204FF478414FF6E0731CA2CDE913
:10315000001028210520FEF73FF900204FF47841A8
:103160004FF6E0731CA2CDE900103C210520FEF7CC
:1031700033F91E4880231A4628210090C020FEF70C
:1031800091F80FE0FFF7B2FE01211948FDF766FB49
:1031900040B100204FF4F0734FF4487201460090A4
:1031A000FEF7BCF9EEE70000BAC3EED2C8F3207711
:1031B00077772E686A726B6A2E636F6D200000004D
:1031C000342E33696E636820544B303433463135C6
:1031D0003039204C4344000054454C3A20303735B8
:1031E000352D323130303631353000000C320008A8
:1031F000000801400000000000000000010203047C
:10320000060708090000000001020304FFFFFFFF9A
:10321000FFFFFFFFFFFFFFFFFFFFFFFFFFFFFFFFBE
:10322000FFFFFFFFFFFFFFFFFFFFFFFFFFFFFFFFAE
:10323000FFFFFFFFFFFFFFFFFFFFFFFFFFFFFFFF9E
:10324000FFFFFFFFFFFFFFFFFFFFFFFFFFFFFFFF8E
:10367000FFFFFFFFFFFFFFFFFFDFF7BEF7BEF79E75
:10368000EF7DF79EF7BEF79EF79EF79EF79EF79E9B
:10369000F79EF7BEF79EEF7DF79EF7BEF7BEFFDF02
:1036A000FFFFFFFFFFFFFFFFFFFFFFFFFFFFFFFF2A
:1036B000FFFFFFFFFFFFFFFFFFFFFFFFFFFFFFFF1A
:1036C000FFFFFFFFFFFFFFFFFFFFFFFFFFFFFFFF0A
:1036D000FFFFFFFFFFFFFFFFFFFFFFFFFFFFFFFFFA
:1036E000FFFFFFFFFFFFFFFFFFFFFFFFFFFFFFFFEA
:1036F000FFFFFFFFFFFFFFFFFFFFFFFFFFFFFFFFDA
:10370000FFFFFFFFFFFFFFFFFFFFFFFFFFFFFFFFC9
:10371000FFFFFFFFFFFFFFFFFFFFFFFFFFFFFFFFB9
:10372000FFFFFFFFFFFFFFFFFFFFFFFFFFFFFFFFA9
:10373000FFFFFFFFFFFFFFFFFFFFFFFFFFFFFFFF99
:10374000FFFFFFFFFFFFFFFFFFFFFFFFFFFFFFFF89
:10375000FFFFFFFFFFFFFFFFFFFFFFFFFFFFFFFF79
:10376000FFFFFFFFFFFFFFFFFFFFFFFFFFFFFFFF69
:10377000F7BEF79EF79EF79EF79EF79EF7BEF7BE41
:10378000F7BEFFDFFFFFFFFFFFFFFFFFFFFFFFFFB2
:10379000FFFFFFFFFFDFF7BEF7BEF7BEEF7DF79E2F
:1037A000F79EF79EF79EF7BEFFFFFFFFFFFFFFFFAD
:1037B000FFFFFFFFFFFFFFFFFFFFFFFFFFFFFFFF19
:1037C000FFFFFFFFFFFFFFFFFFFFFFFFFFFFFFFF09
:1037D000FFFFFFFFFFFFFFFFFFFFFFFFFFFFFFFFF9
:1037E000FFFFFFFFFFFFFFFFFFFFFFFFFFFFFFFFE9
:1037F000FFFFFFFFFFFFFFFFFFFFFFFFFFFFFFFFD9
:10380000FFFFFFFFFFFFFFFFFFFFFFFFFFFFFFFFC8
:10381000FFFFFFFFFFFFFFFFFFFFFFFFFFFFFFFFB8
:10382000FFFFFFFFFFFFFFFFFFFFFFFFFFFFFFFFA8
:10383000FFFFFFFFFFFFFFFFFFFFFFFFFFFFFFFF98
:10384000FFFFFFFFFFFFFFFFFFFFFFFFFFFFFFFF88
:10385000FFFFFFFFFFFFFFFFFFFFFFFFFFFFFFFF78
:10386000FFFFFFFFFFFFFFFFF7BEF79EF79EEF7D15
:10387000F79EF7BEFFDFFFFFFFFFFFFFFFFFFFFF2A
:10388000FFFFFFFFFFFFFFFFFFFFFFFFFFFFFFFF48
:10389000FFFFFFFFFFFFFFFFFFFFFFFFFFFFFFFF38
:1038A000FFFFFFDFF7BEF79EF79EF79EF79EF7BE7E
:1038B000FFFFFFFFFFFFFFFFFFFFFFFFFFFFFFFF18
:1038C000FFFFFFFFFFFFFFFFFFFFFFFFFFFFFFFF08
:1038D000FFFFFFFFFFFFFFFFFFFFFFFFFFFFFFFFF8
:1038E000FFFFFFFFFFFFFFFFFFFFFFFFFFFFFFFFE8
:1038F000FFFFFFFFFFFFFFFFFFFFFFFFFFFFFFFFD8
:10390000FFFFFFFFFFFFFFFFFFFFFFFFFFFFFFFFC7
:10391000FFFFFFFFFFFFFFFFFFFFFFFFFFFFFFFFB7
:10392000FFFFFFFFFFFFFFFFFFFFFFFFFFFFFFFFA7
:10393000FFFFFFFFFFFFFFFFFFFFFFFFFFFFFFFF97
:10394000FFFFFFFFFFFFFFFFFFFFFFFFFFFFFFFF87
:10395000FFFFFFFFFFFFFFFFFFFFFFFFFFFFFFFF77
:10396000FFFFF7BEF79EF79EF79EF7BEFFDFFFFF54
:10397000FFFFFFFFFFFFFFFFFFFFFFFFFFFFFFFF57
:10398000FFFFFFFFFFFFFFFFFFFFFFFFFFFFFFFF47
:10399000FFFFFFFFFFFFFFFFFFFFFFFFFFFFFFFF37
:1039A000FFFFFFFFFFFFFFFFFFFFFFDFF7BEF79EF9
:1039B000F79EF79EF7BEFFFFFFFFFFFFFFFFFFFF32
:1039C000FFFFFFFFFFFFFFFFFFFFFFFFFFFFFFFF07
:1039D000FFFFFFFFFFFFFFFFFFFFFFFFFFFFFFFFF7
:1039E000FFFFFFFFFFFFFFFFFFFFFFFFFFFFFFFFE7
:1039F000FFFFFFFFFFFFFFFFFFFFFFFFFFFFFFFFD7
:103A0000FFFFFFFFFFFFFFFFFFFFFFFFFFFFFFFFC6
:103A1000FFFFFFFFFFFFFFFFFFFFFFFFFFFFFFFFB6
:103A2000FFFFFFFFFFFFFFFFFFFFFFFFFFFFFFFFA6
:103A3000FFFFFFFFFFFFFFFFFFFFFFFFFFFFFFFF96
:103A4000FFFFFFFFFFFFFFFFFFFFFFFFFFFFFFFF86
:103A5000FFFFFFFFFFFFFFFFFFFFFFFFFFFFF7BEBF
:103A6000F79EF79EF7BEFFFFFFFFFFFFFFFFFFFF81
:103A7000FFFFFFFFFFFFFFFFFFFFFFFFFFFFFFFF56
:103A8000FFFFFFFFFFFFFFFFFFFFFFFFFFFFFFFF46
:103A9000FFFFFFFFFFFFFFFFFFFFFFFFFFFFFFFF36
:103AA000FFFFFFFFFFFFFFFFFFFFFFFFFFFFFFFF26
:103AB000FFFFF7BEF79EF79EF7BEFFFFFFFFFFFF7A
:103AC000FFFFFFFFFFFFFFFFFFFFFFFFFFFFFFFF06
:103AD000FFFFFFFFFFFFFFFFFFFFFFFFFFFFFFFFF6
:103AE000FFFFFFFFFFFFFFFFFFFFFFFFFFFFFFFFE6
:103AF000FFFFFFFFFFFFFFFFFFFFFFFFFFFFFFFFD6
:103B0000FFFFFFFFFFFFFFFFFFFFFFFFFFFFFFFFC5
:103B1000FFFFFFFFFFFFFFFFFFFFFFFFFFFFFFFFB5
:103B2000FFFFFFFFFFFFFFFFFFFFFFFFFFFFFFFFA5
:103B3000FFFFFFFFFFFFFFFFFFFFFFFFFFFFFFFF95
:103B4000FFFFFFFFFFFFFFFFFFFFFFFFFFFFFFFF85
:103B5000FFFFFFFFFFFFFFFFFFDFF79EEF7DF79EF9
:103B6000FFDFFFFFFFFFFFFFFFFFFFFFFFFFFFFF85
:103B7000FFFFFFFFFFFFFFFFFFFFFFFFFFFFFFFF55
:103B8000FFFFFFDFFFDFFFDFF7DFF7BEF7BEF7DF87
:103B9000FFDFFFDFFFFFFFFFFFFFFFFFFFFFFFFF75
:103BA000FFFFFFFFFFFFFFFFFFFFFFFFFFFFFFFF25
:103BB000FFFFFFFFFFFFFFDFF79EF79EF79EFFDF90
:103BC000FFFFFFFFFFFFFFFFFFFFFFFFFFFFFFFF05
:103BD000FFFFFFFFFFFFFFFFFFFFFFFFFFFFFFFFF5
:103BE000FFFFFFFFFFFFFFFFFFFFFFFFFFFFFFFFE5
:103BF000FFFFFFFFFFFFFFFFFFFFFFFFFFFFFFFFD5
:103C0000FFFFFFFFFFFFFFFFFFFFFFFFFFFFFFFFC4
:103C1000FFFFFFFFFFFFFFFFFFFFFFFFFFFFFFFFB4
:103C2000FFFFFFFFFFFFFFFFFFFFFFFFFFFFFFFFA4
:103C3000FFFFFFFFFFFFFFFFFFFFFFFFFFFFFFFF94
:103C4000FFFFFFFFFFFFFFFFFFFFFFFFFFFFFFFF84
:103C5000FFFFFFFFFFDFF79EF79EF7BEFFFFFFFFAF
:103C6000FFFFFFFFFFFFFFFFFFFFFFFFFFFFFFFF64
:103C7000FFFFFFFFFFFFF7DFF79EE73CDEFBD69974
:103C8000CE38C5F7C5B6BD96BD75BD75BD75BD75DC
:103C9000BD96BDB6C5F7CE38D679DEFBE73CF79EBC
:103CA000F7DFFFFFFFFFFFFFFFFFFFFFFFFFFFFF4C
:103CB000FFFFFFFFFFFFFFFFFFFFFFFFF7BEF79EC6
:103CC000F79EFFDFFFFFFFFFFFFFFFFFFFFFFFFF8D
:103CD000FFFFFFFFFFFFFFFFFFFFFFFFFFFFFFFFF4
:103CE000FFFFFFFFFFFFFFFFFFFFFFFFFFFFFFFFE4
:103CF000FFFFFFFFFFFFFFFFFFFFFFFFFFFFFFFFD4
:103D0000FFFFFFFFFFFFFFFFFFFFFFFFFFFFFFFFC3
:103D1000FFFFFFFFFFFFFFFFFFFFFFFFFFFFFFFFB3
:103D2000FFFFFFFFFFFFFFFFFFFFFFFFFFFFFFFFA3
:103D3000FFFFFFFFFFFFFFFFFFFFFFFFFFFFFFFF93
:103D4000FFFFFFFFFFFFFFFFFFFFFFFFFFFFFFFF83
:103D5000FFFFF79EF79EF7BEFFFFFFFFFFFFFFFF8E
:103D6000FFFFFFFFFFFFFFFFFFFFFFFFFFFFF7BEAC
:103D7000EF5DDEDBCE18BD96B514ACD2ACB2ACB202
:103D8000B4D3B4F3BD34BD54BD55C575C555BD558B
:103D9000BD34BD14B4F3ACB2AC92AC92ACB2B514B9
:103DA000BD75CE18DEDBEF5DF7BEFFFFFFFFFFFF47
:103DB000FFFFFFFFFFFFFFFFFFFFFFFFFFFFFFFF13
:103DC000F7BEEF7DF79EFFFFFFFFFFFFFFFFFFFF47
:103DD000FFFFFFFFFFFFFFFFFFFFFFFFFFFFFFFFF3
:103DE000FFFFFFFFFFFFFFFFFFFFFFFFFFFFFFFFE3
:103DF000FFFFFFFFFFFFFFFFFFFFFFFFFFFFFFFFD3
:103E0000FFFFFFFFFFFFFFFFFFFFFFFFFFFFFFFFC2
:103E1000FFFFFFFFFFFFFFFFFFFFFFFFFFFFFFFFB2
:103E2000FFFFFFFFFFFFFFFFFFFFFFFFFFFFFFFFA2
:103E3000FFFFFFFFFFFFFFFFFFFFFFFFFFFFFFFF92
:103E4000FFFFFFFFFFFFFFFFFFFFFFFFFFFFF7BECB
:103E5000EF7DF7BEFFFFFFFFFFFFFFFFFFFFFFFF4D
:103E6000FFFFFFFFFFFFFFFFF7BEE71CCE59BD9529
:103E7000ACF3ACB2B4F3BD55CDD7D658DEBAE6FB41
:103E8000EF3CEF5DF77DF77DF79EF79EF79EF77DA0
:103E9000F77DF77DEF5DEF1CE6DBDE99D618C59662
:103EA000BD14ACB2A491ACD2BD75CE59E71CF7BE1F
:103EB000FFFFFFFFFFFFFFFFFFFFFFFFFFFFFFFF12
:103EC000FFFFFFFFF79EEF7DF7BEFFFFFFFFFFFF46
:103ED000FFFFFFFFFFFFFFFFFFFFFFFFFFFFFFFFF2
:103EE000FFFFFFFFFFFFFFFFFFFFFFFFFFFFFFFFE2
:103EF000FFFFFFFFFFFFFFFFFFFFFFFFFFFFFFFFD2
:103F0000FFFFFFFFFFFFFFFFFFFFFFFFFFFFFFFFC1
:103F1000FFFFFFFFFFFFFFFFFFFFFFFFFFFFFFFFB1
:103F2000FFFFFFFFFFFFFFFFFFFFFFFFFFFFFFFFA1
:103F3000FFFFFFFFFFFFFFFFFFFFFFFFFFFFFFFF91
:103F4000FFFFFFFFFFFFFFFFFFFFF7BEEF7DF79EC5
:103F5000FFFFFFFFFFFFFFFFFFFFFFFFFFFFFFFF71
:103F6000FFFFFFDFEF5DD659BD75ACD3B4D3C555A8
:103F7000D618E6BAEF3CF77DF7BEF7BEF7BEF7BE40
:103F8000F79EF79EF79EEF7DEF7DEF7DEF7DEF7D56
:103F9000EF7DF79EF79EF79EF7BEF7BEF7BEF79E42
:103FA000EF5DE71BDE79CDD6B513AC71A492B555A4
:103FB000CE59EF5DFFDFFFFFFFFFFFFFFFFFFFFFBA
:103FC000FFFFFFFFFFFFFFDFF79EEF7DFFDFFFFF3C
:103FD000FFFFFFFFFFFFFFFFFFFFFFFFFFFFFFFFF1
:103FE000FFFFFFFFFFFFFFFFFFFFFFFFFFFFFFFFE1
:103FF000FFFFFFFFFFFFFFFFFFFFFFFFFFFFFFFFD1
:10400000FFFFFFFFFFFFFFFFFFFFFFFFFFFFFFFFC0
:10401000FFFFFFFFFFFFFFFFFFFFFFFFFFFFFFFFB0
:10402000FFFFFFFFFFFFFFFFFFFFFFFFFFFFFFFFA0
:10403000FFFFFFFFFFFFFFFFFFFFFFFFFFFFFFFF90
:10404000FFFFFFFFFFFFFFFFF79EEF7DFFDFFFFF9B
:10405000FFFFFFFFFFFFFFFFFFFFFFFFFFFFF7BEB9
:10406000DEFBC5D7B4F3B4D3C575D659EF1CF77DC5
:10407000F7BEF7BEF7BEF79EEF7DEF5DEF5DE73C65
:10408000E73CE73CE71CE71CE71CE71CE71CE71CD8
:10409000E71CE73CE73CE73CE73CE73CEF5DEF7DB6
:1040A000EF7DF79EF79EF79EEF5DE6BACDF7B4F38E
:1040B000A471ACB2C5D6DEFBF7BEFFFFFFFFFFFF6A
:1040C000FFFFFFFFFFFFFFFFFFFFF7BEEF7DF79E44
:1040D000FFFFFFFFFFFFFFFFFFFFFFFFFFFFFFFFF0
:1040E000FFFFFFFFFFFFFFFFFFFFFFFFFFFFFFFFE0
:1040F000FFFFFFFFFFFFFFFFFFFFFFFFFFFFFFFFD0
:10410000FFFFFFFFFFFFFFFFFFFFFFFFFFFFFFFFBF
:10411000FFFFFFFFFFFFFFFFFFFFFFFFFFFFFFFFAF
:10412000FFFFFFFFFFFFFFFFFFFFFFFFFFFFFFFF9F
:10413000FFFFFFFFFFFFFFFFFFFFFFFFFFFFFFFF8F
:10414000FFFFFFFFFFDFEF7DF79EFFFFFFFFFFFF9A
:10415000FFFFFFFFFFFFFFFFFFFFF7BEDEDBBD96A8
:10416000ACD3BD14D617E6FBF77DF7BEF7BEF79EBE
:10417000EF7DEF5DE73CE73CE71CE71CE71CE71C35
:10418000E71CE71CE71CE71CE71CE71CE71CE71C17
:10419000E71CE71CE71CE71CE71CE71CE71CE71C07
:1041A000E73CE73CEF5DEF5DEF7DF79EF79EEF3C70
:1041B000DE99C575AC91A471BD75DEDBF7BEFFFF5E
:1041C000FFFFFFFFFFFFFFFFFFFFFFFFFFFFF79E68
:1041D000EF7DFFDFFFFFFFFFFFFFFFFFFFFFFFFFA1
:1041E000FFFFFFFFFFFFFFFFFFFFFFFFFFFFFFFFDF
:1041F000FFFFFFFFFFFFFFFFFFFFFFFFFFFFFFFFCF
:10420000FFFFFFFFFFFFFFFFFFFFFFFFFFFFFFFFBE
:10421000FFFFFFFFFFFFFFFFFFFFFFFFFFFFFFFFAE
:10422000FFFFFFFFFFFFFFFFFFFFFFFFFFFFFFFF9E
:10423000FFFFFFFFFFFFFFFFFFFFFFFFFFFFFFFF8E
:10424000FFFFF7BEEF7DF7BEFFFFFFFFFFFFFFFFA2
:10425000FFFFFFFFFFFFF7BEDEFBBD96ACD2BD3414
:10426000DE59EF3CF7BEF7BEF79EEF5DE73CE73C5B
:10427000E71CE71CE71CE71CE71CE71CE71CE71C26
:10428000E71CE71CE71CE71CE73CDD96E5D8E73CAC
:10429000E71CE71CE71CE71CE71CE71CE71CE71C06
:1042A000E71CE71CE71CE71CE73CE73CEF5DEF7D04
:1042B000F79EEF5DE6DBC5B6AC92A451BD75DEFBA3
:1042C000F7BEFFFFFFFFFFFFFFFFFFFFFFFFFFFF47
:1042D000F7BEEF7DF7BEFFFFFFFFFFFFFFFFFFFF12
:1042E000FFFFFFFFFFFFFFFFFFFFFFFFFFFFFFFFDE
:1042F000FFFFFFFFFFFFFFFFFFFFFFFFFFFFFFFFCE
:10430000FFFFFFFFFFFFFFFFFFFFFFFFFFFFFFFFBD
:10431000FFFFFFFFFFFFFFFFFFFFFFFFFFFFFFFFAD
:10432000FFFFFFFFFFFFFFFFFFFFFFFFFFFFFFFF9D
:10433000FFFFFFFFFFFFFFFFFFFFFFFFFFFFFFFF8D
:10434000F79EEF7DFFDFFFFFFFFFFFFFFFFFFFFF98
:10435000FFFFFFDFE73CC5D7ACD3BD34DE79F75DA7
:10436000F7BEF7BEEF7DEF5DE73CE71CE71CE71CFF
:10437000E71CE71CE71CE71CE71CE71CE71CE71C25
:10438000E71CE71CE71CE73CDDF8D189E3F1E73CDB
:10439000E71CE71CE71CE71CE71CE71CE71CE71C05
:1043A000E71CE71CE71CE71CE71CE71CE71CE73CD5
:1043B000E73CEF5DEF7DEF5DE6DBC5B6A471A47170
:1043C000C5D7E73CFFDFFFFFFFFFFFFFFFFFFFFF5A
:1043D000FFFFFFDFEF7DF79EFFFFFFFFFFFFFFFF08
:1043E000FFFFFFFFFFFFFFFFFFFFFFFFFFFFFFFFDD
:1043F000FFFFFFFFFFFFFFFFFFFFFFFFFFFFFFFFCD
:10440000FFFFFFFFFFFFFFFFFFFFFFFFFFFFFFFFBC
:10441000FFFFFFFFFFFFFFFFFFFFFFFFFFFFFFFFAC
:10442000FFFFFFFFFFFFFFFFFFFFFFFFFFFFFFFF9C
:10443000FFFFFFFFFFFFFFFFFFFFFFFFFFFFF79EF5
:10444000F79EFFFFFFFFFFFFFFFFFFFFFFFFFFFFE5
:10445000F79ED679B513B4F3D638EF5DF7BEF7BE45
:10446000EF7DE73CE71CE71CE71CE71CE71CE71CAB
:10447000E71CE71CE71CE71CE71CE71CE71CE71C24
:10448000E71CE71CE73CE67AD24BD044DAEDE71CA8
:10449000E71CE71CE71CE71CE71CE71CE71CE71C04
:1044A000E71CE71CE71CE71CE71CE71CE71CE71CF4
:1044B000E71CE71CE73CEF5DEF7DEF5DDEBABD7505
:1044C000A430A4B2D679F79EFFFFFFFFFFFFFFFFE6
:1044D000FFFFFFFFFFFFF79EF79EFFFFFFFFFFFFBE
:1044E000FFFFFFFFFFFFFFFFFFFFFFFFFFFFFFFFDC
:1044F000FFFFFFFFFFFFFFFFFFFFFFFFFFFFFFFFCC
:10450000FFFFFFFFFFFFFFFFFFFFFFFFFFFFFFFFBB
:10451000FFFFFFFFFFFFFFFFFFFFFFFFFFFFFFFFAB
:10452000FFFFFFFFFFFFFFFFFFFFFFFFFFFFFFFF9B
:10453000FFFFFFFFFFFFFFFFFFFFFFFFEF7DF79E86
:10454000FFFFFFFFFFFFFFFFFFFFFFFFFFDFE73C76
:10455000BD96B4D3CDD6EF1CF7BEF7BEEF7DE73CDA
:10456000E71CE71CE71CE71CE71CE71CE71CE71C33
:10457000E71CE71CE71CE71CE71CE71CE71CE71C23
:10458000E71CE73CE6DBDB2ED0A5D085DA0AE6DBCC
:10459000E71CE71CE71CE71CE71CE71CE71CE71C03
:1045A000E71CE71CE71CE71CE71CE71CE71CE71CF3
:1045B000E71CE71CE71CE71CE73CEF5DEF7DEF3CE9
:1045C000D659ACD39C10B575E73CFFDFFFFFFFFF6A
:1045D000FFFFFFFFFFFFFFFFF79EEF7DFFFFFFFFE6
:1045E000FFFFFFFFFFFFFFFFFFFFFFFFFFFFFFFFDB
:1045F000FFFFFFFFFFFFFFFFFFFFFFFFFFFFFFFFCB
:10460000FFFFFFFFFFFFFFFFFFFFFFFFFFFFFFFFBA
:10461000FFFFFFFFFFFFFFFFFFFFFFFFFFFFFFFFAA
:10462000FFFFFFFFFFFFFFFFFFFFFFFFFFFFFFFF9A
:10463000FFFFFFFFFFFFFFFFFFDFEF7DF7BEFFFF85
:10464000FFFFFFFFFFFFFFFFFFFFF7BED69AB51486
:10465000BD14DE9AF79EF7BEEF7DE73CE71CE71C32
:10466000E71CE71CE71CE71CE71CE71CE71CE71C32
:10467000E71CE71CE71CE71CE71CE71CE71CE71C22
:10468000E73CE71CDBF1D0E6D0C6D0A6D148E6185F
:10469000E73CE71CE71CE71CE71CE71CE71CE71CE2
:1046A000E71CE71CE71CE71CE71CE71CE71CE71CF2
:1046B000E71CE71CE71CE71CE71CE71CE73CEF5D79
:1046C000EF5DE6DBC5969C30A492D69AF7BEFFFF5D
:1046D000FFFFFFFFFFFFFFFFFFFFF79EEF7DFFFFE5
:1046E000FFFFFFFFFFFFFFFFFFFFFFFFFFFFFFFFDA
:1046F000FFFFFFFFFFFFFFFFFFFFFFFFFFFFFFFFCA
:10470000FFFFFFFFFFFFFFFFFFFFFFFFFFFFFFFFB9
:10471000FFFFFFFFFFFFFFFFFFFFFFFFFFFFFFFFA9
:10472000FFFFFFFFFFFFFFFFFFFFFFFFFFFFFFFF99
:10473000FFFFFFFFFFFFFFDFEF7DF7BEFFFFFFFF84
:10474000FFFFFFFFFFFFFFFFEF7DCE18ACD3CDB61D
:10475000EF1CF7BEF79EEF5DE73CE71CE71CE71C8C
:10476000E71CE71CE71CE71CE71CE71CE71CE71C31
:10477000E71CE71CE71CE71CE71CE71CE71CE71C21
:10478000E71CDCB3D168D107D0E6D0E6D0E6E53649
:10479000E73CE73CE71CE71CE71CE71CE71CE71CC1
:1047A000E71CE71CE71CE71CE71CE71CE71CE71CF1
:1047B000E71CE71CE71CE71CE71CE71CE71CE71CE1
:1047C000E73CEF5DE71CCE38AC929C30C5F7F79E16
:1047D000FFFFFFFFFFFFFFFFFFFFFFFFF79EEF7DE4
:1047E000FFDFFFFFFFFFFFFFFFFFFFFFFFFFFFFFF9
:1047F000FFFFFFFFFFFFFFFFFFFFFFFFFFFFFFFFC9
:10480000FFFFFFFFFFFFFFFFFFFFFFFFFFFFFFFFB8
:10481000FFFFFFFFFFFFFFFFFFFFFFFFFFFFFFFFA8
:10482000FFFFFFFFFFFFFFFFFFFFFFFFFFFFFFFF98
:10483000FFFFFFFFFFDFEF7DF7BEFFFFFFFFFFFF83
:10484000FFFFFFFFFFFFEF5DBD96B4D3D638F77DC6
:10485000F7BEEF7DE73CE71CE71CE71CE71CE71C05
:10486000E71CE71CE71CE71CE71CE71CE71CE71C30
:10487000E71CE71CE71CE71CE71CE71CE73CE73CE0
:10488000DD56D1C9D147D127D127D107D0E6DBD119
:10489000E71CE6FBE71CE73CE73CE73CE73CE73C82
:1048A000E73CE73CE73CE71CE71CE71CE71CE71C90
:1048B000E71CE71CE71CE71CE71CE71CE71CE71CE0
:1048C000E71CE73CE73CEF3CDE9AB51393EFB57588
:1048D000EF5DFFFFFFFFFFFFFFFFFFFFFFFFF79E03
:1048E000EF7DFFFFFFFFFFFFFFFFFFFFFFFFFFFF6A
:1048F000FFFFFFFFFFFFFFFFFFFFFFFFFFFFFFFFC8
:10490000FFFFFFFFFFFFFFFFFFFFFFFFFFFFFFFFB7
:10491000FFFFFFFFFFFFFFFFFFFFFFFFFFFFFFFFA7
:10492000FFFFFFFFFFFFFFFFFFFFFFFFFFFFFFFF97
:10493000FFFFFFFFEF7DF79EFFFFFFFFFFFFFFFF82
:10494000FFFFFFDFE71CBD55BD14DE9AF79EF7BEE3
:10495000EF5DE73CE71CE71CE71CE71CE71CE71CD6
:10496000E71CE71CE71CE71CE71CE71CE71CE71C2F
:10497000E71CE71CE73CE73CE73CE73CE73CE61884
:10498000DA6BD168D168D148D147D127D107D1A9F5
:10499000D28CD2ADD32FDC12DC73DD56DDF8E6DB32
:1049A000E73CE75CE73CE73CE73CE71CE71CE71C2F
:1049B000E71CE71CE71CE71CE71CE71CE71CE71CDF
:1049C000E71CE71CE71CE73CE73CDEDBBD759BEF23
:1049D000AD13E73CFFFFFFFFFFFFFFFFFFFFFFFF00
:1049E000F79EEF7DFFFFFFFFFFFFFFFFFFFFFFFFD2
:1049F000FFFFFFFFFFFFFFFFFFFFFFFFFFFFFFFFC7
:104A0000FFFFFFFFFFFFFFFFFFFFFFFFFFFFFFFFB6
:104A1000FFFFFFFFFFFFFFFFFFFFFFFFFFFFFFFFA6
:104A2000FFFFFFFFFFFFFFFFFFFFFFFFFFFFFFFF96
:104A3000FFFFEF7DF79EFFFFFFFFFFFFFFFFFFFF81
:104A4000FFDFE6FBB534BD34E6FBF7BEF79EEF5C57
:104A5000E71CE71CE71CE71CE71CE71CE71CE71C3E
:104A6000E71CE71CE71CE71CE71CE71CE71CE73C0E
:104A7000E73CE73CE73CE73CE73CE73CE679DB0E1C
:104A8000D1A9D1A9D189D168D168D148D128D1077C
:104A9000C8E7C8C7C8C6C8A6C8A6C8C7C908C9EB5A
:104AA000D34FDCB4DDF8E6FBE73CE73CE73CE71C32
:104AB000E71CE71CE71CE71CE71CE71CE71CE71CDE
:104AC000E71CE71CE71CE71CE73CE73CE6FBC5B638
:104AD0009BEFA4B2E6FBFFDFFFFFFFFFFFFFFFFF3F
:104AE000FFFFF79EEF7DFFFFFFFFFFFFFFFFFFFFD1
:104AF000FFFFFFFFFFFFFFFFFFFFFFFFFFFFFFFFC6
:104B0000FFFFFFFFFFFFFFFFFFFFFFFFFFFFFFFFB5
:104B1000FFFFFFFFFFFFFFFFFFFFFFFFFFFFFFFFA5
:104B2000FFFFFFFFFFFFFFFFFFFFFFFFFFFFFFFF95
:104B3000F79EEF7DFFFFFFFFFFFFFFFFFFFFFFDFA0
:104B4000DEFBB514C555EF1CF7BEEF7DE73CE71C57
:104B5000E71CE71CE71CE71CE71CE71CE71CE71C3D
:104B6000E71CE71CE71CE71CE71CE71CE73CE73CED
:104B7000E73CE73CE73CE73CE73CE6DBDBB0D9EA77
:104B8000D1EAD1C9D1A9D1A9D189D168D148D14817
:104B9000C928C907C907C8E7C8C7C8C7C8A7C886FA
:104BA000C066C086C908CA8DDC94E659E73CE73C7C
:104BB000E73CE73CE73CE73CE71CE71CE71CE71C5D
:104BC000E71CE71CE71CE71CE71CE71CE73CE6FBCF
:104BD000C5D79C0FA491DEFBFFDFFFFFFFFFFFFFA8
:104BE000FFFFFFFFF79EF79EFFFFFFFFFFFFFFFFA7
:104BF000FFFFFFFFFFFFFFFFFFFFFFFFFFFFFFFFC5
:104C0000FFFFFFFFFFFFFFFFFFFFFFFFFFFFFFFFB4
:104C1000FFFFFFFFFFFFFFFFFFFFFFFFFFFFFFFFA4
:104C2000FFFFFFFFFFFFFFFFFFFFFFFFFFFFF79EFD
:104C3000EF7DFFFFFFFFFFFFFFFFFFFFFFDFE6FB53
:104C4000B514C575EF3CF7BEEF7DE73CE71CE71CEC
:104C5000E71CE71CE71CE71CE71CE71CE71CE71C3C
:104C6000E71CE71CE71CE73CE73CE73CE73CE73C8C
:104C7000E73CE73CE73CE73CE6FBDC72DA4BDA2A50
:104C8000D20AD1EAD1EAD1C9D1A9D189D189D168D1
:104C9000C948C928C928C908C8E7C8E7C8C7C8C7D4
:104CA000C0A7C087C087C066C067C16AD3B1DDF83E
:104CB000E73CE73CE73CE73CE73CE73CE71CE71C1C
:104CC000E71CE71CE71CE71CE71CE71CE71CE73CAC
:104CD000E71CC5F79BEFA491E6FBFFFFFFFFFFFF7B
:104CE000FFFFFFFFFFFFEF7DF79EFFFFFFFFFFFFCF
:104CF000FFFFFFFFFFFFFFFFFFFFFFFFFFFFFFFFC4
:104D0000FFFFFFFFFFFFFFFFFFFFFFFFFFFFFFFFB3
:104D1000FFFFFFFFFFFFFFFFFFFFFFFFFFFFFFFFA3
:104D2000FFFFFFFFFFFFFFFFFFFFFFFFF7BEEF7D6E
:104D3000FFDFFFFFFFFFFFFFFFFFFFFFE71CB534B3
:104D4000C575EF3CF7BEEF7DE73CE71CE71CE71CB1
:104D5000E71CE71CE71CE71CE71CE71CE71CE71C3B
:104D6000E71CE73CE73CE73CE73CE73CE73CE73C4B
:104D7000E73CE73CE75CE75CE4F4DA8CDA6BDA4BBF
:104D8000D22BD20BD20AD1EAD1CAD1A9D1A9D189C9
:104D9000C969C949C948C928C908C908C8E8C8E7CC
:104DA000C0C7C0A7C0A7C087C087C067C067C129E8
:104DB000D391DE19E73CE73CE73CE73CE73CE71CE6
:104DC000E71CE71CE71CE71CE71CE71CE71CE71CCB
:104DD000E73CE71BC5D793EFA4B2E73CFFFFFFFF1B
:104DE000FFFFFFFFFFFFFFDFEF7DFFDFFFFFFFFFA5
:104DF000FFFFFFFFFFFFFFFFFFFFFFFFFFFFFFFFC3
:104E0000FFFFFFFFFFFFFFFFFFFFFFFFFFFFFFFFB2
:104E1000FFFFFFFFFFFFFFFFFFFFFFFFFFFFFFFFA2
:104E2000FFFFFFFFFFFFFFFFFFFFFFDFEF7DF7BE8D
:104E3000FFFFFFFFFFFFFFFFFFFFEF5DBD55BD540D
:104E4000EF1CF7BEEF7DE73CE71CE71CE71CE71C07
:104E5000E71CE71CE71CE71CE71CE71CE71CE71C3A
:104E6000E73CE73CE73CE73CE73CE73CE73CE75C0A
:104E7000E77CE79BDF38DD94DB0DDA8CDA8CDA6CCB
:104E8000D24BD24BD22BD20BD1EAD1CAD1CAD1AAA2
:104E9000C989C989C969C949C929C928C908C908A5
:104EA000C0E8C0C8C0C8C0A8C0A7C088C088C068C3
:104EB000C067C12AD3F2E69AE73CE73CE73CE73C0F
:104EC000E73CE71CE71CE71CE71CE71CE71CE71CAA
:104ED000E71CE73CE6FBC5B693CFACF3EF5DFFFF05
:104EE000FFFFFFFFFFFFFFFFF7BEEF5DFFDFFFFFED
:104EF000FFFFFFFFFFFFFFFFFFFFFFFFFFFFFFFFC2
:104F0000FFFFFFFFFFFFFFFFFFFFFFFFFFFFFFFFB1
:104F1000FFFFFFFFFFFFFFFFFFFFFFFFFFFFFFFFA1
:104F2000FFFFFFFFFFFFFFFFFFFFEF7DF79EFFFF8C
:104F3000FFFFFFFFFFFFFFFFEF7DBD96BD14E6FB08
:104F4000F7BEEF7DE73CE71CE71CE71CE71CE71C0E
:104F5000E71CE71CE71CE71CE71CE71CE73CE73CF9
:104F6000E73CE73CE73CE73CE73CE75CE77BDF9A74
:104F7000D737C5EFC469DB0CDACDDACDDAADDA8C20
:104F8000DA6CD26CD24BD22BD20BD20BD1EAD1CA73
:104F9000D1AAC9AAC98AC969C969C949C929C92976
:104FA000C108C108C0E8C0C8C0C8C0A8C0A8C0A97E
:104FB000C0A9C089C088CA0DDD56E71CE73CE73CA4
:104FC000E73CE73CE73CE71CE71CE71CE71CE71C69
:104FD000E71CE71CE73CDEFBBD7593AEB575F79E9D
:104FE000FFFFFFFFFFFFFFFFFFFFF79EEF7DFFFFCC
:104FF000FFFFFFFFFFFFFFFFFFFFFFFFFFFFFFFFC1
:10500000FFFFFFFFFFFFFFFFFFFFFFFFFFFFFFFFB0
:10501000FFFFFFFFFFFFFFFFFFFFFFFFFFFFFFFFA0
:10502000FFFFFFFFFFFFFFFFF79EEF7DFFFFFFFF8B
:10503000FFFFFFFFFFFFF7BECE18B4F3E6BAF7BEDF
:10504000EF7DE73CE71CE71CE71CE71CE71CE71CBF
:10505000E71CE71CE71CE71CE71CE73CE73CE73CD8
:10506000E73CE73CE73CE77BE79ADF99D777C65117
:10507000BCE8BC06D34CDB0EDAEEDAEDDACDDAAD05
:10508000DAADD28CD26CD24CD24BD22BD20BD1EB2C
:10509000D1EBC9CAC9AAC98AC98AC969C949C94952
:1050A000C129C109C109C0E9C0E8C0C8C0C8C0C998
:1050B000C0EAC8EAC8CAC089C10AD3D2E6BBE73C85
:1050C000E73CE73CE73CE73CE71CE71CE71CE71C48
:1050D000E71CE71CE71CE73CDEDBB51493AEC5F725
:1050E000F7BEFFFFFFFFFFFFFFFFFFFFEF7DF7BEF4
:1050F000FFFFFFFFFFFFFFFFFFFFFFFFFFFFFFFFC0
:10510000FFFFFFFFFFFFFFFFFFFFFFFFFFFFFFFFAF
:10511000FFFFFFFFFFFFFFFFFFFFFFFFFFFFFFFF9F
:10512000FFFFFFFFFFFFFFDFEF5DF7BEFFFFFFFFAA
:10513000FFFFFFFFFFDFD69AB4D3D658F7BEF79E26
:10514000E73CE71CE71CE71CE71CE71CE71CE71C27
:10515000E71CE71CE71CE71CE73CE73CE73CE73CB7
:10516000E73CE75BE79ADF98D798CF35B58CAC651D
:10517000BC25D3ACDB4FDB2EDB0EDB0EDAEEDACD5B
:10518000DACDD2ADD28DD26CD26CD24CD22CD20B25
:10519000D20BC9EBC9CBC9AAC9AAC98AC96AC96A4B
:1051A000C149C129C129C109C109C0E9C0E9B8C9BA
:1051B000C0E9C10AC92BD12CC8EBC0CACAAFDE19DD
:1051C000E73CE73CE73CE73CE73CE71CE71CE71C27
:1051D000E71CE71CE71CE71CE71CD69AA49293EF98
:1051E000D69AFFDFFFFFFFFFFFFFFFFFF7BEEF5D78
:1051F000FFDFFFFFFFFFFFFFFFFFFFFFFFFFFFFFDF
:10520000FFFFFFFFFFFFFFFFFFFFFFFFFFFFFFFFAE
:10521000FFFFFFFFFFFFFFFFFFFFFFFFFFFFFFFF9E
:10522000FFFFFFFFFFFFEF7DF79EFFFFFFFFFFFF89
:10523000FFFFFFFFE71CB514CDD6F77DF7BEE73CB7
:10524000E71CE71CE71CE71CE71CE71CE71CE71C46
:10525000E71CE71CE73CE73CE73CE73CE73CE75C56
:10526000E79ADF98D798D798C6D4AD09A464B465F7
:10527000D3EBDB6FDB6FDB4FDB2FDB2EDB0EDAEEEE
:10528000DAEED2CDD2ADD2ADD28DD26CD24CD24CE0
:10529000D22CCA0BC9EBC9EBC9CBC9ABC98AC98A25
:1052A000C16AC16AC14AC12AC129C109C109B8E993
:1052B000B8E9B8E9C10AC96CD1AED96DC8EBC9EE7D
:1052C000DDB8E73CE73CE73CE73CE73CE71CE71C94
:1052D000E71CE71CE71CE71CE71CE71CCE389C100A
:1052E000A471E73CFFFFFFFFFFFFFFFFFFFFEF7D24
:1052F000EF7DFFFFFFFFFFFFFFFFFFFFFFFFFFFF50
:10530000FFFFFFFFFFFFFFFFFFFFFFFFFFFFFFFFAD
:10531000FFFFFFFFFFFFFFFFFFFFFFFFFFFFFFFF9D
:10532000FFFFFFFFF7BEEF5DFFFFFFFFFFFFFFFF88
:10533000FFFFF79EBD96BD34EF3CF7BEEF5DE71C67
:10534000E71CE71CE71CE71CE71CE71CE71CE71C45
:10535000E71CE73CE73CE73CE73CE73CE77BDF99C1
:10536000DF98D798D798C6929CC7A464AC65CC0A3E
:10537000E3B0DB90DB90DB6FDB4FDB4FDB2FDB0E33
:10538000DB0EDAEED2CED2CED2ADD28DD26DD26DD0
:10539000D24CCA2CCA0CCA0CC9EBC9CBC9CBC9ABFD
:1053A000C18BC18AC16AC14AC14AC12AC12AB90A8C
:1053B000B90AB8E9B8E9B90AC96CDA0FE1F0D12D38
:1053C000C9ADDD57E73CE73CE73CE73CE73CE71C81
:1053D000E71CE71CE71CE71CE71CE71CE6FBC5B65F
:1053E00093AEB555F79EFFFFFFFFFFFFFFFFFFDF07
:1053F000EF5DF7BEFFFFFFFFFFFFFFFFFFFFFFFFB8
:10540000FFFFFFFFFFFFFFFFFFFFFFFFFFFFFFFFAC
:10541000FFFFFFFFFFFFFFFFFFFFFFFFFFFFFFFF9C
:10542000FFFFFFDFEF7DF7BEFFFFFFFFFFFFFFFF87
:10543000FFDFD659B4D3DEBAF7BEEF7DE71CE71C19
:10544000E71CE71CE71CE71CE71CE71CE71CE71C44
:10545000E73CE73CE73CE73CE75CE79ADF98DF980E
:10546000D778D798BE9294A69C64AC84CC49EBF1D3
:10547000EBD1E3B1E3B0DB90DB70DB6FDB4FDB2F15
:10548000DB2FDB0FD2EED2EED2CED2AED2ADD28DAA
:10549000D26DCA4DCA4CCA2CCA0CC9ECC9ECC9CBD6
:1054A000C1ABC1ABC18BC16BC16BC14AB94AB92A8F
:1054B000B92AB90AB90AB8EAB8EAC16CDA2FEA71AE
:1054C000E1AFC98EDD37E73CE73CE73CE73CE73C32
:1054D000E71CE71CE71CE71CE71CE71CE71CDEDBFE
:1054E000B4F393CED679FFDFFFFFFFFFFFFFFFFF8F
:1054F000F7BEEF7DFFDFFFFFFFFFFFFFFFFFFFFFB7
:10550000FFFFFFFFFFFFFFFFFFFFFFFFFFFFFFFFAB
:10551000FFFFFFFFFFFFFFFFFFFFFFFFFFFFFFFF9B
:10552000FFFFF79EEF7DFFFFFFFFFFFFFFFFFFFF86
:10553000E73CB514CDF7F79EF79EE73CE71CE71C68
:10554000E71CE71CE71CE71CE71CE71CE71CE73C23
:10555000E73CE73CE73CE75BE799DF98DF97D778E4
:10556000DF98C6D494A69464A485C489EC11EBF1A9
:10557000EBF1EBD1EBD1E3B1E390DB90DB70DB50EF
:10558000DB4FDB2FD30FD30FD2EED2CED2CED2AEA3
:10559000D28DD26DDA6DDA4DDA4DDA2DD20DD1EC35
:1055A000D1ECC9CCC9ACC1ABC18BC16BB96BB94B28
:1055B000B92BB92AB90AB90AB90AB8EAB94CD22F33
:1055C000EAB2E1F0D1EFDD98E73CE73CE73CE73CAD
:1055D000E73CE71CE71CE71CE71CE71CE71CE71C93
:1055E000D6599C30A471E73CFFFFFFFFFFFFFFFF90
:1055F000FFFFEF5DF7BEFFFFFFFFFFFFFFFFFFFFB6
:10560000FFFFFFFFFFFFFFFFFFFFFFFFFFFFFFFFAA
:10561000FFFFFFFFFFFFFFFFFFFFFFFFFFFFFFFF9A
:10562000FFDFEF5DF7BEFFFFFFFFFFFFFFFFF7BEEE
:10563000C5D7BD34EF3CF7BEEF5DE71CE71CE71CA8
:10564000E71CE71CE71CE71CE71CE71CE71CE73C22
:10565000E73CE73CE75ADF98DF97DF97D797DF987B
:10566000CF3695088C649C84B4C7ED74FD17F45351
:10567000EBF2EBF1EBD1EBD1EBB1E3B1DB90DB7013
:10568000DB70DB50DB2FD32FD30FD2EFD2EED2CE95
:10569000D2AED2AEDA8EDA6EDA6EDA4EDA2EDA2DDB
:1056A000DA0DD9EDD1EDD1CDD1ACC98CC18CC16BA6
:1056B000B94BB94BB92BB92BB90BB10BB10BB92CF9
:1056C000D22FEAB2E230DA50E5F9E73CE73CE73CBA
:1056D000E73CE73CE71CE71CE71CE71CE71CE71C72
:1056E000E6FBBD9693AEBD96F7BEFFFFFFFFFFFF43
:1056F000FFFFF7BEEF5DFFDFFFFFFFFFFFFFFFFFD5
:10570000FFFFFFFFFFFFFFFFFFFFFFFFFFFFFFFFA9
:10571000FFFFFFFFFFFFFFFFFFFFFFFFFFFFFFFF99
:10572000F79EEF5DFFFFFFFFFFFFFFFFFFFFDEDBE9
:10573000B4F3DE59F7BEEF7DE71CE71CE71CE71C5E
:10574000E71CE71CE71CE71CE71CE71CE73CE73C01
:10575000E73CE75ADF76D776DF97DF97D798D77899
:105760009D6B84649484A4A5B4C5CD2AE5B2FDB72D
:10577000FD17F454EBF2EBF2EBD2EBD1EBB1E3918A
:10578000DB90DB70DB50D350D32FD30FD30FD2EF8E
:10579000D2CFD2CED2AEDAAFDA8EDA6EDA6EDA4E9F
:1057A000DA2EDA0ED20DD1EDD1EDD1CDD1ADC98C3D
:1057B000C18CB96CB94BB94BB92BB12BB10BB10B37
:1057C000B92CCA0FE2B2E230DAF2E65AE73CE73C23
:1057D000E73CE73CE71CE71CE71CE71CE71CE71C71
:1057E000E73CDEBAAC9293EFDEFBFFFFFFFFFFFF6B
:1057F000FFFFFFFFEF5DF79EFFFFFFFFFFFFFFFFD4
:10580000FFFFFFFFFFFFFFFFFFFFFFFFFFFFFFFFA8
:10581000FFFFFFFFFFFFFFFFFFFFFFFFFFFFFFDFB8
:10582000EF5DF7BEFFFFFFFFFFFFFFFFF79EBD9697
:10583000C555EF5DF79EE73CE71CE71CE71CE71C3E
:10584000E71CE71CE71CE71CE71CE73CE73CE73CE0
:10585000DF59D775D775D776D777D797DFB9B630F1
:105860007C648C849CA5ACC5B4E5C4E5CCE5D529A5
:10587000ED92FDB7FD17F454EBF2EBD2EBD2EBB1A6
:10588000E3B1E391DB71DB70D350D330D330D30F6E
:10589000D2EFD2EFD2CFE2CFE2D0E2AFE28FDA6F37
:1058A000DA6FDA4ED22ED20ED1EED1EED1CDD1CDED
:1058B000D1ADC98DC18CB96CB94CB14CB12CB12BE7
:1058C000B10BB12CCA0FE2B2E210DB93E6BBE73CAE
:1058D000E73CE73CE73CE71CE71CE71CE71CE71C50
:1058E000E71CE71CCDF793CEB555F7BEFFFFFFFFD2
:1058F000FFFFFFFFF7BEEF5DFFDFFFFFFFFFFFFFD3
:10590000FFFFFFFFFFFFFFFFFFFFFFFFFFFFFFFFA7
:10591000FFFFFFFFFFFFFFFFFFFFFFFFFFFFF7BEE0
:10592000EF5DFFFFFFFFFFFFFFFFFFFFDEBAB4F3F6
:10593000DE9AF7BEEF5DE71CE71CE71CE71CE71CDF
:10594000E71CE71CE71CE71CE73CE73CE73CDF39CA
:10595000CF53CF54CF75D776D777DF98CF1684C77C
:10596000848494A5A4C5B4E5BD05C505CD05D5259C
:10597000DD46ED6AF5B2FDB8FD17F454EBF2EBD25B
:10598000EBD2E3B2E3B1E391DB71D350D350D33028
:10599000D310D30FD310F3D4FC16FBF6FBD5FBB515
:1059A000F374F313EAD2E291E250DA0FD1EED1EEC2
:1059B000D1CEC9AEC9AEC98DB96DB96CB14CB14CBF
:1059C000B12CB12CB14DD22FE291D9F0DC96E6FC8E
:1059D000E73CE73CE73CE71CE71CE71CE71CE71C4F
:1059E000E71CE73CDEDBACD393CFDEDBFFFFFFFF42
:1059F000FFFFFFFFFFFFEF5DF7BEFFFFFFFFFFFFB2
:105A0000FFFFFFFFFFFFFFFFFFFFFFFFFFFFFFFFA6
:105A1000FFFFFFFFFFFFFFFFFFFFFFFFFFDFEF5D68
:105A2000F79EFFFFFFFFFFFFFFFFF79EBD96C575C7
:105A3000F77DF79EE73CE71CE71CE71CE71CE71C2B
:105A4000E71CE71CE71CE71CE73CE73CDF39CF52CB
:105A5000C752CF53CF54CF75D796DF98A5AD7C648E
:105A60008CA49CC5ACE5BD05C525CD26DD66E586C7
:105A7000E586E566E546ED49F5B2FDD9FD17EC543E
:105A8000EBF2E3D2E3B2E3B2E392DB91DB71D3500A
:105A9000D330D330D330EDB9F6DCF6BCF6BCF69C8F
:105AA000F67BF5BAFD39FC98FBD6F314EA92E25086
:105AB000D20FC9CEC9CEC9AEC9AEC18DB96DB16C58
:105AC000B14CB14CB12CB96DD230E230DA51E5D9DC
:105AD000E73CE73CE73CE73CE71CE71CE71CE71C2E
:105AE000E71CE71CE71CCE1893CFB534F7BEFFFFC9
:105AF000FFFFFFFFFFFFF79EEF7DFFDFFFFFFFFFD1
:105B0000FFFFFFFFFFFFFFFFFFFFFFFFFFFFFFFFA5
:105B1000FFFFFFFFFFFFFFFFFFFFFFFFFFDFEF5D67
:105B2000FFDFFFFFFFFFFFFFFFFFDEDBB4F3DE99C8
:105B3000F7BEEF5DE71CE71CE71CE71CE71CE71C52
:105B4000E71CE71CE71CE73CE73CE73BC732C730F4
:105B5000C752C753CF54CF75D797CEF57C85848471
:105B600094C5A4E5B505BD25CD66DD86E5A6E5A60B
:105B7000ED86ED86ED66EDA9F671F719FEBCFDFB2D
:105B8000FD18EC54E3F3E3D2E3B2E3B2E392DB714A
:105B9000D371D351D330E577F7BEF79EF79EF79ECA
:105BA000F79EF79EF79EF77DEEFCED9BEBD8EAD5CE
:105BB000F2D4E272D210C9CFC9CEC9AEC1AEB98D8E
:105BC000B16DB14DB14DB14DB98ECA10D1CFD39396
:105BD000E6BBE73CE73CE73CE71CE71CE71CE71CAF
:105BE000E71CE71CE73CDEDBACD393EFDEFBFFFFFB
:105BF000FFFFFFFFFFFFFFDFEF5DFFDFFFFFFFFFA7
:105C0000FFFFFFFFFFFFFFFFFFFFFFFFFFFFFFFFA4
:105C1000FFFFFFFFFFFFFFFFFFFFFFDFEF7DEF7DD8
:105C2000FFFFFFFFFFFFFFFFF7BEC5D7BD54EF5DCE
:105C3000F79EE73CE71CE71CE71CE71CE71CE71C9A
:105C4000E71CE71CE73CE73CE73BCF33BF2EBF3008
:105C5000C731C753C754CF75DF98A5CD7C648CA4DA
:105C60009CE5AD05BD45CD86DDA6E5C6E5C6EDA640
:105C7000EDA6EDC8F66FF737F77BF79DF79EF75E59
:105C8000FEBDFDFBF518EC55E3D3E3B2E3B2E392BE
:105C9000E392DB72D351E4D6F79EF79EF79EF79E10
:105CA000F79EF79EF79EF79EF79EEF9EE6DCCC18D8
:105CB000BA75DAB5EAD5E272D210C9CFC9CFC1AF91
:105CC000B98EB16DB16DA94DA94DB18EC9CFC9EFD6
:105CD000DD58E73CE73CE73CE73CE71CE71CE71CFA
:105CE000E71CE71CE71CE73CCDF793AEBD96F7DF5A
:105CF000FFFFFFFFFFFFFFFFEF7DEF7DFFFFFFFFD8
:105D0000FFFFFFFFFFFFFFFFFFFFFFFFFFFFFFFFA3
:105D1000FFFFFFFFFFFFFFFFFFFFFFDFEF5DF7BEAE
:105D2000FFFFFFFFFFFFFFFFE73CB4F3D638F7BEEE
:105D3000EF7DE71CE71CE71CE71CE71CE71CE71CE2
:105D4000E71CE73CE73CE73CCF36B72EBF2FBF3020
:105D5000BF31C732C753CF95CF157CA67C8494C57D
:105D6000A505B545CD86D5C6E5E6E5E6EDC6EDE784
:105D7000F64CF715F77AF79DF79EF79EF79EF79E7C
:105D8000F79EF77EFEDDFDFCF518EC55E3D3E3B29C
:105D9000E3B2E392DB72E455F75DF79EF79EF79E60
:105DA000F79EF79EF79EF79EF79EF79EF79EEF3DB4
:105DB000C4789A13AA13D295EAB5DA52C9F0C1CFC2
:105DC000C1CFB9AFB18EA96EA96EA96EB1AFC18FA7
:105DD000CB33E6DBE73CE73CE73CE73CE71CE71C72
:105DE000E71CE71CE71CE73CDEBAA4929C30EF3CC2
:105DF000FFFFFFFFFFFFFFFFF7BEEF5DFFDFFFFFCE
:105E0000FFFFFFFFFFFFFFFFFFFFFFFFFFFFFFFFA2
:105E1000FFFFFFFFFFFFFFFFFFFFF7BEEF5DFFFF8D
:105E2000FFFFFFFFFFFFFFDFCE38B4F3EF1CF7BE2D
:105E3000E73CE71CE71CE71CE71CE71CE71CE71C2A
:105E4000E71CE73CE73CD739B72FB72EB70EB70FA3
:105E5000BF30BF32C753D796B650746484A494E55C
:105E6000AD25C586D5C6DDE6E606EE06EE2AF6D1F8
:105E7000F758F79CF79EF79EF79EF79EF79EF79EC2
:105E8000F7BEF7BEF7BEF77EFEDDFDFCF519EC555B
:105E9000E3D3E3B3DB92E3F4F6FCF7BEF79EF79EA1
:105EA000F79EF79EF79EF79EF79EF79EF79EF79E4A
:105EB000EF3DC45899F389B2A213DAB5EA94D2112E
:105EC000C1F0C1D0B9AFA98EA98EA96EA98EB18F2C
:105ED000B9CFDD98E73CE73CE73CE73CE71CE71C33
:105EE000E71CE71CE71CE71CE71CC59693AECE58E1
:105EF000FFFFFFFFFFFFFFFFFFFFEF5DF7BEFFFFAD
