:020000040800F2
:1000000090060020CD010008F12B000833100008F5
:10001000ED2B000863030008C92F00080000000052
:100020000000000000000000000000009D2D0008FE
:1000300067030008000000002D2C00089F2D000819
:10004000E7010008E7010008E7010008E7010008F0
:10005000E7010008E701000889030008E70100083C
:10006000E7010008E7010008E7010008E7010008D0
:10007000E7010008E7010008E7010008E7010008C0
:10008000E7010008E7010008E7010008E7010008B0
:10009000E7010008E7010008E7010008E7010008A0
:1000A000E7010008E7010008E7010008E701000890
:1000B000E7010008E7010008E7010008E701000880
:1000C000E7010008E7010008E7010008E701000870
:1000D000E7010008E7010008E7010008E701000860
:1000E000E7010008E7010008E7010008E701000850
:1000F000E7010008E7010008E7010008E701000840
:10010000E7010008E7010008E7010008E70100082F
:10011000E7010008E7010008E7010008E70100081F
:10012000E7010008E7010008E7010008E70100080F
:1001300000F002F800F03AF80AA090E8000C8244BF
:100140008344AAF10107DA4501D100F02FF8AFF29C
:10015000090EBAE80F0013F0010F18BFFB1A43F0A5
:1001600001031847E4B8000004B90000103A24BFA6
:1001700078C878C1FAD8520724BF30C830C144BF0C
:1001800004680C607047000000230024002500264E
:10019000103A28BF78C1FBD8520728BF30C148BFEA
:1001A0000B6070471FB51FBD10B510BD00F058F8AB
:1001B0001146FFF7F7FF02F08BFF00F076F803B46B
:1001C000FFF7F2FF03BC00F07DF80000094880470C
:1001D00009480047FEE7FEE7FEE7FEE7FEE7FEE729
:1001E000FEE7FEE7FEE7FEE704480549054A064B41
:1001F00070470000092E000831010008900000201F
:100200009006002090020020900200204FF0000293
:1002100000B5134694469646203922BFA0E80C50FC
:10022000A0E80C50B1F12001BFF4F7AF090728BFD7
:10023000A0E80C5048BF0CC05DF804EB890028BF53
:1002400040F8042B08BF704748BF20F8022B11F07C
:10025000804F18BF00F8012B7047704770477047F8
:10026000754600F02BF8AE4605006946534620F06F
:100270000700854618B020B5FFF7B6FFBDE820405F
:100280004FF000064FF000074FF000084FF0000B52
:1002900021F00701AC46ACE8C009ACE8C009ACE805
:1002A000C009ACE8C0098D46704710B50446AFF3ED
:1002B00000802046BDE81040FFF781BF004870472E
:1002C0002C00002001491820ABBEFEE726000200EA
:1002D00070472DE9F04104460D4616461F464FF47F
:1002E000285002F073FEC4F30F2002F073FE42F6B2
:1002F000012002F06BFEA0B202F06CFE42F602207A
:1003000002F064FEC5F30F2002F064FE42F6032003
:1003100002F05CFEA8B202F05DFE4FF42C5002F039
:1003200055FEC6F30F2002F055FE42F6013002F0F2
:100330004DFEB0B202F04EFE42F6023002F046FE32
:10034000C7F30F2002F046FE42F6033002F03EFEF5
:10035000B8B202F03FFE4FF4305002F037FEBDE875
:10036000F08100BFFEE7704770B505460C461646A3
:100370002346224629462846FFF7ABFF0148068060
:1003800070BD0000000002607047000070B50446B8
:10039000B3F5804F13D1D1E9000540EA05108D680F
:1003A00040EA05208D6928438D8940EA054054F8CC
:1003B0002250064E3540284344F8220003E06FF0F7
:1003C000704044F82200002070BD00000000F0CF13
:1003D00010B50246086852F8200020F001000B68B2
:1003E00042F823008868082822D1486840F040007D
:1003F0008B681843CB6818430B6918434B69184343
:100400008B691843CB6918430B6A18434B6A18432E
:100410008B6A1843CB6A18430B6B18430B6852F86E
:100420002330144C234018430B6842F823001FE08C
:10043000D1E901031843CB6818430B6918434B6992
:1004400018438B691843CB6918430B6A18434B6AEE
:1004500018438B6A1843CB6A18430B6B18430B681D
:1004600052F82330034C234018430B6842F8230012
:10047000002010BD8100F7FF10B50346D1E900044C
:1004800040EA04108C6840EA04208C8940EA044465
:10049000088A401E44EA0054087D801E44EA006039
:1004A0008C692043541C53F8244004F040442043FA
:1004B000541C43F82400002010BD70B505460E46BC
:1004C000002400F05FFE702000F026FE00F08CFE9D
:1004D000002000F021FE00F087FE00F06DFE00F02D
:1004E00051FE712000F018FE00F07EFE00BF0DE00E
:1004F000701EA04204D1002000F0E0FD285503E06A
:10050000012000F0DBFD2855601C44B2B442EFD35B
:1005100000F052FE002070BD2DE9F847024600248D
:10052000002000258446002700237BE14FF00108CE
:1005300008FA03F4D1F8008008EA0400A0427DD153
:10054000DFF8ECA2D1F80480A8EB0A09D0453AD034
:1005500014DCB8F1030F50D009DCB8F1000F31D032
:10056000B8F1010F1CD0B8F1020F49D120E0B8F169
:10057000110F18D0B8F1120F42D11EE0B9F5881F43
:1005800025D006DCB9F5803F20D0B9F5801F37D1E2
:100590001AE0B9F5001F18D0B9F5041F30D117E0E3
:1005A000D1F80CC02DE0D1F80C8008F1040C28E043
:1005B000D1F80C8008F1080C23E0D1F80C8008F188
:1005C0000C0C1EE000BF00BF00BF00BF00BF00BF9B
:1005D000D1F80880B8F1000F02D14FF0040C0BE005
:1005E000D1F80880B8F1010F03D14FF0080C146165
:1005F00002E04FF0080C546103E04FF0000C00E003
:1006000000BF00BFFF2801D8904601E002F10408B6
:100610004646FF2802D84FEA830803E0A3F1080802
:100620004FEA88084746D6F800804FF00F0909FACC
:1006300007F928EA09080CFA07F900E07AE048EA25
:100640000908C6F80080D1F8048008F08058B8F195
:10065000805F6FD100BFDFF8DC81D8F8188048F0E8
:100660000108DFF8D091C9F81880C846D8F818807A
:1006700008F00108CDF8008000BF00BF4FEAB9388C
:100680004FEA930958F829504FEA83784FEA1879CE
:100690004FF00F0808FA09F825EA0805DFF89881F5
:1006A000424502D14FF0000824E0DFF89081424536
:1006B00002D14FF001081DE0DFF88481424502D1EC
:1006C0004FF0020816E0DFF87C81424502D14FF07E
:1006D00003080FE0DFF87081424502D14FF00408B3
:1006E00008E0DFF86881424502D14FF0050801E0DB
:1006F0004FF006084FEA83794FEA197908FA09F8AA
:1007000048EA0505DFF848814FEA930948F829507F
:10071000D1F8048008F48038B8F5803F0BD1DFF8B9
:100720003481D8F8008048EA0008DFF82891C9F839
:1007300000800AE075E0DFF81C81D8F8008028EA24
:100740000008DFF81091C9F80080D1F8048008F49F
:100750000038B8F5003F0ED1DFF8F88008F1040842
:10076000D8F8008048EA0008DFF8E89009F10409A9
:10077000C9F800800DE0DFF8DC8008F10408D8F843
:10078000008028EA0008DFF8CC9009F10409C9F8D4
:100790000080D1F8048008F48018B8F5801F0ED1CD
:1007A000DFF8B08008F10808D8F8008048EA0008AF
:1007B000DFF8A09009F10809C9F800800DE0DFF822
:1007C000948008F10808D8F8008028EA0008DFF8CB
:1007D000849009F10809C9F80080D1F8048008F470
:1007E0000018B8F5001F0ED1DFF8688008F10C087A
:1007F000D8F8008048EA0008DFF8589009F10C09A1
:10080000C9F800800DE0DFF84C8008F10C08D8F83A
:10081000008028EA0008DFF83C9009F10C09C9F8CB
:1008200000805B1C102BFFF481AEBDE8F887000050
:10083000000011100010024000080140000C0140AF
:10084000001001400014014000180140001C01404C
:100850000800014000040140024693680B400BB1C0
:10086000012000E000207047014800687047000048
:100870000400002002480068401C014908607047DD
:100880000400002070B50446074800684FF47A71F0
:10089000B0FBF1F5284600F0B2FB00222146501EC5
:1008A00000F004F8002070BD000000202DE9F05F8A
:1008B00080460D461646002702F09CF90746394649
:1008C0002A46334601F00700C0F1070ABAF1040FC7
:1008D00002D94FF0040A01E0C0F1070AD14600F145
:1008E000040ABAF1070F02D24FF0000A01E0A0F1AA
:1008F000030AD4464FF0010A0AFA09FAAAF1010ADA
:100900000AEA020A0AFA0CFA4FF0010B0BFA0CFB86
:10091000ABF1010B0BEA030B4AEA0B0421464046FC
:1009200002F070F9BDE8F09F70B504460D46002650
:100930006248006800F00700A8420ED25F480068D5
:1009400020F0070028435D4908600846006800F071
:100950000700A84201D0012070BD207800F00200FD
:10096000022807D15648406820F0F000A1680843EB
:1009700053494860207800F0010000285DD060688D
:10098000012806D14E48006800F4003090B90120DB
:10099000E2E76068022806D14948006800F000706C
:1009A00040B90120D8E74648006800F0020008B9C5
:1009B0000120D1E74248406820F003006168084305
:1009C0003F494860FFF750FF06466068012810D194
:1009D00008E0FFF749FF801B41F28831884201D9C6
:1009E0000320B9E73648406800F00C000428F0D135
:1009F00023E06068022810D108E0FFF735FF801B74
:100A000041F28831884201D90320A5E72C4840688B
:100A100000F00C000828F0D10FE008E0FFF724FFF9
:100A2000801B41F28831884201D9032094E7244891
:100A3000406800F00C000028F0D12048006800F069
:100A40000700A8420ED91D48006820F0070028437F
:100A50001A4908600846006800F00700A84201D063
:100A6000012079E7207800F00400042807D1144819
:100A7000406820F4E060E16808431149486020784C
:100A800000F00800082808D10D48406820F46050A4
:100A9000216940EAC1000A49486000F017F8084996
:100AA0004968C1F30311074A515CC8400649086010
:100AB0000F20FFF7E7FE00204EE700000020024075
:100AC000001002404432000800000020F0B585B05C
:100AD0000FF2700C9CE8E01001A8A0E8E0101DA542
:100AE0002D680095002100240022002300201A4DCB
:100AF000696801F00C05FDB1042D02D0082D1AD152
:100B000001E016481AE001ADC1F38346AB5D01F484
:100B100080355DB1104D6D68C5F340451DF8054049
:100B20000E4DB5FBF4F505FB03F202E00C4D03FBA3
:100B300005F2104602E000BF084800BF00BF05B044
:100B4000F0BD000002030405060708090A0B0C0D9E
:100B50000E0F1010010200000010024000127A0077
:100B600000093D00F8B504460025207800F001009A
:100B7000002878D0F848406800F00C0004280CD019
:100B8000F548406800F00C00082811D1F248406890
:100B900000F48030B0F5803F0AD1EF48006800F4DF
:100BA000003000285FD0606800285CD10120F8BDCB
:100BB00000BF6068B0F5803F06D1E748006840F4A8
:100BC0008030E549086028E0606858B9E24800686C
:100BD00020F48030E04908600846006820F4802056
:100BE00008601AE06068B0F5A02F0BD1DA48006801
:100BF00040F48020D84908600846006840F48030FE
:100C000008600AE0D448006820F48030D2490860C7
:100C10000846006820F48020086000BF606888B142
:100C2000FFF722FE054606E0FFF71EFE401B642884
:100C300001D90320BBE7C848006800F40030002851
:100C4000F2D010E0FFF710FE054606E0FFF70CFEBD
:100C5000401B642801D90320A9E7BF48006800F4BD
:100C600000300028F2D1207800F00200022857D18D
:100C7000B948406800F00C0050B1B748406800F037
:100C80000C00082818D1B448406800F4803098B9A6
:100C9000B148006800F0020020B12069012801D0AD
:100CA000012084E7AC48006820F0F800616940EA60
:100CB000C100A949086033E02069E8B10120A749D3
:100CC0000860FFF7D1FD054606E0FFF7CDFD401BAC
:100CD000022801D903206AE79F48006800F002005B
:100CE0000028F2D09C48006820F0F800616940EAD2
:100CF000C1009949086013E0002098490860FFF797
:100D0000B3FD054606E0FFF7AFFD401B022801D901
:100D100003204CE79048006800F002000028F2D160
:100D2000207800F0080008282DD1A069B8B1012072
:100D30008B490860FFF798FD054606E0FFF794FD34
:100D4000401B022801D9032031E78348406A00F0A4
:100D500002000028F2D0012001F0C8FF13E00020BB
:100D60007F490860FFF780FD054606E0FFF77CFD40
:100D7000401B022801D9032019E77748406A00F098
:100D800002000028F2D1207800F00400042873D17A
:100D900000267148C06900F0805070B900BF6E48ED
:100DA000C06940F080506C49C8610846C06900F0D5
:100DB0008050009000BF00BF01266A48006800F420
:100DC0008070B0B96748006840F480706549086079
:100DD000FFF74AFD054606E0FFF746FD401B642885
:100DE00001D90320E3E65F48006800F48070002822
:100DF000F2D000BFE068012806D15748006A40F0F1
:100E000001005549086227E0E06858B95248006A75
:100E100020F00100504908620846006A20F00400F2
:100E2000086219E0E06805280BD14B48006A40F0E1
:100E30000400494908620846006A40F0010008625F
:100E40000AE04548006A20F001004349086208466C
:100E5000006A20F00400086200BFE068A0B1FFF75C
:100E600003FD054609E0FFF7FFFC401B41F2883116
:100E7000884202D903209AE622E03748006A00F04F
:100E800002000028EFD012E0FFF7EEFC054608E074
:100E9000FFF7EAFC401B41F28831884201D9032068
:100EA00085E62D48006A00F002000028F0D1012EEE
:100EB00005D12948C06920F080502749C86100BF8A
:100EC000E069C8B32448406800F00C00082860D0EE
:100ED000E069022848D1002020490866FFF7C4FCD9
:100EE000054606E0FFF7C0FC401B022801D903209D
:100EF0005DE61948006800F000700028F2D1206A11
:100F0000B0F5803F07D11448406820F40030A16854
:100F1000084311494860D4E9080108430E4949686B
:100F200021F4741108430C49486001200B490866FC
:100F3000FFF79AFC054607E02DE0FFF795FC401B04
:100F4000022801D9032032E60348006800F000704F
:100F50000028F2D01FE000000010024000004242D2
:100F6000800442420070004000200C490866FFF7F0
:100F70007BFC054606E0FFF777FC401B022801D901
:100F8000032014E60648006800F000700028F2D143
:100F900001E001200BE6002009E6000000004242CB
:100FA0000010024070B504460E4615460CB90120EB
:100FB00070BD94F83D0028B9002084F83C0020461C
:100FC00000F01CF804F108012068FFF701FA31462F
:100FD000A2682068FFF750FA2946236BD4E9010282
:100FE000FFF7D4F9A168206850F8210040F0010013
:100FF000A268216841F822000020D9E7704770B547
:1010000004462546681EB0F1807F01D301200FE021
:10101000681E4FF0E02148610F214FF0FF3001F0D2
:10102000F1FD00204FF0E0218861072008610020D9
:1010300070BD00BFFEE7000000B54FF400500A4944
:10104000086080000860032000F010F84FF40050A2
:101050000549091F0860032000F008F84FF400500C
:101060000149086000BD0000140C014008B50021D2
:10107000009104E0BDF80010491C89B20091BDF850
:1010800000108142F6DB08BD00B54FF400500A495C
:1010900008608000091F08600320FFF7E7FF4FF496
:1010A00000500549091F08600320FFF7DFFF4FF4D8
:1010B00000500149086000BD140C014030B50446E1
:1010C00000224FF4004013490860002517E04FF458
:1010D00000501049091D08601220FFF7C7FF4FF4A8
:1010E00000500C4908605006020E01F013FE08B1D2
:1010F000501CC2B21220FFF7B9FF681CC5B2082D00
:10110000E5DB14B9FFF7C0FF01E0FFF795FF1046DC
:1011100030BD0000100C014008B502464FF40050ED
:10112000174908600020009025E002F0800028B1F7
:101130004FF400401249091F086003E04FF40040DB
:101140000F4908600320FFF791FF4FF400500C494E
:10115000091F08600320FFF789FF4FF4005008497A
:1011600008600320FFF782FF5006020E9DF8000082
:10117000401CC0B200909DF800000828D5DB08BDD7
:10118000140C014000B54FF400400A49086080107B
:1011900008600F20FFF76AFF4FF400400549091D62
:1011A00008600320FFF762FF4FF400500149091D5A
:1011B000086000BD100C014000B54FF40040094923
:1011C0000860801008600320FFF750FF4FF40040D4
:1011D0000449091F0860801008600320FFF746FFDC
:1011E00000BD0000140C014008B5002000904FF431
:1011F0000040124908600320FFF738FF4FF4005009
:101200000E4908600320FFF731FF0CE0BDF8000035
:10121000401C80B20090BDF80000322803DDFFF7CB
:10122000CBFF012008BD01F075FD0028EED14FF481
:1012300000500249091D08600020F3E7100C01402E
:1012400000B599B04FF02040089015480990022051
:10125000019000200290052003900020049005904A
:1012600006904FF08050079000200A9000210B91CB
:1012700008210C9110210D9100210E910F911191D7
:101280004FF48051129100211391149115911691F0
:1012900001AA01A908A8FFF785FE19B000BD00004A
:1012A000040100A02DE9F04780460C4615461E4675
:1012B000DDF82090A019431E08EB0500411E2246D0
:1012C0004046FFF706F8002704E039F81700044904
:1012D00008807F1C05FB06F0B842F6D8BDE8F08711
:1012E0000000026000B585B000BF3648806940F05C
:1012F0000400344988610846806900F004000090C9
:1013000000BF00BF00BF0846806940F02000886130
:101310000846806900F02000009000BF00BF00BFB9
:101320000846806940F0400088610846806900F006
:101330004000009000BF00BF00BF0846406940F475
:10134000807048610846406900F48070009000BFDA
:1013500000BF03200490022002904CF20370019021
:1013600001A91948FFF7D8F84FF68070019001A93C
:101370001648FFF7D1F84FF40B60019001A912480D
:10138000FFF7CAF8012002900390032004904FF465
:101390000050019001A90C48FFF7BEF8022001900F
:1013A00001A90B48FFF7B8F8002002900220039033
:1013B000032004900120019001A90548FFF7ACF833
:1013C00005B000BD001002400014014000180140AB
:1013D000000801402DE9FC470646894614469A4616
:1013E000DDE90A7800251DE0207880280DDACDE9B6
:1013F0000078227806EBC50188B25346494601F0D1
:1014000091FC641C681CC5B20CE006EBC50188B2F7
:10141000534622464946CDE9007801F009FCA41C58
:10142000A81CC5B220780028DED1BDE8FC870000EA
:1014300000B54FF40050084908604FF4FA7000F00E
:101440000DF84FF400500449091F08604FF4FA707A
:1014500000F004F800BD00001414014001B582B092
:101460000020019011E00020009004E0BDF8000091
:10147000401C80B20090BDF80000B0F57A7FF5DB2B
:10148000BDF80400401C80B20190BDF80400029930
:101490008842E8D30EBD2DE9F04104460D461646BC
:1014A0001F463346324629462046FEF712FF4FF0CC
:1014B000000806E0384601F08DFD08F101001FFA32
:1014C00080F8281B401C4045F4DCBDE8F0812DE984
:1014D000F04106460C4615461F462B46224631462D
:1014E0003046FEF7F6FE4FF0000806E0384601F001
:1014F00071FD08F101001FFA80F8281B401C4045CF
:10150000F4DCBDE8F08100002DE9F04707460C4609
:1015100015461E46DDF82090A019431E7819411E7D
:1015200022463846FEF7D5FE4FF0000804E0054895
:10153000A0F8009008F1010805FB06F04045F6D838
:10154000BDE8F0870000026010B5FFF7CBFEFFF7A3
:1015500077FEFFF76DFF4FF47F4001F037FDAA20C3
:1015600001F038FD4FF6017001F030FD552001F01B
:1015700031FD4FF6027001F029FDA52001F02AFD92
:101580004FF6037001F022FD802001F023FD4FF49F
:10159000724001F01BFD002001F01CFD4FF2012004
:1015A00001F014FD842001F015FD4FF2022001F03E
:1015B0000DFD082001F00EFD4FF4DE4001F006FDA8
:1015C0000A2001F007FD4FF4744001F0FFFC1320E6
:1015D00001F000FD4FF47F4001F0F8FCAA2001F07B
:1015E000F9FC4FF6017001F0F1FC552001F0F2FC1E
:1015F0004FF6027001F0EAFCA52001F0EBFC4FF67B
:10160000037001F0E3FC002001F0E4FC4FF47040B3
:1016100001F0DCFC552001F0DDFC4FF2010001F08F
:10162000D5FCAA2001F0D6FC4FF2020001F0CEFC5E
:10163000522001F0CFFC4FF2030001F0C7FC08205C
:1016400001F0C8FC4FF2040001F0C0FC012001F0E1
:10165000C1FC4FF4304001F0B9FC0C2001F0BAFCA1
:101660004BF2010001F0B2FC0C2001F0B3FC4BF294
:10167000020001F0ABFC0C2001F0ACFC4FF4364052
:1016800001F0A4FC462001F0A5FC4BF2016001F042
:101690009DFC462001F09EFC4BF2026001F096FC9E
:1016A000462001F097FC4FF4314001F08FFC0C20F4
:1016B00001F090FC4BF2011001F088FC0C2001F0CD
:1016C00089FC4BF2021001F081FC0C2001F082FC3D
:1016D0004FF4374001F07AFC262001F07BFC4BF2FE
:1016E000017001F073FC262001F074FC4BF20270D3
:1016F00001F06CFC262001F06DFC4FF4324001F04B
:1017000065FC002001F066FC4BF2012001F05EFC5C
:10171000002001F05FFC4BF2022001F057FC00209A
:1017200001F058FC4FF4384001F050FC342001F037
:1017300051FC4BF6010001F049FC342001F04AFC59
:101740004BF6020001F042FC342001F043FC4FF460
:101750003F4001F03BFC012001F03CFC4FF43340E2
:1017600001F034FC082001F035FC4BF2013001F0AF
:101770002DFC082001F02EFC4BF2023001F026FC7B
:10178000082001F027FC4FF4394001F01FFC26200F
:1017900001F020FC4BF6011001F018FC262001F0AE
:1017A00019FC4BF6021001F011FC262001F012FC8E
:1017B0004FF4354001F00AFC082001F00BFC4BF21D
:1017C000015001F003FC082001F004FC4BF2025030
:1017D00001F0FCFB082001F0FDFB4FF43A4001F062
:1017E000F5FB362001F0F6FB4BF6012001F0EEFB95
:1017F000362001F0EFFB4BF6022001F0E7FB36202C
:1018000001F0E8FB4FF43C4001F0E0FB002001F068
:10181000E1FB4BF6014001F0D9FB802001F0DAFB3F
:101820004BF6024001F0D2FB002001F0D3FB4FF455
:101830003D4001F0CBFB002001F0CCFB4BF601500A
:1018400001F0C4FB802001F0C5FB4BF6025001F013
:10185000BDFB002001F0BEFB4FF43E4001F0B6FBA3
:10186000002001F0B7FB4BF6016001F0AFFB552003
:1018700001F0B0FB4FF4514001F0A8FB002001F053
:10188000A9FB4DF2011001F0A1FB012001F0A2FB28
:101890004DF2021001F09AFB002001F09BFB4DF28B
:1018A000031001F093FB1C2001F094FB4DF2041097
:1018B00001F08CFB002001F08DFB4DF2051001F0D2
:1018C00085FB4E2001F086FB4DF2061001F07EFBF9
:1018D000002001F07FFB4DF2071001F077FB6A203A
:1018E00001F078FB4DF2081001F070FB002001F0D0
:1018F00071FB4DF2091001F069FB852001F06AFBD4
:101900004DF20A1001F062FB002001F063FB4DF282
:101910000B1001F05BFBAB2001F05CFB4DF20C10F7
:1019200001F054FB002001F055FB4DF20D1001F0C9
:101930004DFBC42001F04EFB4DF20E1001F046FBB2
:10194000002001F047FB4DF20F1001F03FFBFC209F
:1019500001F040FB4DF2101001F038FB012001F0C6
:1019600039FB4DF2111001F031FB232001F032FB65
:101970004DF2121001F02AFB012001F02BFB4DF279
:10198000131001F023FB612001F024FB4DF2141031
:1019900001F01CFB012001F01DFB4DF2151001F0C0
:1019A00015FB942001F016FB4DF2161001F00EFB12
:1019B000012001F00FFB4DF2171001F007FBE420AE
:1019C00001F008FB4DF2181001F000FB022001F0BD
:1019D00001FB4DF2191001F0F9FA272001F0FAFA93
:1019E0004DF21A1001F0F2FA022001F0F3FA4DF272
:1019F0001B1001F0EBFA292001F0ECFA4DF21C105B
:101A000001F0E4FA022001F0E5FA4DF21D1001F0B8
:101A1000DDFA652001F0DEFA4DF21E1001F0D6FA73
:101A2000022001F0D7FA4DF21F1001F0CFFAA620E4
:101A300001F0D0FA4DF2201001F0C8FA022001F0B6
:101A4000C9FA4DF2211001F0C1FACA2001F0C2FA20
:101A50004DF2221001F0BAFA022001F0BBFA4DF269
:101A6000231001F0B3FAFD2001F0B4FA4DF2241076
:101A700001F0ACFA032001F0ADFA4DF2251001F0AF
:101A8000A5FA1D2001F0A6FA4DF2261001F09EFAEB
:101A9000032001F09FFA4DF2271001F097FA4D2034
:101AA00001F098FA4DF2281001F090FA032001F0AD
:101AB00091FA4DF2291001F089FA6A2001F08AFAB0
:101AC0004DF22A1001F082FA032001F083FA4DF260
:101AD0002B1001F07BFA952001F07CFA4DF22C10CE
:101AE00001F074FA032001F075FA4DF22D1001F0A7
:101AF0006DFAAC2001F06EFA4DF22E1001F066FA8C
:101B0000032001F067FA4DF22F1001F05FFACB20AD
:101B100001F060FA4DF2301001F058FA032001F0A4
:101B200059FA4DF2311001F051FAEA2001F052FA5F
:101B30004DF2321001F04AFA032001F04BFA4DF257
:101B4000331001F043FAEF2001F044FA4FF4524011
:101B500001F03CFA002001F03DFA4DF2012001F0C5
:101B600035FA012001F036FA4DF2022001F02EFA8A
:101B7000002001F02FFA4DF2032001F027FA1C207B
:101B800001F028FA4DF2042001F020FA002001F0C3
:101B900021FA4DF2052001F019FA4E2001F01AFA4F
:101BA0004DF2062001F012FA002001F013FA4DF276
:101BB000072001F00BFA6A2001F00CFA4DF2082020
:101BC00001F004FA002001F005FA4DF2092001F0BD
:101BD000FDF9852001F0FEF94DF20A2001F0F6F939
:101BE000002001F0F7F94DF20B2001F0EFF9AB20E6
:101BF00001F0F0F94DF20C2001F0E8F9002001F0BD
:101C0000E9F94DF20D2001F0E1F9C42001F0E2F90B
:101C10004DF20E2001F0DAF9002001F0DBF94DF26F
:101C20000F2001F0D3F9FC2001F0D4F94DF210207F
:101C300001F0CCF9012001F0CDF94DF2112001F0B5
:101C4000C5F9232001F0C6F94DF2122001F0BEF9CA
:101C5000012001F0BFF94DF2132001F0B7F9612026
:101C600001F0B8F94DF2142001F0B0F9012001F0B3
:101C7000B1F94DF2152001F0A9F9942001F0AAF96B
:101C80004DF2162001F0A2F9012001F0A3F94DF266
:101C9000172001F09BF9E42001F09CF94DF2182087
:101CA00001F094F9022001F095F94DF2192001F0AC
:101CB0008DF9272001F08EF94DF21A2001F086F9F6
:101CC000022001F087F94DF21B2001F07FF9292055
:101CD00001F080F94DF21C2001F078F9022001F0AA
:101CE00079F94DF21D2001F071F9652001F072F9CA
:101CF0004DF21E2001F06AF9022001F06BF94DF25D
:101D00001F2001F063F9A62001F064F94DF22020B4
:101D100001F05CF9022001F05DF94DF2212001F0A3
:101D200055F9CA2001F056F94DF2222001F04EF982
:101D3000022001F04FF94DF2232001F047F9FD2078
:101D400001F048F94DF2242001F040F9032001F0A0
:101D500041F94DF2252001F039F91D2001F03AF941
:101D60004DF2262001F032F9032001F033F94DF253
:101D7000272001F02BF94D2001F02CF94DF22820FD
:101D800001F024F9032001F025F94DF2292001F09A
:101D90001DF96A2001F01EF94DF22A2001F016F912
:101DA000032001F017F94DF22B2001F00FF99520D7
:101DB00001F010F94DF22C2001F008F9032001F098
:101DC00009F94DF22D2001F001F9AC2001F002F9E2
:101DD0004DF22E2001F0FAF8032001F0FBF84DF24D
:101DE0002F2001F0F3F8CB2001F0F4F84DF2302071
:101DF00001F0ECF8032001F0EDF84DF2312001F094
:101E0000E5F8EA2001F0E6F84DF2322001F0DEF8C4
:101E1000032001F0DFF84DF2332001F0D7F8EF2076
:101E200001F0D8F84FF4534001F0D0F8002001F051
:101E3000D1F84DF2013001F0C9F8012001F0CAF8E3
:101E40004DF2023001F0C2F8002001F0C3F84DF26B
:101E5000033001F0BBF81C2001F0BCF84DF2043057
:101E600001F0B4F8002001F0B5F84DF2053001F0B2
:101E7000ADF84E2001F0AEF84DF2063001F0A6F8B4
:101E8000002001F0A7F84DF2073001F09FF86A201A
:101E900001F0A0F84DF2083001F098F8002001F0B0
:101EA00099F84DF2093001F091F8852001F092F88F
:101EB0004DF20A3001F08AF8002001F08BF84DF263
:101EC0000B3001F083F8AB2001F084F84DF20C30B8
:101ED00001F07CF8002001F07DF84DF20D3001F0AA
:101EE00075F8C42001F076F84DF20E3001F06EF86E
:101EF000002001F06FF84DF20F3001F067F8FC2080
:101F000001F068F84DF2103001F060F8012001F0A6
:101F100061F84DF2113001F059F8232001F05AF820
:101F20004DF2123001F052F8012001F053F84DF259
:101F3000133001F04BF8612001F04CF84DF21430F1
:101F400001F044F8012001F045F84DF2153001F0A0
:101F50003DF8942001F03EF84DF2163001F036F8CD
:101F6000012001F037F84DF2173001F02FF8E4208E
:101F700001F030F84DF2183001F028F8022001F09D
:101F800029F84DF2193001F021F8272001F022F84C
:101F90004DF21A3001F01AF8022001F01BF84DF250
:101FA0001B3001F013F8292001F014F84DF21C3019
:101FB00001F00CF8022001F00DF84DF21D3001F097
:101FC00005F8652001F006F84DF21E3000F0FEFF26
:101FD000022000F0FFFF4DF21F3000F0F7FFA620B7
:101FE00000F0F8FF4DF2203000F0F0FF022000F08A
:101FF000F1FF4DF2213000F0E9FFCA2000F0EAFFC6
:102000004DF2223000F0E2FF022000F0E3FF4DF23B
:10201000233000F0DBFFFD2000F0DCFF4DF2243028
:1020200000F0D4FF032000F0D5FF4DF2253000F082
:10203000CDFF1D2000F0CEFF4DF2263000F0C6FF90
:10204000032000F0C7FF4DF2273000F0BFFF4D2006
:1020500000F0C0FF4DF2283000F0B8FF032000F080
:10206000B9FF4DF2293000F0B1FF6A2000F0B2FF55
:102070004DF22A3000F0AAFF032000F0ABFF4DF232
:102080002B3000F0A3FF952000F0A4FF4DF22C3080
:1020900000F09CFF032000F09DFF4DF22D3000F07A
:1020A00095FFAC2000F096FF4DF22E3000F08EFF31
:1020B000032000F08FFF4DF22F3000F087FFCB2080
:1020C00000F088FF4DF2303000F080FF032000F078
:1020D00081FF4DF2313000F079FFEA2000F07AFF05
:1020E0004DF2323000F072FF032000F073FF4DF22A
:1020F000333000F06BFFEF2000F06CFF4FF45440E2
:1021000000F064FF002000F065FF4DF2014000F098
:102110005DFF012000F05EFF4DF2024000F056FF2F
:10212000002000F057FF4DF2034000F04FFF1C204D
:1021300000F050FF4DF2044000F048FF002000F096
:1021400049FF4DF2054000F041FF4E2000F042FFF4
:102150004DF2064000F03AFF002000F03BFF4DF248
:10216000074000F033FF6A2000F034FF4DF20840D2
:1021700000F02CFF002000F02DFF4DF2094000F090
:1021800025FF852000F026FF4DF20A4000F01EFFDB
:10219000002000F01FFF4DF20B4000F017FFAB20B6
:1021A00000F018FF4DF20C4000F010FF002000F08E
:1021B00011FF4DF20D4000F009FFC42000F00AFFAE
:1021C0004DF20E4000F002FF002000F003FF4DF240
:1021D0000F4000F0FBFEFC2000F0FCFE4DF2104032
:1021E00000F0F4FE012000F0F5FE4DF2114000F089
:1021F000EDFE232000F0EEFE4DF2124000F0E6FE70
:10220000012000F0E7FE4DF2134000F0DFFE6120F8
:1022100000F0E0FE4DF2144000F0D8FE012000F086
:10222000D9FE4DF2154000F0D1FE942000F0D2FE10
:102230004DF2164000F0CAFE012000F0CBFE4DF238
:10224000174000F0C3FEE42000F0C4FE4DF2184039
:1022500000F0BCFE022000F0BDFE4DF2194000F07F
:10226000B5FE272000F0B6FE4DF21A4000F0AEFE9B
:10227000022000F0AFFE4DF21B4000F0A7FE292027
:1022800000F0A8FE4DF21C4000F0A0FE022000F07D
:10229000A1FE4DF21D4000F099FE652000F09AFE6F
:1022A0004DF21E4000F092FE022000F093FE4DF22F
:1022B0001F4000F08BFEA62000F08CFE4DF2204067
:1022C00000F084FE022000F085FE4DF2214000F077
:1022D0007DFECA2000F07EFE4DF2224000F076FE28
:1022E000022000F077FE4DF2234000F06FFEFD204B
:1022F00000F070FE4DF2244000F068FE032000F074
:1023000069FE4DF2254000F061FE1D2000F062FEE6
:102310004DF2264000F05AFE032000F05BFE4DF225
:10232000274000F053FE4D2000F054FE4DF22840AF
:1023300000F04CFE032000F04DFE4DF2294000F06D
:1023400045FE6A2000F046FE4DF22A4000F03EFEB7
:10235000032000F03FFE4DF22B4000F037FE9520A9
:1023600000F038FE4DF22C4000F030FE032000F06B
:1023700031FE4DF22D4000F029FEAC2000F02AFE87
:102380004DF22E4000F022FE032000F023FE4DF21D
:102390002F4000F01BFECB2000F01CFE4DF2304021
:1023A00000F014FE032000F015FE4DF2314000F065
:1023B0000DFEEA2000F00EFE4DF2324000F006FE67
:1023C000032000F007FE4DF2334000F0FFFDEF2048
:1023D00000F000FE4FF4554000F0F8FD002000F042
:1023E000F9FD4DF2015000F0F1FD012000F0F2FD89
:1023F0004DF2025000F0EAFD002000F0EBFD4DF23E
:10240000035000F0E3FD1C2000F0E4FD4DF2045009
:1024100000F0DCFD002000F0DDFD4DF2055000F085
:10242000D5FD4E2000F0D6FD4DF2065000F0CEFD59
:10243000002000F0CFFD4DF2075000F0C7FD6A20EC
:1024400000F0C8FD4DF2085000F0C0FD002000F083
:10245000C1FD4DF2095000F0B9FD852000F0BAFD34
:102460004DF20A5000F0B2FD002000F0B3FD4DF235
:102470000B5000F0ABFDAB2000F0ACFD4DF20C506A
:1024800000F0A4FD002000F0A5FD4DF20D5000F07D
:102490009DFDC42000F09EFD4DF20E5000F096FD13
:1024A000002000F097FD4DF20F5000F08FFDFC2052
:1024B00000F090FD4DF2105000F088FD012000F07A
:1024C00089FD4DF2115000F081FD232000F082FDC6
:1024D0004DF2125000F07AFD012000F07BFD4DF22C
:1024E000135000F073FD612000F074FD4DF21450A4
:1024F00000F06CFD012000F06DFD4DF2155000F074
:1025000065FD942000F066FD4DF2165000F05EFD72
:10251000012000F05FFD4DF2175000F057FDE42060
:1025200000F058FD4DF2185000F050FD022000F070
:1025300051FD4DF2195000F049FD272000F04AFDF1
:102540004DF21A5000F042FD022000F043FD4DF222
:102550001B5000F03BFD292000F03CFD4DF21C50CB
:1025600000F034FD022000F035FD4DF21D5000F06A
:102570002DFD652000F02EFD4DF21E5000F026FDD1
:10258000022000F027FD4DF21F5000F01FFDA62095
:1025900000F020FD4DF2205000F018FD022000F068
:1025A00019FD4DF2215000F011FDCA2000F012FD7E
:1025B0004DF2225000F00AFD022000F00BFD4DF21A
:1025C000235000F003FDFD2000F004FD4DF22450E7
:1025D00000F0FCFC032000F0FDFC4DF2255000F063
:1025E000F5FC1D2000F0F6FC4DF2265000F0EEFC4C
:1025F000032000F0EFFC4DF2275000F0E7FC4D20E7
:1026000000F0E8FC4DF2285000F0E0FC032000F060
:10261000E1FC4DF2295000F0D9FC6A2000F0DAFC10
:102620004DF22A5000F0D2FC032000F0D3FC4DF212
:102630002B5000F0CBFC952000F0CCFC4DF22C5040
:1026400000F0C4FC032000F0C5FC4DF22D5000F05A
:10265000BDFCAC2000F0BEFC4DF22E5000F0B6FCEC
:10266000032000F0B7FC4DF22F5000F0AFFCCB2060
:1026700000F0B0FC4DF2305000F0A8FC032000F058
:10268000A9FC4DF2315000F0A1FCEA2000F0A2FCC0
:102690004DF2325000F09AFC032000F09BFC4DF20A
:1026A000335000F093FCEF2000F094FC4FF45640C0
:1026B00000F08CFC002000F08DFC4DF2016000F079
:1026C00085FC012000F086FC4DF2026000F07EFCEB
:1026D000002000F07FFC4DF2036000F077FC1C202E
:1026E00000F078FC4DF2046000F070FC002000F077
:1026F00071FC4DF2056000F069FC4E2000F06AFCB0
:102700004DF2066000F062FC002000F063FC4DF228
:10271000076000F05BFC6A2000F05CFC4DF2086092
:1027200000F054FC002000F055FC4DF2096000F070
:102730004DFC852000F04EFC4DF20A6000F046FC96
:10274000002000F047FC4DF20B6000F03FFCAB2096
:1027500000F040FC4DF20C6000F038FC002000F06E
:1027600039FC4DF20D6000F031FCC42000F032FC69
:102770004DF20E6000F02AFC002000F02BFC4DF220
:102780000F6000F023FCFC2000F024FC4DF21060F0
:1027900000F01CFC012000F01DFC4DF2116000F067
:1027A00015FC232000F016FC4DF2126000F00EFC28
:1027B000012000F00FFC4DF2136000F007FC6120D7
:1027C00000F008FC4DF2146000F000FC012000F065
:1027D00001FC4DF2156000F0F9FB942000F0FAFBCB
:1027E0004DF2166000F0F2FB012000F0F3FB4DF219
:1027F000176000F0EBFBE42000F0ECFB4DF21860FA
:1028000000F0E4FB022000F0E5FB4DF2196000F05F
:10281000DDFB272000F0DEFB4DF21A6000F0D6FB56
:10282000022000F0D7FB4DF21B6000F0CFFB292007
:1028300000F0D0FB4DF21C6000F0C8FB022000F05D
:10284000C9FB4DF21D6000F0C1FB652000F0C2FB2A
:102850004DF21E6000F0BAFB022000F0BBFB4DF20F
:102860001F6000F0B3FBA62000F0B4FB4DF2206027
:1028700000F0ACFB022000F0ADFB4DF2216000F057
:10288000A5FBCA2000F0A6FB4DF2226000F09EFBE3
:10289000022000F09FFB4DF2236000F097FBFD202B
:1028A00000F098FB4DF2246000F090FB032000F054
:1028B00091FB4DF2256000F089FB1D2000F08AFBA2
:1028C0004DF2266000F082FB032000F083FB4DF206
:1028D000276000F07BFB4D2000F07CFB4DF2286070
:1028E00000F074FB032000F075FB4DF2296000F04E
:1028F0006DFB6A2000F06EFB4DF22A6000F066FB73
:10290000032000F067FB4DF22B6000F05FFB952089
:1029100000F060FB4DF22C6000F058FB032000F04B
:1029200059FB4DF22D6000F051FBAC2000F052FB42
:102930004DF22E6000F04AFB032000F04BFB4DF2FD
:102940002F6000F043FBCB2000F044FB4DF23060E1
:1029500000F03CFB032000F03DFB4DF2316000F045
:1029600035FBEA2000F036FB4DF2326000F02EFB22
:10297000032000F02FFB4DF2336000F027FBEF2027
:1029800000F028FB4FF4704000F020FB552000F0D1
:1029900021FB4FF2010000F019FBAA2000F01AFB06
:1029A0004FF2020000F012FB522000F013FB4FF236
:1029B000030000F00BFB082000F00CFB4FF20400BA
:1029C00000F004FB002000F005FB4FF4314000F064
:1029D000FDFACC2000F0FEFA4BF2011000F0F6FAFE
:1029E000002000F0F7FA4FF4344000F0EFFA102026
:1029F00000F0F0FA4FF4364000F0E8FA052000F05D
:102A0000E9FA4FF4374000F0E1FA702000F0E2FA02
:102A10004BF2017000F0DAFA702000F0DBFA4FF4AC
:102A2000384000F0D3FA012000F0D4FA4BF6010050
:102A300000F0CCFA052000F0CDFA4BF6020000F0D1
:102A4000C5FA052000F0C6FA4BF6030000F0BEFA06
:102A5000052000F0BFFA4FF43C4000F0B7FA022026
:102A600000F0B8FA4BF6014000F0B0FA002000F098
:102A7000B1FA4BF6024000F0A9FA002000F0AAFAE1
:102A80004FF44C4000F0A2FA032000F0A3FA4CF6F9
:102A9000014000F09BFA502000F09CFA4CF60240F6
:102AA00000F094FA502000F095FA4FF43D4000F009
:102AB0008DFA012000F08EFA4BF6015000F086FAF4
:102AC000842000F087FA4BF6025000F07FFA0720CE
:102AD00000F080FA4BF6035000F078FA312000F055
:102AE00079FA4BF6045000F071FA002000F072FA07
:102AF0004FF43E4000F06AFA012000F06BFA4BF60A
:102B0000016000F063FA842000F064FA4BF6026082
:102B100000F05CFA072000F05DFA4BF6036000F06D
:102B200055FA312000F056FA4BF6046000F04EFAE8
:102B3000002000F04FFA4FF43F4000F047FA012028
:102B400000F048FA4BF6017000F040FA842000F0E3
:102B500041FA4BF6027000F039FA072000F03AFA19
:102B60004BF6037000F032FA312000F033FA4BF6E6
:102B7000047000F02BFA002000F02CFA4FF45450AF
:102B800000F024FA002000F025FA4FF4585000F02D
:102B90001DFA002000F01EFA4FF4685000F016FAFB
:102BA000772000F017FA4FF4885000F00FFA142045
:102BB000FEF754FC4FF4245000F008FA1420FEF7FE
:102BC0004DFC4FF4585000F001FAA32000F002FA37
:102BD0004FF4685000F0FAF9552000F0FBF902209C
:102BE0000149086010BD00001008014000BFFEE769
:102BF0007047000002480068C0F3022070470000E0
:102C00000CED00E010B5002807DA0A07140E054A9B
:102C100000F00F031B1FD45403E00A07130E024AEF
:102C2000135410BD18ED00E000E400E07047000010
:102C30002DE9F05F04468A4690469B4600264FE009
:102C4000C6EBC60000EB80002749085C98F800102E
:102C5000884244D1C6EBC60000EB800022490844FC
:102C6000407898F80110884239D1002735E0C6EB4A
:102C7000C60000EB80001C490844C01C10F80790F7
:102C8000002519E009F08000802807D11FFA8BF297
:102C9000611988B25146FDF767FB08E00B9830B127
:102CA0000A998AB2611988B25146FDF75DFB4FF669
:102CB000FF7000EA49096D1C082DE3D307F00100FD
:102CC00038B10AF101001FFA80FAA4F1080084B2B9
:102CD00002E004F1080084B27F1C202FC7D3761CC9
:102CE000402EADD3BDE8F09F5CB8000808B5084998
:102CF0000968C9084FF47A72B1FBF2F141430091BF
:102D000000BF00BF00994A1E00920029F9D108BDFA
:102D1000000000200249096801F4004070470000EB
:102D2000080C01402DE9F84F05468846164699469D
:102D3000DDF828B0A6F12000C6B2300100900027CF
:102D400026E000983844144911F800A0002418E047
:102D50000AF0800038B11FFA89F2291988B2414679
:102D6000FDF702FB08E00B9830B11FFA8BF229192E
:102D700088B24146FDF7F8FA4FEA4A604FEA106A16
:102D8000641C082CE4D308F101001FFA80F87F1CB2
:102D9000102FD6D3BDE8F88F5CB20008704710B58D
:102DA000FDF768FD10BD00B58FB014210AA8FDF72E
:102DB0002DFA28216846FDF729FA01200090000429
:102DC00001900020029002200790C10308914FF467
:102DD000E01109916846FDF7C5FE08B100BFFEE7A6
:102DE0000F200A9002200B9000200C900E904FF4C0
:102DF00080600D9002210AA8FDF796FD08B100BF82
:102E0000FEE70FB000BD00001148006840F001006F
:102E10000F490860084640680E4908400C49486060
:102E2000084600680C4908400949086008460068DF
:102E300020F4802008600846406820F4FE004860C6
:102E40004FF41F008860C803044908607047000001
:102E5000001002400000FFF8FFFFF6FE08ED00E062
:102E600000B585B000BF1848806940F008001649D9
:102E700088610846806900F00800009000BF00BF2C
:102E8000012002900390032004904FF40050019021
:102E900001A90E48FDF740FB11200290012003908C
:102EA000032004904FF40040019001A90748FDF76A
:102EB00033FB4FF400500549103108608000086072
:102EC000FEF77AF905B000BD00100240000C014089
:102ED000F8B50026002520213A48FDF7EEFA3948DA
:102EE000807800F00F04012C00DAF8BD002464E0C3
:102EF00004EB44004000801D3249095C04EB4400AF
:102F00004000401D2F4A105C00F00F0041EA0026EF
:102F100004EB44004000001D1146095C04EB440032
:102F20004000C01C105C00F00F0041EA0025052C99
:102F30003FD2DFE804F0030F1B2632004FF4784045
:102F40000090C5F5F07081B202231A463046FEF7B4
:102F5000DBFA2FE04FF4FC600090C5F5F07081B211
:102F600002231A463046FEF7CFFA23E01F200090D6
:102F7000C5F5F07081B202231A463046FEF7C4FA56
:102F800018E04FF6E0700090C5F5F07081B20223B2
:102F90001A463046FEF7B8FA0CE04FF61F000090D4
:102FA000C5F5F07081B202231A463046FEF7ACFA3E
:102FB00000E000BF00BF601CC4B2052C98DB00BF5E
:102FC00093E700000800002000BFFEE74FF0C0417B
:102FD00008807047014908807047000000000260C7
:102FE0002DE9F04105460C461646601D82B20023CD
:102FF00021462846FEF76BFA04F1140082B2401F06
:1030000081B200232846FEF762FA05F11C0081B266
:10301000002322462846FEF73EFA04F1140082B24D
:1030200005F11C0081B200232846FEF734FA611D29
:103030008AB205F11C0188B200232146FEF747FA47
:1030400004F114039AB25B1F99B205F11C0398B204
:103050000023FEF73CFA631D9AB205F11F0399B2F3
:10306000DB1E98B20023FEF716FA04F10F039AB2A2
:1030700005F11F0399B2DB1E98B20023FEF70BFA8D
:1030800004F10F039AB2631D99B205F11F0398B2C0
:103090000023FEF71CFA4FF0000815E004F11103BD
:1030A000E21CE91DE81CFDF714F9002704E00020EC
:1030B000FFF790FF781CC7B25A2FF8DBA81D85B226
:1030C00008F1010000F0FF08B045E7DBBDE8F08142
:1030D0001CB5FFF768FEFEF737FAFFF7C1FE1F20A9
:1030E0004FF4F0734FF44872002100900846FEF749
:1030F0000BFA03220A2140F2EE20FFF771FF344859
:1031000080231A46A02100904FF49670FEF7CAF86B
:1031100001204FF478414FF6E0732EA2CDE9001064
:1031200014213220FEF756F900204FF478414FF673
:10313000E0732EA2CDE9001028213220FEF74AF9D3
:1031400000204FF478414FF6E0732EA2CDE9001035
:103150003C213220FEF73EF900204FF478414FF633
:10316000E0732DA2CDE9001050213220FEF732F994
:1031700000204FF478414FF6E0732BA2CDE9001008
:1031800078213220FEF726F94FF6E07014231A4614
:1031900096210090C820FEF7B7F94FF6E07014238F
:1031A0001A4678210090FA20FEF7AEF90FE0FFF7FB
:1031B0008FFE01212248FDF74FFB40B100204FF464
:1031C000F0734FF4487201460090FEF79DF9EEE768
:1031D0005C320008BAC3EED2C8F3207777772E6846
:1031E0006A726B6A2E636F6D20000000342E3369A3
:1031F0006E636820544B3034334631353039204CBF
:103200004344000054454C3A20303735352D323197
:10321000303036313530000048656C6C6F20776F88
:10322000726C6421000000004C43442050617261C4
:103230006C6C656C206D6F64652073686F7700003F
:10324000000801400000000000000000010203042B
:10325000060708090000000001020304FFFFFFFF4A
:10326000FFFFFFFFFFFFFFFFFFFFFFFFFFFFFFFF6E
:10327000FFFFFFFFFFFFFFFFFFFFFFFFFFFFFFFF5E
:10328000FFFFFFFFFFFFFFFFFFFFFFFFFFFFFFFF4E
:10329000FFFFFFFFFFFFFFFFFFFFFFFFFFFFFFFF3E
:1036C000FFFFFFFFFFFFFFFFDFFFBEF7BEF79EF725
:1036D0007DEF9EF7BEF79EF79EF79EF79EF79EF74B
:1036E0009EF7BEF79EF77DEF9EF7BEF7BEF7DFFFB2
:1036F000FFFFFFFFFFFFFFFFFFFFFFFFFFFFFFFFDA
:10370000FFFFFFFFFFFFFFFFFFFFFFFFFFFFFFFFC9
:10371000FFFFFFFFFFFFFFFFFFFFFFFFFFFFFFFFB9
:10372000FFFFFFFFFFFFFFFFFFFFFFFFFFFFFFFFA9
:10373000FFFFFFFFFFFFFFFFFFFFFFFFFFFFFFFF99
:10374000FFFFFFFFFFFFFFFFFFFFFFFFFFFFFFFF89
:10375000FFFFFFFFFFFFFFFFFFFFFFFFFFFFFFFF79
:10376000FFFFFFFFFFFFFFFFFFFFFFFFFFFFFFFF69
:10377000FFFFFFFFFFFFFFFFFFFFFFFFFFFFFFFF59
:10378000FFFFFFFFFFFFFFFFFFFFFFFFFFFFFFFF49
:10379000FFFFFFFFFFFFFFFFFFFFFFFFFFFFFFFF39
:1037A000FFFFFFFFFFFFFFFFFFFFFFFFFFFFFFFF29
:1037B000FFFFFFFFFFFFFFFFFFFFFFFFFFFFFFFF19
:1037C000BEF79EF79EF79EF79EF79EF7BEF7BEF7F1
:1037D000BEF7DFFFFFFFFFFFFFFFFFFFFFFFFFFF62
:1037E000FFFFFFFFDFFFBEF7BEF7BEF77DEF9EF7DF
:1037F0009EF79EF79EF7BEF7FFFFFFFFFFFFFFFF5D
:10380000FFFFFFFFFFFFFFFFFFFFFFFFFFFFFFFFC8
:10381000FFFFFFFFFFFFFFFFFFFFFFFFFFFFFFFFB8
:10382000FFFFFFFFFFFFFFFFFFFFFFFFFFFFFFFFA8
:10383000FFFFFFFFFFFFFFFFFFFFFFFFFFFFFFFF98
:10384000FFFFFFFFFFFFFFFFFFFFFFFFFFFFFFFF88
:10385000FFFFFFFFFFFFFFFFFFFFFFFFFFFFFFFF78
:10386000FFFFFFFFFFFFFFFFFFFFFFFFFFFFFFFF68
:10387000FFFFFFFFFFFFFFFFFFFFFFFFFFFFFFFF58
:10388000FFFFFFFFFFFFFFFFFFFFFFFFFFFFFFFF48
:10389000FFFFFFFFFFFFFFFFFFFFFFFFFFFFFFFF38
:1038A000FFFFFFFFFFFFFFFFFFFFFFFFFFFFFFFF28
:1038B000FFFFFFFFFFFFFFFFBEF79EF79EF77DEFC5
:1038C0009EF7BEF7DFFFFFFFFFFFFFFFFFFFFFFFDA
:1038D000FFFFFFFFFFFFFFFFFFFFFFFFFFFFFFFFF8
:1038E000FFFFFFFFFFFFFFFFFFFFFFFFFFFFFFFFE8
:1038F000FFFFDFFFBEF79EF79EF79EF79EF7BEF72E
:10390000FFFFFFFFFFFFFFFFFFFFFFFFFFFFFFFFC7
:10391000FFFFFFFFFFFFFFFFFFFFFFFFFFFFFFFFB7
:10392000FFFFFFFFFFFFFFFFFFFFFFFFFFFFFFFFA7
:10393000FFFFFFFFFFFFFFFFFFFFFFFFFFFFFFFF97
:10394000FFFFFFFFFFFFFFFFFFFFFFFFFFFFFFFF87
:10395000FFFFFFFFFFFFFFFFFFFFFFFFFFFFFFFF77
:10396000FFFFFFFFFFFFFFFFFFFFFFFFFFFFFFFF67
:10397000FFFFFFFFFFFFFFFFFFFFFFFFFFFFFFFF57
:10398000FFFFFFFFFFFFFFFFFFFFFFFFFFFFFFFF47
:10399000FFFFFFFFFFFFFFFFFFFFFFFFFFFFFFFF37
:1039A000FFFFFFFFFFFFFFFFFFFFFFFFFFFFFFFF27
:1039B000FFFFBEF79EF79EF79EF7BEF7DFFFFFFF04
:1039C000FFFFFFFFFFFFFFFFFFFFFFFFFFFFFFFF07
:1039D000FFFFFFFFFFFFFFFFFFFFFFFFFFFFFFFFF7
:1039E000FFFFFFFFFFFFFFFFFFFFFFFFFFFFFFFFE7
:1039F000FFFFFFFFFFFFFFFFFFFFDFFFBEF79EF7A9
:103A00009EF79EF7BEF7FFFFFFFFFFFFFFFFFFFFE1
:103A1000FFFFFFFFFFFFFFFFFFFFFFFFFFFFFFFFB6
:103A2000FFFFFFFFFFFFFFFFFFFFFFFFFFFFFFFFA6
:103A3000FFFFFFFFFFFFFFFFFFFFFFFFFFFFFFFF96
:103A4000FFFFFFFFFFFFFFFFFFFFFFFFFFFFFFFF86
:103A5000FFFFFFFFFFFFFFFFFFFFFFFFFFFFFFFF76
:103A6000FFFFFFFFFFFFFFFFFFFFFFFFFFFFFFFF66
:103A7000FFFFFFFFFFFFFFFFFFFFFFFFFFFFFFFF56
:103A8000FFFFFFFFFFFFFFFFFFFFFFFFFFFFFFFF46
:103A9000FFFFFFFFFFFFFFFFFFFFFFFFFFFFFFFF36
:103AA000FFFFFFFFFFFFFFFFFFFFFFFFFFFFBEF76F
:103AB0009EF79EF7BEF7FFFFFFFFFFFFFFFFFFFF31
:103AC000FFFFFFFFFFFFFFFFFFFFFFFFFFFFFFFF06
:103AD000FFFFFFFFFFFFFFFFFFFFFFFFFFFFFFFFF6
:103AE000FFFFFFFFFFFFFFFFFFFFFFFFFFFFFFFFE6
:103AF000FFFFFFFFFFFFFFFFFFFFFFFFFFFFFFFFD6
:103B0000FFFFBEF79EF79EF7BEF7FFFFFFFFFFFF29
:103B1000FFFFFFFFFFFFFFFFFFFFFFFFFFFFFFFFB5
:103B2000FFFFFFFFFFFFFFFFFFFFFFFFFFFFFFFFA5
:103B3000FFFFFFFFFFFFFFFFFFFFFFFFFFFFFFFF95
:103B4000FFFFFFFFFFFFFFFFFFFFFFFFFFFFFFFF85
:103B5000FFFFFFFFFFFFFFFFFFFFFFFFFFFFFFFF75
:103B6000FFFFFFFFFFFFFFFFFFFFFFFFFFFFFFFF65
:103B7000FFFFFFFFFFFFFFFFFFFFFFFFFFFFFFFF55
:103B8000FFFFFFFFFFFFFFFFFFFFFFFFFFFFFFFF45
:103B9000FFFFFFFFFFFFFFFFFFFFFFFFFFFFFFFF35
:103BA000FFFFFFFFFFFFFFFFDFFF9EF77DEF9EF7A9
:103BB000DFFFFFFFFFFFFFFFFFFFFFFFFFFFFFFF35
:103BC000FFFFFFFFFFFFFFFFFFFFFFFFFFFFFFFF05
:103BD000FFFFDFFFDFFFDFFFDFF7BEF7BEF7DFF737
:103BE000DFFFDFFFFFFFFFFFFFFFFFFFFFFFFFFF25
:103BF000FFFFFFFFFFFFFFFFFFFFFFFFFFFFFFFFD5
:103C0000FFFFFFFFFFFFDFFF9EF79EF79EF7DFFF3F
:103C1000FFFFFFFFFFFFFFFFFFFFFFFFFFFFFFFFB4
:103C2000FFFFFFFFFFFFFFFFFFFFFFFFFFFFFFFFA4
:103C3000FFFFFFFFFFFFFFFFFFFFFFFFFFFFFFFF94
:103C4000FFFFFFFFFFFFFFFFFFFFFFFFFFFFFFFF84
:103C5000FFFFFFFFFFFFFFFFFFFFFFFFFFFFFFFF74
:103C6000FFFFFFFFFFFFFFFFFFFFFFFFFFFFFFFF64
:103C7000FFFFFFFFFFFFFFFFFFFFFFFFFFFFFFFF54
:103C8000FFFFFFFFFFFFFFFFFFFFFFFFFFFFFFFF44
:103C9000FFFFFFFFFFFFFFFFFFFFFFFFFFFFFFFF34
:103CA000FFFFFFFFDFFF9EF79EF7BEF7FFFFFFFF5F
:103CB000FFFFFFFFFFFFFFFFFFFFFFFFFFFFFFFF14
:103CC000FFFFFFFFFFFFDFF79EF73CE7FBDE99D624
:103CD00038CEF7C5B6C596BD75BD75BD75BD75BD8C
:103CE00096BDB6BDF7C538CE79D6FBDE3CE79EF76C
:103CF000DFF7FFFFFFFFFFFFFFFFFFFFFFFFFFFFFC
:103D0000FFFFFFFFFFFFFFFFFFFFFFFFBEF79EF775
:103D10009EF7DFFFFFFFFFFFFFFFFFFFFFFFFFFF3C
:103D2000FFFFFFFFFFFFFFFFFFFFFFFFFFFFFFFFA3
:103D3000FFFFFFFFFFFFFFFFFFFFFFFFFFFFFFFF93
:103D4000FFFFFFFFFFFFFFFFFFFFFFFFFFFFFFFF83
:103D5000FFFFFFFFFFFFFFFFFFFFFFFFFFFFFFFF73
:103D6000FFFFFFFFFFFFFFFFFFFFFFFFFFFFFFFF63
:103D7000FFFFFFFFFFFFFFFFFFFFFFFFFFFFFFFF53
:103D8000FFFFFFFFFFFFFFFFFFFFFFFFFFFFFFFF43
:103D9000FFFFFFFFFFFFFFFFFFFFFFFFFFFFFFFF33
:103DA000FFFF9EF79EF7BEF7FFFFFFFFFFFFFFFF3E
:103DB000FFFFFFFFFFFFFFFFFFFFFFFFFFFFBEF75C
:103DC0005DEFDBDE18CE96BD14B5D2ACB2ACB2ACB2
:103DD000D3B4F3B434BD54BD55BD75C555C555BD3B
:103DE00034BD14BDF3B4B2AC92AC92ACB2AC14B569
:103DF00075BD18CEDBDE5DEFBEF7FFFFFFFFFFFFF7
:103E0000FFFFFFFFFFFFFFFFFFFFFFFFFFFFFFFFC2
:103E1000BEF77DEF9EF7FFFFFFFFFFFFFFFFFFFFF6
:103E2000FFFFFFFFFFFFFFFFFFFFFFFFFFFFFFFFA2
:103E3000FFFFFFFFFFFFFFFFFFFFFFFFFFFFFFFF92
:103E4000FFFFFFFFFFFFFFFFFFFFFFFFFFFFFFFF82
:103E5000FFFFFFFFFFFFFFFFFFFFFFFFFFFFFFFF72
:103E6000FFFFFFFFFFFFFFFFFFFFFFFFFFFFFFFF62
:103E7000FFFFFFFFFFFFFFFFFFFFFFFFFFFFFFFF52
:103E8000FFFFFFFFFFFFFFFFFFFFFFFFFFFFFFFF42
:103E9000FFFFFFFFFFFFFFFFFFFFFFFFFFFFBEF77B
:103EA0007DEFBEF7FFFFFFFFFFFFFFFFFFFFFFFFFD
:103EB000FFFFFFFFFFFFFFFFBEF71CE759CE95BDD9
:103EC000F3ACB2ACF3B455BDD7CD58D6BADEFBE6F1
:103ED0003CEF5DEF7DF77DF79EF79EF79EF77DF750
:103EE0007DF77DF75DEF1CEFDBE699DE18D696C512
:103EF00014BDB2AC91A4D2AC75BD59CE1CE7BEF7CF
:103F0000FFFFFFFFFFFFFFFFFFFFFFFFFFFFFFFFC1
:103F1000FFFFFFFF9EF77DEFBEF7FFFFFFFFFFFFF5
:103F2000FFFFFFFFFFFFFFFFFFFFFFFFFFFFFFFFA1
:103F3000FFFFFFFFFFFFFFFFFFFFFFFFFFFFFFFF91
:103F4000FFFFFFFFFFFFFFFFFFFFFFFFFFFFFFFF81
:103F5000FFFFFFFFFFFFFFFFFFFFFFFFFFFFFFFF71
:103F6000FFFFFFFFFFFFFFFFFFFFFFFFFFFFFFFF61
:103F7000FFFFFFFFFFFFFFFFFFFFFFFFFFFFFFFF51
:103F8000FFFFFFFFFFFFFFFFFFFFFFFFFFFFFFFF41
:103F9000FFFFFFFFFFFFFFFFFFFFBEF77DEF9EF775
:103FA000FFFFFFFFFFFFFFFFFFFFFFFFFFFFFFFF21
:103FB000FFFFDFFF5DEF59D675BDD3ACD3B455C558
:103FC00018D6BAE63CEF7DF7BEF7BEF7BEF7BEF7F0
:103FD0009EF79EF79EF77DEF7DEF7DEF7DEF7DEF06
:103FE0007DEF9EF79EF79EF7BEF7BEF7BEF79EF7F2
:103FF0005DEF1BE779DED6CD13B571AC92A455B554
:1040000059CE5DEFDFFFFFFFFFFFFFFFFFFFFFFF69
:10401000FFFFFFFFFFFFDFFF9EF77DEFDFFFFFFFEB
:10402000FFFFFFFFFFFFFFFFFFFFFFFFFFFFFFFFA0
:10403000FFFFFFFFFFFFFFFFFFFFFFFFFFFFFFFF90
:10404000FFFFFFFFFFFFFFFFFFFFFFFFFFFFFFFF80
:10405000FFFFFFFFFFFFFFFFFFFFFFFFFFFFFFFF70
:10406000FFFFFFFFFFFFFFFFFFFFFFFFFFFFFFFF60
:10407000FFFFFFFFFFFFFFFFFFFFFFFFFFFFFFFF50
:10408000FFFFFFFFFFFFFFFFFFFFFFFFFFFFFFFF40
:10409000FFFFFFFFFFFFFFFF9EF77DEFDFFFFFFF4B
:1040A000FFFFFFFFFFFFFFFFFFFFFFFFFFFFBEF769
:1040B000FBDED7C5F3B4D3B475C559D61CEF7DF775
:1040C000BEF7BEF7BEF79EF77DEF5DEF5DEF3CE715
:1040D0003CE73CE71CE71CE71CE71CE71CE71CE788
:1040E0001CE73CE73CE73CE73CE73CE75DEF7DEF66
:1040F0007DEF9EF79EF79EF75DEFBAE6F7CDF3B43E
:1041000071A4B2ACD6C5FBDEBEF7FFFFFFFFFFFF19
:10411000FFFFFFFFFFFFFFFFFFFFBEF77DEF9EF7F3
:10412000FFFFFFFFFFFFFFFFFFFFFFFFFFFFFFFF9F
:10413000FFFFFFFFFFFFFFFFFFFFFFFFFFFFFFFF8F
:10414000FFFFFFFFFFFFFFFFFFFFFFFFFFFFFFFF7F
:10415000FFFFFFFFFFFFFFFFFFFFFFFFFFFFFFFF6F
:10416000FFFFFFFFFFFFFFFFFFFFFFFFFFFFFFFF5F
:10417000FFFFFFFFFFFFFFFFFFFFFFFFFFFFFFFF4F
:10418000FFFFFFFFFFFFFFFFFFFFFFFFFFFFFFFF3F
:10419000FFFFFFFFDFFF7DEF9EF7FFFFFFFFFFFF4A
:1041A000FFFFFFFFFFFFFFFFFFFFBEF7DBDE96BD58
:1041B000D3AC14BD17D6FBE67DF7BEF7BEF79EF76E
:1041C0007DEF5DEF3CE73CE71CE71CE71CE71CE7E5
:1041D0001CE71CE71CE71CE71CE71CE71CE71CE7C7
:1041E0001CE71CE71CE71CE71CE71CE71CE71CE7B7
:1041F0003CE73CE75DEF5DEF7DEF9EF79EF73CEF20
:1042000099DE75C591AC71A475BDDBDEBEF7FFFF0D
:10421000FFFFFFFFFFFFFFFFFFFFFFFFFFFF9EF717
:104220007DEFDFFFFFFFFFFFFFFFFFFFFFFFFFFF50
:10423000FFFFFFFFFFFFFFFFFFFFFFFFFFFFFFFF8E
:10424000FFFFFFFFFFFFFFFFFFFFFFFFFFFFFFFF7E
:10425000FFFFFFFFFFFFFFFFFFFFFFFFFFFFFFFF6E
:10426000FFFFFFFFFFFFFFFFFFFFFFFFFFFFFFFF5E
:10427000FFFFFFFFFFFFFFFFFFFFFFFFFFFFFFFF4E
:10428000FFFFFFFFFFFFFFFFFFFFFFFFFFFFFFFF3E
:10429000FFFFBEF77DEFBEF7FFFFFFFFFFFFFFFF52
:1042A000FFFFFFFFFFFFBEF7FBDE96BDD2AC34BDC4
:1042B00059DE3CEFBEF7BEF79EF75DEF3CE73CE70B
:1042C0001CE71CE71CE71CE71CE71CE71CE71CE7D6
:1042D0001CE71CE71CE71CE73CE796DDD8E53CE75C
:1042E0001CE71CE71CE71CE71CE71CE71CE71CE7B6
:1042F0001CE71CE71CE71CE73CE73CE75DEF7DEFB4
:104300009EF75DEFDBE6B6C592AC51A475BDFBDE52
:10431000BEF7FFFFFFFFFFFFFFFFFFFFFFFFFFFFF6
:10432000BEF77DEFBEF7FFFFFFFFFFFFFFFFFFFFC1
:10433000FFFFFFFFFFFFFFFFFFFFFFFFFFFFFFFF8D
:10434000FFFFFFFFFFFFFFFFFFFFFFFFFFFFFFFF7D
:10435000FFFFFFFFFFFFFFFFFFFFFFFFFFFFFFFF6D
:10436000FFFFFFFFFFFFFFFFFFFFFFFFFFFFFFFF5D
:10437000FFFFFFFFFFFFFFFFFFFFFFFFFFFFFFFF4D
:10438000FFFFFFFFFFFFFFFFFFFFFFFFFFFFFFFF3D
:104390009EF77DEFDFFFFFFFFFFFFFFFFFFFFFFF48
:1043A000FFFFDFFF3CE7D7C5D3AC34BD79DE5DF757
:1043B000BEF7BEF77DEF5DEF3CE71CE71CE71CE7AF
:1043C0001CE71CE71CE71CE71CE71CE71CE71CE7D5
:1043D0001CE71CE71CE73CE7F8DD89D1F1E33CE78B
:1043E0001CE71CE71CE71CE71CE71CE71CE71CE7B5
:1043F0001CE71CE71CE71CE71CE71CE71CE73CE785
:104400003CE75DEF7DEF5DEFDBE6B6C571A471A41F
:10441000D7C53CE7DFFFFFFFFFFFFFFFFFFFFFFF09
:10442000FFFFDFFF7DEF9EF7FFFFFFFFFFFFFFFFB7
:10443000FFFFFFFFFFFFFFFFFFFFFFFFFFFFFFFF8C
:10444000FFFFFFFFFFFFFFFFFFFFFFFFFFFFFFFF7C
:10445000FFFFFFFFFFFFFFFFFFFFFFFFFFFFFFFF6C
:10446000FFFFFFFFFFFFFFFFFFFFFFFFFFFFFFFF5C
:10447000FFFFFFFFFFFFFFFFFFFFFFFFFFFFFFFF4C
:10448000FFFFFFFFFFFFFFFFFFFFFFFFFFFF9EF7A5
:104490009EF7FFFFFFFFFFFFFFFFFFFFFFFFFFFF95
:1044A0009EF779D613B5F3B438D65DEFBEF7BEF7F5
:1044B0007DEF3CE71CE71CE71CE71CE71CE71CE75B
:1044C0001CE71CE71CE71CE71CE71CE71CE71CE7D4
:1044D0001CE71CE73CE77AE64BD244D0EDDA1CE758
:1044E0001CE71CE71CE71CE71CE71CE71CE71CE7B4
:1044F0001CE71CE71CE71CE71CE71CE71CE71CE7A4
:104500001CE71CE73CE75DEF7DEF5DEFBADE75BDB4
:1045100030A4B2A479D69EF7FFFFFFFFFFFFFFFF95
:10452000FFFFFFFFFFFF9EF79EF7FFFFFFFFFFFF6D
:10453000FFFFFFFFFFFFFFFFFFFFFFFFFFFFFFFF8B
:10454000FFFFFFFFFFFFFFFFFFFFFFFFFFFFFFFF7B
:10455000FFFFFFFFFFFFFFFFFFFFFFFFFFFFFFFF6B
:10456000FFFFFFFFFFFFFFFFFFFFFFFFFFFFFFFF5B
:10457000FFFFFFFFFFFFFFFFFFFFFFFFFFFFFFFF4B
:10458000FFFFFFFFFFFFFFFFFFFFFFFF7DEF9EF736
:10459000FFFFFFFFFFFFFFFFFFFFFFFFDFFF3CE726
:1045A00096BDD3B4D6CD1CEFBEF7BEF77DEF3CE78A
:1045B0001CE71CE71CE71CE71CE71CE71CE71CE7E3
:1045C0001CE71CE71CE71CE71CE71CE71CE71CE7D3
:1045D0001CE73CE7DBE62EDBA5D085D00ADADBE67C
:1045E0001CE71CE71CE71CE71CE71CE71CE71CE7B3
:1045F0001CE71CE71CE71CE71CE71CE71CE71CE7A3
:104600001CE71CE71CE71CE73CE75DEF7DEF3CEF98
:1046100059D6D3AC109C75B53CE7DFFFFFFFFFFF19
:10462000FFFFFFFFFFFFFFFF9EF77DEFFFFFFFFF95
:10463000FFFFFFFFFFFFFFFFFFFFFFFFFFFFFFFF8A
:10464000FFFFFFFFFFFFFFFFFFFFFFFFFFFFFFFF7A
:10465000FFFFFFFFFFFFFFFFFFFFFFFFFFFFFFFF6A
:10466000FFFFFFFFFFFFFFFFFFFFFFFFFFFFFFFF5A
:10467000FFFFFFFFFFFFFFFFFFFFFFFFFFFFFFFF4A
:10468000FFFFFFFFFFFFFFFFDFFF7DEFBEF7FFFF35
:10469000FFFFFFFFFFFFFFFFFFFFBEF79AD614B536
:1046A00014BD9ADE9EF7BEF77DEF3CE71CE71CE7E2
:1046B0001CE71CE71CE71CE71CE71CE71CE71CE7E2
:1046C0001CE71CE71CE71CE71CE71CE71CE71CE7D2
:1046D0003CE71CE7F1DBE6D0C6D0A6D048D118E60F
:1046E0003CE71CE71CE71CE71CE71CE71CE71CE792
:1046F0001CE71CE71CE71CE71CE71CE71CE71CE7A2
:104700001CE71CE71CE71CE71CE71CE73CE75DEF28
:104710005DEFDBE696C5309C92A49AD6BEF7FFFF0C
:10472000FFFFFFFFFFFFFFFFFFFF9EF77DEFFFFF94
:10473000FFFFFFFFFFFFFFFFFFFFFFFFFFFFFFFF89
:10474000FFFFFFFFFFFFFFFFFFFFFFFFFFFFFFFF79
:10475000FFFFFFFFFFFFFFFFFFFFFFFFFFFFFFFF69
:10476000FFFFFFFFFFFFFFFFFFFFFFFFFFFFFFFF59
:10477000FFFFFFFFFFFFFFFFFFFFFFFFFFFFFFFF49
:10478000FFFFFFFFFFFFDFFF7DEFBEF7FFFFFFFF34
:10479000FFFFFFFFFFFFFFFF7DEF18CED3ACB6CDCD
:1047A0001CEFBEF79EF75DEF3CE71CE71CE71CE73C
:1047B0001CE71CE71CE71CE71CE71CE71CE71CE7E1
:1047C0001CE71CE71CE71CE71CE71CE71CE71CE7D1
:1047D0001CE7B3DC68D107D1E6D0E6D0E6D036E5F9
:1047E0003CE73CE71CE71CE71CE71CE71CE71CE771
:1047F0001CE71CE71CE71CE71CE71CE71CE71CE7A1
:104800001CE71CE71CE71CE71CE71CE71CE71CE790
:104810003CE75DEF1CE738CE92AC309CF7C59EF7C5
:10482000FFFFFFFFFFFFFFFFFFFFFFFF9EF77DEF93
:10483000DFFFFFFFFFFFFFFFFFFFFFFFFFFFFFFFA8
:10484000FFFFFFFFFFFFFFFFFFFFFFFFFFFFFFFF78
:10485000FFFFFFFFFFFFFFFFFFFFFFFFFFFFFFFF68
:10486000FFFFFFFFFFFFFFFFFFFFFFFFFFFFFFFF58
:10487000FFFFFFFFFFFFFFFFFFFFFFFFFFFFFFFF48
:10488000FFFFFFFFDFFF7DEFBEF7FFFFFFFFFFFF33
:10489000FFFFFFFFFFFF5DEF96BDD3B438D67DF776
:1048A000BEF77DEF3CE71CE71CE71CE71CE71CE7B5
:1048B0001CE71CE71CE71CE71CE71CE71CE71CE7E0
:1048C0001CE71CE71CE71CE71CE71CE73CE73CE790
:1048D00056DDC9D147D127D127D107D1E6D0D1DBC9
:1048E0001CE7FBE61CE73CE73CE73CE73CE73CE732
:1048F0003CE73CE73CE71CE71CE71CE71CE71CE740
:104900001CE71CE71CE71CE71CE71CE71CE71CE78F
:104910001CE73CE73CE73CEF9ADE13B5EF9375B537
:104920005DEFFFFFFFFFFFFFFFFFFFFFFFFF9EF7B2
:104930007DEFFFFFFFFFFFFFFFFFFFFFFFFFFFFF19
:10494000FFFFFFFFFFFFFFFFFFFFFFFFFFFFFFFF77
:10495000FFFFFFFFFFFFFFFFFFFFFFFFFFFFFFFF67
:10496000FFFFFFFFFFFFFFFFFFFFFFFFFFFFFFFF57
:10497000FFFFFFFFFFFFFFFFFFFFFFFFFFFFFFFF47
:10498000FFFFFFFF7DEF9EF7FFFFFFFFFFFFFFFF32
:10499000FFFFDFFF1CE755BD14BD9ADE9EF7BEF793
:1049A0005DEF3CE71CE71CE71CE71CE71CE71CE786
:1049B0001CE71CE71CE71CE71CE71CE71CE71CE7DF
:1049C0001CE71CE73CE73CE73CE73CE73CE718E634
:1049D0006BDA68D168D148D147D127D107D1A9D1A5
:1049E0008CD2ADD22FD312DC73DC56DDF8DDDBE6E2
:1049F0003CE75CE73CE73CE73CE71CE71CE71CE7DF
:104A00001CE71CE71CE71CE71CE71CE71CE71CE78E
:104A10001CE71CE71CE73CE73CE7DBDE75BDEF9BD2
:104A200013AD3CE7FFFFFFFFFFFFFFFFFFFFFFFFAF
:104A30009EF77DEFFFFFFFFFFFFFFFFFFFFFFFFF81
:104A4000FFFFFFFFFFFFFFFFFFFFFFFFFFFFFFFF76
:104A5000FFFFFFFFFFFFFFFFFFFFFFFFFFFFFFFF66
:104A6000FFFFFFFFFFFFFFFFFFFFFFFFFFFFFFFF56
:104A7000FFFFFFFFFFFFFFFFFFFFFFFFFFFFFFFF46
:104A8000FFFF7DEF9EF7FFFFFFFFFFFFFFFFFFFF31
:104A9000DFFFFBE634B534BDFBE6BEF79EF75CEF07
:104AA0001CE71CE71CE71CE71CE71CE71CE71CE7EE
:104AB0001CE71CE71CE71CE71CE71CE71CE73CE7BE
:104AC0003CE73CE73CE73CE73CE73CE779E60EDBCC
:104AD000A9D1A9D189D168D168D148D128D107D12C
:104AE000E7C8C7C8C6C8A6C8A6C8C7C808C9EBC90A
:104AF0004FD3B4DCF8DDFBE63CE73CE73CE71CE7E2
:104B00001CE71CE71CE71CE71CE71CE71CE71CE78D
:104B10001CE71CE71CE71CE73CE73CE7FBE6B6C5E7
:104B2000EF9BB2A4FBE6DFFFFFFFFFFFFFFFFFFFEE
:104B3000FFFF9EF77DEFFFFFFFFFFFFFFFFFFFFF80
:104B4000FFFFFFFFFFFFFFFFFFFFFFFFFFFFFFFF75
:104B5000FFFFFFFFFFFFFFFFFFFFFFFFFFFFFFFF65
:104B6000FFFFFFFFFFFFFFFFFFFFFFFFFFFFFFFF55
:104B7000FFFFFFFFFFFFFFFFFFFFFFFFFFFFFFFF45
:104B80009EF77DEFFFFFFFFFFFFFFFFFFFFFDFFF50
:104B9000FBDE14B555C51CEFBEF77DEF3CE71CE707
:104BA0001CE71CE71CE71CE71CE71CE71CE71CE7ED
:104BB0001CE71CE71CE71CE71CE71CE73CE73CE79D
:104BC0003CE73CE73CE73CE73CE7DBE6B0DBEAD927
:104BD000EAD1C9D1A9D1A9D189D168D148D148D1C7
:104BE00028C907C907C9E7C8C7C8C7C8A7C886C8AA
:104BF00066C086C008C98DCA94DC59E63CE73CE72C
:104C00003CE73CE73CE73CE71CE71CE71CE71CE70C
:104C10001CE71CE71CE71CE71CE71CE73CE7FBE67E
:104C2000D7C50F9C91A4FBDEDFFFFFFFFFFFFFFF57
:104C3000FFFFFFFF9EF79EF7FFFFFFFFFFFFFFFF56
:104C4000FFFFFFFFFFFFFFFFFFFFFFFFFFFFFFFF74
:104C5000FFFFFFFFFFFFFFFFFFFFFFFFFFFFFFFF64
:104C6000FFFFFFFFFFFFFFFFFFFFFFFFFFFFFFFF54
:104C7000FFFFFFFFFFFFFFFFFFFFFFFFFFFF9EF7AD
:104C80007DEFFFFFFFFFFFFFFFFFFFFFDFFFFBE603
:104C900014B575C53CEFBEF77DEF3CE71CE71CE79C
:104CA0001CE71CE71CE71CE71CE71CE71CE71CE7EC
:104CB0001CE71CE71CE73CE73CE73CE73CE73CE73C
:104CC0003CE73CE73CE73CE7FBE672DC4BDA2ADA00
:104CD0000AD2EAD1EAD1C9D1A9D189D189D168D181
:104CE00048C928C928C908C9E7C8E7C8C7C8C7C884
:104CF000A7C087C087C066C067C06AC1B1D3F8DDEE
:104D00003CE73CE73CE73CE73CE73CE71CE71CE7CB
:104D10001CE71CE71CE71CE71CE71CE71CE73CE75B
:104D20001CE7F7C5EF9B91A4FBE6FFFFFFFFFFFF2A
:104D3000FFFFFFFFFFFF7DEF9EF7FFFFFFFFFFFF7E
:104D4000FFFFFFFFFFFFFFFFFFFFFFFFFFFFFFFF73
:104D5000FFFFFFFFFFFFFFFFFFFFFFFFFFFFFFFF63
:104D6000FFFFFFFFFFFFFFFFFFFFFFFFFFFFFFFF53
:104D7000FFFFFFFFFFFFFFFFFFFFFFFFBEF77DEF1E
:104D8000DFFFFFFFFFFFFFFFFFFFFFFF1CE734B563
:104D900075C53CEFBEF77DEF3CE71CE71CE71CE761
:104DA0001CE71CE71CE71CE71CE71CE71CE71CE7EB
:104DB0001CE73CE73CE73CE73CE73CE73CE73CE7FB
:104DC0003CE73CE75CE75CE7F4E48CDA6BDA4BDA6F
:104DD0002BD20BD20AD2EAD1CAD1A9D1A9D189D179
:104DE00069C949C948C928C908C908C9E8C8E7C87C
:104DF000C7C0A7C0A7C087C087C067C067C029C198
:104E000091D319DE3CE73CE73CE73CE73CE71CE795
:104E10001CE71CE71CE71CE71CE71CE71CE71CE77A
:104E20003CE71BE7D7C5EF93B2A43CE7FFFFFFFFCA
:104E3000FFFFFFFFFFFFDFFF7DEFDFFFFFFFFFFF54
:104E4000FFFFFFFFFFFFFFFFFFFFFFFFFFFFFFFF72
:104E5000FFFFFFFFFFFFFFFFFFFFFFFFFFFFFFFF62
:104E6000FFFFFFFFFFFFFFFFFFFFFFFFFFFFFFFF52
:104E7000FFFFFFFFFFFFFFFFFFFFDFFF7DEFBEF73D
:104E8000FFFFFFFFFFFFFFFFFFFF5DEF55BD54BDBD
:104E90001CEFBEF77DEF3CE71CE71CE71CE71CE7B7
:104EA0001CE71CE71CE71CE71CE71CE71CE71CE7EA
:104EB0003CE73CE73CE73CE73CE73CE73CE75CE7BA
:104EC0007CE79BE738DF94DD0DDB8CDA8CDA6CDA7B
:104ED0004BD24BD22BD20BD2EAD1CAD1CAD1AAD152
:104EE00089C989C969C949C929C928C908C908C955
:104EF000E8C0C8C0C8C0A8C0A7C088C088C068C073
:104F000067C02AC1F2D39AE63CE73CE73CE73CE7BE
:104F10003CE71CE71CE71CE71CE71CE71CE71CE759
:104F20001CE73CE7FBE6B6C5CF93F3AC5DEFFFFFB4
:104F3000FFFFFFFFFFFFFFFFBEF75DEFDFFFFFFF9C
:104F4000FFFFFFFFFFFFFFFFFFFFFFFFFFFFFFFF71
:104F5000FFFFFFFFFFFFFFFFFFFFFFFFFFFFFFFF61
:104F6000FFFFFFFFFFFFFFFFFFFFFFFFFFFFFFFF51
:104F7000FFFFFFFFFFFFFFFFFFFF7DEF9EF7FFFF3C
:104F8000FFFFFFFFFFFFFFFF7DEF96BD14BDFBE6B8
:104F9000BEF77DEF3CE71CE71CE71CE71CE71CE7BE
:104FA0001CE71CE71CE71CE71CE71CE73CE73CE7A9
:104FB0003CE73CE73CE73CE73CE75CE77BE79ADF24
:104FC00037D7EFC569C40CDBCDDACDDAADDA8CDAD0
:104FD0006CDA6CD24BD22BD20BD20BD2EAD1CAD123
:104FE000AAD1AAC98AC969C969C949C929C929C926
:104FF00008C108C1E8C0C8C0C8C0A8C0A8C0A9C02E
:10500000A9C089C088C00DCA56DD1CE73CE73CE753
:105010003CE73CE73CE71CE71CE71CE71CE71CE718
:105020001CE71CE73CE7FBDE75BDAE9375B59EF74C
:10503000FFFFFFFFFFFFFFFFFFFF9EF77DEFFFFF7B
:10504000FFFFFFFFFFFFFFFFFFFFFFFFFFFFFFFF70
:10505000FFFFFFFFFFFFFFFFFFFFFFFFFFFFFFFF60
:10506000FFFFFFFFFFFFFFFFFFFFFFFFFFFFFFFF50
:10507000FFFFFFFFFFFFFFFF9EF77DEFFFFFFFFF3B
:10508000FFFFFFFFFFFFBEF718CEF3B4BAE6BEF78F
:105090007DEF3CE71CE71CE71CE71CE71CE71CE76F
:1050A0001CE71CE71CE71CE71CE73CE73CE73CE788
:1050B0003CE73CE73CE77BE79AE799DF77D751C6C7
:1050C000E8BC06BC4CD30EDBEEDAEDDACDDAADDAB5
:1050D000ADDA8CD26CD24CD24BD22BD20BD2EBD1DC
:1050E000EBD1CAC9AAC98AC98AC969C949C949C902
:1050F00029C109C109C1E9C0E8C0C8C0C8C0C9C048
:10510000EAC0EAC8CAC889C00AC1D2D3BBE63CE734
:105110003CE73CE73CE73CE71CE71CE71CE71CE7F7
:105120001CE71CE71CE73CE7DBDE14B5AE93F7C5D4
:10513000BEF7FFFFFFFFFFFFFFFFFFFF7DEFBEF7A3
:10514000FFFFFFFFFFFFFFFFFFFFFFFFFFFFFFFF6F
:10515000FFFFFFFFFFFFFFFFFFFFFFFFFFFFFFFF5F
:10516000FFFFFFFFFFFFFFFFFFFFFFFFFFFFFFFF4F
:10517000FFFFFFFFFFFFDFFF5DEFBEF7FFFFFFFF5A
:10518000FFFFFFFFDFFF9AD6D3B458D6BEF79EF7D6
:105190003CE71CE71CE71CE71CE71CE71CE71CE7D7
:1051A0001CE71CE71CE71CE73CE73CE73CE73CE767
:1051B0003CE75BE79AE798DF98D735CF8CB565ACCD
:1051C00025BCACD34FDB2EDB0EDB0EDBEEDACDDA0B
:1051D000CDDAADD28DD26CD26CD24CD22CD20BD2D5
:1051E0000BD2EBC9CBC9AAC9AAC98AC96AC96AC9FB
:1051F00049C129C129C109C109C1E9C0E9C0C9B86A
:10520000E9C00AC12BC92CD1EBC8CAC0AFCA19DE8C
:105210003CE73CE73CE73CE73CE71CE71CE71CE7D6
:105220001CE71CE71CE71CE71CE79AD692A4EF9347
:105230009AD6DFFFFFFFFFFFFFFFFFFFBEF75DEF27
:10524000DFFFFFFFFFFFFFFFFFFFFFFFFFFFFFFF8E
:10525000FFFFFFFFFFFFFFFFFFFFFFFFFFFFFFFF5E
:10526000FFFFFFFFFFFFFFFFFFFFFFFFFFFFFFFF4E
:10527000FFFFFFFFFFFF7DEF9EF7FFFFFFFFFFFF39
:10528000FFFFFFFF1CE714B5D6CD7DF7BEF73CE767
:105290001CE71CE71CE71CE71CE71CE71CE71CE7F6
:1052A0001CE71CE73CE73CE73CE73CE73CE75CE706
:1052B0009AE798DF98D798D7D4C609AD64A465B4A7
:1052C000EBD36FDB6FDB4FDB2FDB2EDB0EDBEEDA9E
:1052D000EEDACDD2ADD2ADD28DD26CD24CD24CD290
:1052E0002CD20BCAEBC9EBC9CBC9ABC98AC98AC9D5
:1052F0006AC16AC14AC12AC129C109C109C1E9B843
:10530000E9B8E9B80AC16CC9AED16DD9EBC8EEC92C
:10531000B8DD3CE73CE73CE73CE73CE71CE71CE743
:105320001CE71CE71CE71CE71CE71CE738CE109CB9
:1053300071A43CE7FFFFFFFFFFFFFFFFFFFF7DEFD3
:105340007DEFFFFFFFFFFFFFFFFFFFFFFFFFFFFFFF
:10535000FFFFFFFFFFFFFFFFFFFFFFFFFFFFFFFF5D
:10536000FFFFFFFFFFFFFFFFFFFFFFFFFFFFFFFF4D
:10537000FFFFFFFFBEF75DEFFFFFFFFFFFFFFFFF38
:10538000FFFF9EF796BD34BD3CEFBEF75DEF1CE717
:105390001CE71CE71CE71CE71CE71CE71CE71CE7F5
:1053A0001CE73CE73CE73CE73CE73CE77BE799DF71
:1053B00098DF98D798D792C6C79C64A465AC0ACCEE
:1053C000B0E390DB90DB6FDB4FDB4FDB2FDB0EDBE3
:1053D0000EDBEEDACED2CED2ADD28DD26DD26DD280
:1053E0004CD22CCA0CCA0CCAEBC9CBC9CBC9ABC9AD
:1053F0008BC18AC16AC14AC14AC12AC12AC10AB93C
:105400000AB9E9B8E9B80AB96CC90FDAF0E12DD1E7
:10541000ADC957DD3CE73CE73CE73CE73CE71CE730
:105420001CE71CE71CE71CE71CE71CE7FBE6B6C50E
:10543000AE9355B59EF7FFFFFFFFFFFFFFFFDFFFB6
:105440005DEFBEF7FFFFFFFFFFFFFFFFFFFFFFFF67
:10545000FFFFFFFFFFFFFFFFFFFFFFFFFFFFFFFF5C
:10546000FFFFFFFFFFFFFFFFFFFFFFFFFFFFFFFF4C
:10547000FFFFDFFF7DEFBEF7FFFFFFFFFFFFFFFF37
:10548000DFFF59D6D3B4BADEBEF77DEF1CE71CE7C9
:105490001CE71CE71CE71CE71CE71CE71CE71CE7F4
:1054A0003CE73CE73CE73CE75CE79AE798DF98DFBE
:1054B00078D798D792BEA694649C84AC49CCF1EB83
:1054C000D1EBB1E3B0E390DB70DB6FDB4FDB2FDBC5
:1054D0002FDB0FDBEED2EED2CED2AED2ADD28DD25A
:1054E0006DD24DCA4CCA2CCA0CCAECC9ECC9CBC986
:1054F000ABC1ABC18BC16BC16BC14AC14AB92AB93F
:105500002AB90AB90AB9EAB8EAB86CC12FDA71EA5D
:10551000AFE18EC937DD3CE73CE73CE73CE73CE7E1
:105520001CE71CE71CE71CE71CE71CE71CE7DBDEAD
:10553000F3B4CE9379D6DFFFFFFFFFFFFFFFFFFF3E
:10554000BEF77DEFDFFFFFFFFFFFFFFFFFFFFFFF66
:10555000FFFFFFFFFFFFFFFFFFFFFFFFFFFFFFFF5B
:10556000FFFFFFFFFFFFFFFFFFFFFFFFFFFFFFFF4B
:10557000FFFF9EF77DEFFFFFFFFFFFFFFFFFFFFF36
:105580003CE714B5F7CD9EF79EF73CE71CE71CE718
:105590001CE71CE71CE71CE71CE71CE71CE73CE7D3
:1055A0003CE73CE73CE75BE799E798DF97DF78D794
:1055B00098DFD4C6A694649485A489C411ECF1EB59
:1055C000F1EBD1EBD1EBB1E390E390DB70DB50DB9F
:1055D0004FDB2FDB0FD30FD3EED2CED2CED2AED253
:1055E0008DD26DD26DDA4DDA4DDA2DDA0DD2ECD1E5
:1055F000ECD1CCC9ACC9ABC18BC16BC16BB94BB9D8
:105600002BB92AB90AB90AB90AB9EAB84CB92FD2E2
:10561000B2EAF0E1EFD198DD3CE73CE73CE73CE75C
:105620003CE71CE71CE71CE71CE71CE71CE71CE742
:1056300059D6309C71A43CE7FFFFFFFFFFFFFFFF3F
:10564000FFFF5DEFBEF7FFFFFFFFFFFFFFFFFFFF65
:10565000FFFFFFFFFFFFFFFFFFFFFFFFFFFFFFFF5A
:10566000FFFFFFFFFFFFFFFFFFFFFFFFFFFFFFFF4A
:10567000DFFF5DEFBEF7FFFFFFFFFFFFFFFFBEF79E
:10568000D7C534BD3CEFBEF75DEF1CE71CE71CE758
:105690001CE71CE71CE71CE71CE71CE71CE73CE7D2
:1056A0003CE73CE75AE798DF97DF97DF97D798DF2B
:1056B00036CF0895648C849CC7B474ED17FD53F401
:1056C000F2EBF1EBD1EBD1EBB1EBB1E390DB70DBC3
:1056D00070DB50DB2FDB2FD30FD3EFD2EED2CED245
:1056E000AED2AED28EDA6EDA6EDA4EDA2EDA2DDA8B
:1056F0000DDAEDD9EDD1CDD1ACD18CC98CC16BC156
:105700004BB94BB92BB92BB90BB90BB10BB12CB9A8
:105710002FD2B2EA30E250DAF9E53CE73CE73CE769
:105720003CE73CE71CE71CE71CE71CE71CE71CE721
:10573000FBE696BDAE9396BDBEF7FFFFFFFFFFFFF2
:10574000FFFFBEF75DEFDFFFFFFFFFFFFFFFFFFF84
:10575000FFFFFFFFFFFFFFFFFFFFFFFFFFFFFFFF59
:10576000FFFFFFFFFFFFFFFFFFFFFFFFFFFFFFFF49
:105770009EF75DEFFFFFFFFFFFFFFFFFFFFFDBDE99
:10578000F3B459DEBEF77DEF1CE71CE71CE71CE70E
:105790001CE71CE71CE71CE71CE71CE73CE73CE7B1
:1057A0003CE75AE776DF76D797DF97DF98D778D749
:1057B0006B9D64848494A5A4C5B42ACDB2E5B7FDDD
:1057C00017FD54F4F2EBF2EBD2EBD1EBB1EB91E33A
:1057D00090DB70DB50DB50D32FD30FD30FD3EFD23E
:1057E000CFD2CED2AED2AFDA8EDA6EDA6EDA4EDA4F
:1057F0002EDA0EDA0DD2EDD1EDD1CDD1ADD18CC9ED
:105800008CC16CB94BB94BB92BB92BB10BB10BB1E6
:105810002CB90FCAB2E230E2F2DA5AE63CE73CE7D2
:105820003CE73CE71CE71CE71CE71CE71CE71CE720
:105830003CE7BADE92ACEF93FBDEFFFFFFFFFFFF1A
:10584000FFFFFFFF5DEF9EF7FFFFFFFFFFFFFFFF83
:10585000FFFFFFFFFFFFFFFFFFFFFFFFFFFFFFFF58
:10586000FFFFFFFFFFFFFFFFFFFFFFFFFFFFDFFF68
:105870005DEFBEF7FFFFFFFFFFFFFFFF9EF796BD47
:1058800055C55DEF9EF73CE71CE71CE71CE71CE7EE
:105890001CE71CE71CE71CE71CE73CE73CE73CE790
:1058A00059DF75D775D776D777D797D7B9DF30B6A1
:1058B000647C848CA59CC5ACE5B4E5C4E5CC29D555
:1058C00092EDB7FD17FD54F4F2EBD2EBD2EBB1EB56
:1058D000B1E391E371DB70DB50D330D330D30FD31E
:1058E000EFD2EFD2CFD2CFE2D0E2AFE28FE26FDAE7
:1058F0006FDA4EDA2ED20ED2EED1EED1CDD1CDD19D
:10590000ADD18DC98CC16CB94CB94CB12CB12BB196
:105910000BB12CB10FCAB2E210E293DBBBE63CE75D
:105920003CE73CE73CE71CE71CE71CE71CE71CE7FF
:105930001CE71CE7F7CDCE9355B5BEF7FFFFFFFF81
:10594000FFFFFFFFBEF75DEFDFFFFFFFFFFFFFFF82
:10595000FFFFFFFFFFFFFFFFFFFFFFFFFFFFFFFF57
:10596000FFFFFFFFFFFFFFFFFFFFFFFFFFFFBEF790
:105970005DEFFFFFFFFFFFFFFFFFFFFFBADEF3B4A6
:105980009ADEBEF75DEF1CE71CE71CE71CE71CE78F
:105990001CE71CE71CE71CE73CE73CE73CE739DF7A
:1059A00053CF54CF75CF76D777D798DF16CFC7842C
:1059B0008484A594C5A4E5B405BD05C505CD25D54C
:1059C00046DD6AEDB2F5B8FD17FD54F4F2EBD2EB0B
:1059D000D2EBB2E3B1E391E371DB50D350D330D3D8
:1059E00010D30FD310D3D4F316FCF6FBD5FBB5FBC5
:1059F00074F313F3D2EA91E250E20FDAEED1EED172
:105A0000CED1AEC9AEC98DC96DB96CB94CB14CB16E
:105A10002CB12CB14DB12FD291E2F0D996DCFCE63D
:105A20003CE73CE73CE71CE71CE71CE71CE71CE7FE
:105A30001CE73CE7DBDED3ACCF93DBDEFFFFFFFFF1
:105A4000FFFFFFFFFFFF5DEFBEF7FFFFFFFFFFFF61
:105A5000FFFFFFFFFFFFFFFFFFFFFFFFFFFFFFFF56
:105A6000FFFFFFFFFFFFFFFFFFFFFFFFDFFF5DEF18
:105A70009EF7FFFFFFFFFFFFFFFF9EF796BD75C577
:105A80007DF79EF73CE71CE71CE71CE71CE71CE7DB
:105A90001CE71CE71CE71CE73CE73CE739DF52CF7B
:105AA00052C753CF54CF75CF96D798DFADA5647C3E
:105AB000A48CC59CE5AC05BD25C526CD66DD86E577
:105AC00086E566E546E549EDB2F5D9FD17FD54ECEE
:105AD000F2EBD2E3B2E3B2E392E391DB71DB50D3BA
:105AE00030D330D330D3B9EDDCF6BCF6BCF69CF63F
:105AF0007BF6BAF539FD98FCD6FB14F392EA50E236
:105B00000FD2CEC9CEC9AEC9AEC98DC16DB96CB107
:105B10004CB14CB12CB16DB930D230E251DAD9E58B
:105B20003CE73CE73CE73CE71CE71CE71CE71CE7DD
:105B30001CE71CE71CE718CECF9334B5BEF7FFFF78
:105B4000FFFFFFFFFFFF9EF77DEFDFFFFFFFFFFF80
:105B5000FFFFFFFFFFFFFFFFFFFFFFFFFFFFFFFF55
:105B6000FFFFFFFFFFFFFFFFFFFFFFFFDFFF5DEF17
:105B7000DFFFFFFFFFFFFFFFFFFFDBDEF3B499DE78
:105B8000BEF75DEF1CE71CE71CE71CE71CE71CE702
:105B90001CE71CE71CE73CE73CE73BE732C730C7A4
:105BA00052C753C754CF75CF97D7F5CE857C848421
:105BB000C594E5A405B525BD66CD86DDA6E5A6E5BB
:105BC00086ED86ED66EDA9ED71F619F7BCFEFBFDDD
:105BD00018FD54ECF3E3D2E3B2E3B2E392E371DBFA
:105BE00071D351D330D377E5BEF79EF79EF79EF77A
:105BF0009EF79EF79EF77DF7FCEE9BEDD8EBD5EA7E
:105C0000D4F272E210D2CFC9CEC9AEC9AEC18DB93D
:105C10006DB14DB14DB14DB18EB910CACFD193D345
:105C2000BBE63CE73CE73CE71CE71CE71CE71CE75E
:105C30001CE71CE73CE7DBDED3ACEF93FBDEFFFFAA
:105C4000FFFFFFFFFFFFDFFF5DEFDFFFFFFFFFFF56
:105C5000FFFFFFFFFFFFFFFFFFFFFFFFFFFFFFFF54
:105C6000FFFFFFFFFFFFFFFFFFFFDFFF7DEF7DEF88
:105C7000FFFFFFFFFFFFFFFFBEF7D7C554BD5DEF7E
:105C80009EF73CE71CE71CE71CE71CE71CE71CE74A
:105C90001CE71CE73CE73CE73BE733CF2EBF30BFB8
:105CA00031C753C754C775CF98DFCDA5647CA48C8A
:105CB000E59C05AD45BD86CDA6DDC6E5C6E5A6EDF0
:105CC000A6EDC8ED6FF637F77BF79DF79EF75EF709
:105CD000BDFEFBFD18F555ECD3E3B2E3B2E392E36E
:105CE00092E372DB51D3D6E49EF79EF79EF79EF7C0
:105CF0009EF79EF79EF79EF79EF79EEFDCE618CC88
:105D000075BAB5DAD5EA72E210D2CFC9CFC9AFC140
:105D10008EB96DB16DB14DA94DA98EB1CFC9EFC985
:105D200058DD3CE73CE73CE73CE71CE71CE71CE7A9
:105D30001CE71CE71CE73CE7F7CDAE9396BDDFF709
:105D4000FFFFFFFFFFFFFFFF7DEF7DEFFFFFFFFF87
:105D5000FFFFFFFFFFFFFFFFFFFFFFFFFFFFFFFF53
:105D6000FFFFFFFFFFFFFFFFFFFFDFFF5DEFBEF75E
:105D7000FFFFFFFFFFFFFFFF3CE7F3B438D6BEF79E
:105D80007DEF1CE71CE71CE71CE71CE71CE71CE792
:105D90001CE73CE73CE73CE736CF2EB72FBF30BFD0
:105DA00031BF32C753C795CF15CFA67C847CC5942D
:105DB00005A545B586CDC6D5E6E5E6E5C6EDE7ED34
:105DC0004CF615F77AF79DF79EF79EF79EF79EF72C
:105DD0009EF77EF7DDFEFCFD18F555ECD3E3B2E34C
:105DE000B2E392E372DB55E45DF79EF79EF79EF710
:105DF0009EF79EF79EF79EF79EF79EF79EF73DEF64
:105E000078C4139A13AA95D2B5EA52DAF0C9CFC171
:105E1000CFC1AFB98EB16EA96EA96EA9AFB18FC156
:105E200033CBDBE63CE73CE73CE73CE71CE71CE721
:105E30001CE71CE71CE73CE7BADE92A4309C3CEF71
:105E4000FFFFFFFFFFFFFFFFBEF75DEFDFFFFFFF7D
:105E5000FFFFFFFFFFFFFFFFFFFFFFFFFFFFFFFF52
:105E6000FFFFFFFFFFFFFFFFFFFFBEF75DEFFFFF3D
:105E7000FFFFFFFFFFFFDFFF38CEF3B41CEFBEF7DD
:105E80003CE71CE71CE71CE71CE71CE71CE71CE7DA
:105E90001CE73CE73CE739D72FB72EB70EB70FB753
:105EA00030BF32BF53C796D750B66474A484E5940C
:105EB00025AD86C5C6D5E6DD06E606EE2AEED1F6A8
:105EC00058F79CF79EF79EF79EF79EF79EF79EF772
:105ED000BEF7BEF7BEF77EF7DDFEFCFD19F555EC0B
:105EE000D3E3B3E392DBF4E3FCF6BEF79EF79EF751
:105EF0009EF79EF79EF79EF79EF79EF79EF79EF7FA
